{
  "_format": "hh-sol-artifact-1",
  "contractName": "CreditManager",
  "sourceName": "contracts/CreditManager.sol",
  "abi": [
    {
      "inputs": [],
      "stateMutability": "nonpayable",
      "type": "constructor"
    },
    {
      "inputs": [],
      "name": "AccessControlBadConfirmation",
      "type": "error"
    },
    {
      "inputs": [
        {
          "internalType": "address",
          "name": "account",
          "type": "address"
        },
        {
          "internalType": "bytes32",
          "name": "neededRole",
          "type": "bytes32"
        }
      ],
      "name": "AccessControlUnauthorizedAccount",
      "type": "error"
    },
    {
      "inputs": [
        {
          "internalType": "address",
          "name": "target",
          "type": "address"
        }
      ],
      "name": "AddressEmptyCode",
      "type": "error"
    },
    {
      "inputs": [
        {
          "internalType": "address",
          "name": "account",
          "type": "address"
        }
      ],
      "name": "AddressInsufficientBalance",
      "type": "error"
    },
    {
      "inputs": [
        {
          "internalType": "address",
          "name": "implementation",
          "type": "address"
        }
      ],
      "name": "ERC1967InvalidImplementation",
      "type": "error"
    },
    {
      "inputs": [],
      "name": "ERC1967NonPayable",
      "type": "error"
    },
    {
      "inputs": [],
      "name": "FailedInnerCall",
      "type": "error"
    },
    {
      "inputs": [],
      "name": "InvalidInitialization",
      "type": "error"
    },
    {
      "inputs": [],
      "name": "NoAdminExists",
      "type": "error"
    },
    {
      "inputs": [],
      "name": "NotAdmin",
      "type": "error"
    },
    {
      "inputs": [],
      "name": "NotAdminOrJobOwner",
      "type": "error"
    },
    {
      "inputs": [],
      "name": "NotAdminOrWhitelisted",
      "type": "error"
    },
    {
      "inputs": [],
      "name": "NotEnoughCreditBalance",
      "type": "error"
    },
    {
      "inputs": [
        {
          "internalType": "uint256",
          "name": "balance",
          "type": "uint256"
        }
      ],
      "name": "NotEnoughJobBalance",
      "type": "error"
    },
    {
      "inputs": [],
      "name": "NotEnoughTokenBalance",
      "type": "error"
    },
    {
      "inputs": [],
      "name": "NotEnoughTokenReserve",
      "type": "error"
    },
    {
      "inputs": [],
      "name": "NotInitializing",
      "type": "error"
    },
    {
      "inputs": [],
      "name": "NotJobOwner",
      "type": "error"
    },
    {
      "inputs": [],
      "name": "NotWhitelisted",
      "type": "error"
    },
    {
      "inputs": [],
      "name": "NotWhitelistedProvider",
      "type": "error"
    },
    {
      "inputs": [],
      "name": "ReentrancyGuardReentrantCall",
      "type": "error"
    },
    {
      "inputs": [
        {
          "internalType": "address",
          "name": "token",
          "type": "address"
        }
      ],
      "name": "SafeERC20FailedOperation",
      "type": "error"
    },
    {
      "inputs": [],
      "name": "UUPSUnauthorizedCallContext",
      "type": "error"
    },
    {
      "inputs": [
        {
          "internalType": "bytes32",
          "name": "slot",
          "type": "bytes32"
        }
      ],
      "name": "UUPSUnsupportedProxiableUUID",
      "type": "error"
    },
    {
      "inputs": [],
      "name": "ZeroAddress",
      "type": "error"
    },
    {
      "inputs": [],
      "name": "ZeroAmount",
      "type": "error"
    },
    {
      "anonymous": false,
      "inputs": [
        {
          "indexed": true,
          "internalType": "address",
          "name": "_credit",
          "type": "address"
        }
      ],
      "name": "CreditUpdated",
      "type": "event"
    },
    {
      "anonymous": false,
      "inputs": [
        {
          "indexed": false,
          "internalType": "uint64",
          "name": "version",
          "type": "uint64"
        }
      ],
      "name": "Initialized",
      "type": "event"
    },
    {
      "anonymous": false,
      "inputs": [
        {
          "indexed": true,
          "internalType": "bytes32",
          "name": "jobId",
          "type": "bytes32"
        },
        {
          "indexed": true,
          "internalType": "address",
          "name": "user",
          "type": "address"
        },
        {
          "indexed": false,
          "internalType": "uint256",
          "name": "creditAmount",
          "type": "uint256"
        },
        {
          "indexed": false,
          "internalType": "uint256",
          "name": "tokenAmount",
          "type": "uint256"
        }
      ],
      "name": "JobClosed",
      "type": "event"
    },
    {
      "anonymous": false,
      "inputs": [
        {
          "indexed": true,
          "internalType": "bytes32",
          "name": "jobId",
          "type": "bytes32"
        },
        {
          "indexed": true,
          "internalType": "address",
          "name": "user",
          "type": "address"
        },
        {
          "indexed": false,
          "internalType": "uint256",
          "name": "creditAmount",
          "type": "uint256"
        },
        {
          "indexed": false,
          "internalType": "uint256",
          "name": "tokenAmount",
          "type": "uint256"
        }
      ],
      "name": "JobDeposited",
      "type": "event"
    },
    {
      "anonymous": false,
      "inputs": [
        {
          "indexed": true,
          "internalType": "bytes32",
          "name": "jobId",
          "type": "bytes32"
        },
        {
          "indexed": true,
          "internalType": "address",
          "name": "user",
          "type": "address"
        },
        {
          "indexed": false,
          "internalType": "uint256",
          "name": "creditAmount",
          "type": "uint256"
        },
        {
          "indexed": false,
          "internalType": "uint256",
          "name": "tokenAmount",
          "type": "uint256"
        }
      ],
      "name": "JobOpened",
      "type": "event"
    },
    {
      "anonymous": false,
      "inputs": [
        {
          "indexed": true,
          "internalType": "bytes32",
          "name": "jobId",
          "type": "bytes32"
        },
        {
          "indexed": true,
          "internalType": "address",
          "name": "user",
          "type": "address"
        },
        {
          "indexed": false,
          "internalType": "uint256",
          "name": "creditAmount",
          "type": "uint256"
        },
        {
          "indexed": false,
          "internalType": "uint256",
          "name": "tokenAmount",
          "type": "uint256"
        }
      ],
      "name": "JobWithdrawn",
      "type": "event"
    },
    {
      "anonymous": false,
      "inputs": [
        {
          "indexed": true,
          "internalType": "address",
          "name": "_market",
          "type": "address"
        }
      ],
      "name": "MarketUpdated",
      "type": "event"
    },
    {
      "anonymous": false,
      "inputs": [
        {
          "indexed": true,
          "internalType": "address",
          "name": "provider",
          "type": "address"
        }
      ],
      "name": "ProviderAddedToWhitelist",
      "type": "event"
    },
    {
      "anonymous": false,
      "inputs": [
        {
          "indexed": true,
          "internalType": "address",
          "name": "provider",
          "type": "address"
        }
      ],
      "name": "ProviderRemovedFromWhitelist",
      "type": "event"
    },
    {
      "anonymous": false,
      "inputs": [
        {
          "indexed": true,
          "internalType": "bytes32",
          "name": "role",
          "type": "bytes32"
        },
        {
          "indexed": true,
          "internalType": "bytes32",
          "name": "previousAdminRole",
          "type": "bytes32"
        },
        {
          "indexed": true,
          "internalType": "bytes32",
          "name": "newAdminRole",
          "type": "bytes32"
        }
      ],
      "name": "RoleAdminChanged",
      "type": "event"
    },
    {
      "anonymous": false,
      "inputs": [
        {
          "indexed": true,
          "internalType": "bytes32",
          "name": "role",
          "type": "bytes32"
        },
        {
          "indexed": true,
          "internalType": "address",
          "name": "account",
          "type": "address"
        },
        {
          "indexed": true,
          "internalType": "address",
          "name": "sender",
          "type": "address"
        }
      ],
      "name": "RoleGranted",
      "type": "event"
    },
    {
      "anonymous": false,
      "inputs": [
        {
          "indexed": true,
          "internalType": "bytes32",
          "name": "role",
          "type": "bytes32"
        },
        {
          "indexed": true,
          "internalType": "address",
          "name": "account",
          "type": "address"
        },
        {
          "indexed": true,
          "internalType": "address",
          "name": "sender",
          "type": "address"
        }
      ],
      "name": "RoleRevoked",
      "type": "event"
    },
    {
      "anonymous": false,
      "inputs": [
        {
          "indexed": false,
          "internalType": "uint256",
          "name": "amount",
          "type": "uint256"
        }
      ],
      "name": "TokenReserveAdded",
      "type": "event"
    },
    {
      "anonymous": false,
      "inputs": [
        {
          "indexed": true,
          "internalType": "address",
          "name": "_token",
          "type": "address"
        }
      ],
      "name": "TokenUpdated",
      "type": "event"
    },
    {
      "anonymous": false,
      "inputs": [
        {
          "indexed": true,
          "internalType": "address",
          "name": "implementation",
          "type": "address"
        }
      ],
      "name": "Upgraded",
      "type": "event"
    },
    {
      "inputs": [],
      "name": "ALLOWED_PROVIDER_ROLE",
      "outputs": [
        {
          "internalType": "bytes32",
          "name": "",
          "type": "bytes32"
        }
      ],
      "stateMutability": "view",
      "type": "function"
    },
    {
      "inputs": [],
      "name": "DEFAULT_ADMIN_ROLE",
      "outputs": [
        {
          "internalType": "bytes32",
          "name": "",
          "type": "bytes32"
        }
      ],
      "stateMutability": "view",
      "type": "function"
    },
    {
      "inputs": [],
      "name": "UPGRADE_INTERFACE_VERSION",
      "outputs": [
        {
          "internalType": "string",
          "name": "",
          "type": "string"
        }
      ],
      "stateMutability": "view",
      "type": "function"
    },
    {
      "inputs": [],
      "name": "credit",
      "outputs": [
        {
          "internalType": "address",
          "name": "",
          "type": "address"
        }
      ],
      "stateMutability": "view",
      "type": "function"
    },
    {
      "inputs": [
        {
          "internalType": "bytes32",
          "name": "role",
          "type": "bytes32"
        }
      ],
      "name": "getRoleAdmin",
      "outputs": [
        {
          "internalType": "bytes32",
          "name": "",
          "type": "bytes32"
        }
      ],
      "stateMutability": "view",
      "type": "function"
    },
    {
      "inputs": [
        {
          "internalType": "bytes32",
          "name": "role",
          "type": "bytes32"
        },
        {
          "internalType": "uint256",
          "name": "index",
          "type": "uint256"
        }
      ],
      "name": "getRoleMember",
      "outputs": [
        {
          "internalType": "address",
          "name": "",
          "type": "address"
        }
      ],
      "stateMutability": "view",
      "type": "function"
    },
    {
      "inputs": [
        {
          "internalType": "bytes32",
          "name": "role",
          "type": "bytes32"
        }
      ],
      "name": "getRoleMemberCount",
      "outputs": [
        {
          "internalType": "uint256",
          "name": "",
          "type": "uint256"
        }
      ],
      "stateMutability": "view",
      "type": "function"
    },
    {
      "inputs": [
        {
          "internalType": "bytes32",
          "name": "role",
          "type": "bytes32"
        },
        {
          "internalType": "address",
          "name": "account",
          "type": "address"
        }
      ],
      "name": "grantRole",
      "outputs": [],
      "stateMutability": "nonpayable",
      "type": "function"
    },
    {
      "inputs": [
        {
          "internalType": "bytes32",
          "name": "role",
          "type": "bytes32"
        },
        {
          "internalType": "address",
          "name": "account",
          "type": "address"
        }
      ],
      "name": "hasRole",
      "outputs": [
        {
          "internalType": "bool",
          "name": "",
          "type": "bool"
        }
      ],
      "stateMutability": "view",
      "type": "function"
    },
    {
      "inputs": [
        {
          "internalType": "address",
          "name": "_market",
          "type": "address"
        },
        {
          "internalType": "address",
          "name": "_token",
          "type": "address"
        },
        {
          "internalType": "address",
          "name": "_credit",
          "type": "address"
        },
        {
          "internalType": "address",
          "name": "_admin",
          "type": "address"
        }
      ],
      "name": "initialize",
      "outputs": [],
      "stateMutability": "nonpayable",
      "type": "function"
    },
    {
      "inputs": [
        {
          "internalType": "bytes32",
          "name": "_jobId",
          "type": "bytes32"
        }
      ],
      "name": "jobClose",
      "outputs": [],
      "stateMutability": "nonpayable",
      "type": "function"
    },
    {
      "inputs": [
        {
          "internalType": "bytes32",
          "name": "_jobId",
          "type": "bytes32"
        },
        {
          "internalType": "uint256",
          "name": "_creditAmount",
          "type": "uint256"
        },
        {
          "internalType": "uint256",
          "name": "_tokenAmount",
          "type": "uint256"
        }
      ],
      "name": "jobDeposit",
      "outputs": [],
      "stateMutability": "nonpayable",
      "type": "function"
    },
    {
      "inputs": [
        {
          "internalType": "bytes32",
          "name": "_jobId",
          "type": "bytes32"
        },
        {
          "internalType": "string",
          "name": "_metadata",
          "type": "string"
        }
      ],
      "name": "jobMetadataUpdate",
      "outputs": [],
      "stateMutability": "nonpayable",
      "type": "function"
    },
    {
      "inputs": [
        {
          "internalType": "string",
          "name": "_metadata",
          "type": "string"
        },
        {
          "internalType": "address",
          "name": "_provider",
          "type": "address"
        },
        {
          "internalType": "uint256",
          "name": "_rate",
          "type": "uint256"
        },
        {
          "internalType": "uint256",
          "name": "_creditAmount",
          "type": "uint256"
        },
        {
          "internalType": "uint256",
          "name": "_tokenAmount",
          "type": "uint256"
        }
      ],
      "name": "jobOpen",
      "outputs": [],
      "stateMutability": "nonpayable",
      "type": "function"
    },
    {
      "inputs": [
        {
          "internalType": "bytes32",
          "name": "_jobId",
          "type": "bytes32"
        }
      ],
      "name": "jobReviseRateCancel",
      "outputs": [],
      "stateMutability": "nonpayable",
      "type": "function"
    },
    {
      "inputs": [
        {
          "internalType": "bytes32",
          "name": "_jobId",
          "type": "bytes32"
        }
      ],
      "name": "jobReviseRateFinalize",
      "outputs": [],
      "stateMutability": "nonpayable",
      "type": "function"
    },
    {
      "inputs": [
        {
          "internalType": "bytes32",
          "name": "_jobId",
          "type": "bytes32"
        },
        {
          "internalType": "uint256",
          "name": "_newRate",
          "type": "uint256"
        }
      ],
      "name": "jobReviseRateInitiate",
      "outputs": [],
      "stateMutability": "nonpayable",
      "type": "function"
    },
    {
      "inputs": [
        {
          "internalType": "bytes32",
          "name": "_jobId",
          "type": "bytes32"
        },
        {
          "internalType": "uint256",
          "name": "_creditAmount",
          "type": "uint256"
        },
        {
          "internalType": "uint256",
          "name": "_tokenAmount",
          "type": "uint256"
        }
      ],
      "name": "jobWithdraw",
      "outputs": [],
      "stateMutability": "nonpayable",
      "type": "function"
    },
    {
      "inputs": [
        {
          "internalType": "bytes32",
          "name": "jobId",
          "type": "bytes32"
        }
      ],
      "name": "jobs",
      "outputs": [
        {
          "internalType": "address",
          "name": "user",
          "type": "address"
        },
        {
          "internalType": "uint256",
          "name": "creditBalance",
          "type": "uint256"
        },
        {
          "internalType": "uint256",
          "name": "tokenBalance",
          "type": "uint256"
        }
      ],
      "stateMutability": "view",
      "type": "function"
    },
    {
      "inputs": [],
      "name": "market",
      "outputs": [
        {
          "internalType": "contract IMarketV1",
          "name": "",
          "type": "address"
        }
      ],
      "stateMutability": "view",
      "type": "function"
    },
    {
      "inputs": [],
      "name": "proxiableUUID",
      "outputs": [
        {
          "internalType": "bytes32",
          "name": "",
          "type": "bytes32"
        }
      ],
      "stateMutability": "view",
      "type": "function"
    },
    {
      "inputs": [
        {
          "internalType": "bytes32",
          "name": "role",
          "type": "bytes32"
        },
        {
          "internalType": "address",
          "name": "callerConfirmation",
          "type": "address"
        }
      ],
      "name": "renounceRole",
      "outputs": [],
      "stateMutability": "nonpayable",
      "type": "function"
    },
    {
      "inputs": [
        {
          "internalType": "bytes32",
          "name": "role",
          "type": "bytes32"
        },
        {
          "internalType": "address",
          "name": "account",
          "type": "address"
        }
      ],
      "name": "revokeRole",
      "outputs": [],
      "stateMutability": "nonpayable",
      "type": "function"
    },
    {
      "inputs": [
        {
          "internalType": "bytes4",
          "name": "interfaceId",
          "type": "bytes4"
        }
      ],
      "name": "supportsInterface",
      "outputs": [
        {
          "internalType": "bool",
          "name": "",
          "type": "bool"
        }
      ],
      "stateMutability": "view",
      "type": "function"
    },
    {
      "inputs": [
        {
          "internalType": "address",
          "name": "_to",
          "type": "address"
        }
      ],
      "name": "sweepCredit",
      "outputs": [],
      "stateMutability": "nonpayable",
      "type": "function"
    },
    {
      "inputs": [
        {
          "internalType": "address",
          "name": "_to",
          "type": "address"
        }
      ],
      "name": "sweepToken",
      "outputs": [],
      "stateMutability": "nonpayable",
      "type": "function"
    },
    {
      "inputs": [],
      "name": "token",
      "outputs": [
        {
          "internalType": "address",
          "name": "",
          "type": "address"
        }
      ],
      "stateMutability": "view",
      "type": "function"
    },
    {
      "inputs": [
        {
          "internalType": "address",
          "name": "_credit",
          "type": "address"
        }
      ],
      "name": "updateCredit",
      "outputs": [],
      "stateMutability": "nonpayable",
      "type": "function"
    },
    {
      "inputs": [
        {
          "internalType": "address",
          "name": "_market",
          "type": "address"
        }
      ],
      "name": "updateMarket",
      "outputs": [],
      "stateMutability": "nonpayable",
      "type": "function"
    },
    {
      "inputs": [
        {
          "internalType": "address",
          "name": "_token",
          "type": "address"
        }
      ],
      "name": "updateToken",
      "outputs": [],
      "stateMutability": "nonpayable",
      "type": "function"
    },
    {
      "inputs": [
        {
          "internalType": "address",
          "name": "newImplementation",
          "type": "address"
        },
        {
          "internalType": "bytes",
          "name": "data",
          "type": "bytes"
        }
      ],
      "name": "upgradeToAndCall",
      "outputs": [],
      "stateMutability": "payable",
      "type": "function"
    },
    {
      "inputs": [
        {
          "internalType": "address",
          "name": "_to",
          "type": "address"
        },
        {
          "internalType": "uint256",
          "name": "_amount",
          "type": "uint256"
        }
      ],
      "name": "withdraw",
      "outputs": [],
      "stateMutability": "nonpayable",
      "type": "function"
    }
  ],
  "bytecode": "0x60a080604052346100e857306080527ff0c57e16840df040f15088dc2f81fe391c3923bec73e23a9662efc9c229c6a005460ff8160401c166100d9576002600160401b03196001600160401b03821601610073575b60405161250a90816100ed82396080518181816111ca015261129a0152f35b6001600160401b0319166001600160401b039081177ff0c57e16840df040f15088dc2f81fe391c3923bec73e23a9662efc9c229c6a005581527fc7f505b2f371ae2175ee4913f4499e1f2633a7b5936321eed1cdaeb6115181d290602090a15f80610054565b63f92ee8a960e01b5f5260045ffd5b5f80fdfe6080806040526004361015610012575f80fd5b5f905f3560e01c90816301ffc9a714611abb5750806316117a2f146116f35780631be195601461166a578063248a9ca3146116435780632f2ff15d1461161157806336568abe146115cc57806338ed7cfc1461158257806345c08718146115325780634c2dae39146114715780634f1ef2861461121e57806352d1902d146111b7578063546ae9f21461114257806372dcaad7146110f257806379bcb33814610f625780637ad3def214610f1257806380f5560514610ee95780638cb497e614610e2b5780638de6070114610df05780638e7bb99d14610bb35780639010d07c14610b6957806391d1485414610b13578063a06d083c14610aea578063a217fddf14610ace578063a6aa7669146107f8578063ad3cb1cc1461079c578063b3a6453914610723578063ba64247f1461067d578063ca15c87314610647578063d547741f1461060c578063f3fef3a31461059b578063f8c8765e146101a75763fc0c546a1461017e575f80fd5b346101a457806003193601126101a457546040516001600160a01b039091168152602090f35b80fd5b50346101a45760803660031901126101a4576101c1611b42565b6101c9611b58565b6044356001600160a01b038116929190838103610597576064356001600160a01b03811693909290848403610593575f805160206124b5833981519152549560ff8760401c16159667ffffffffffffffff81168015908161058b575b6001149081610581575b159081610578575b506105695767ffffffffffffffff1981166001175f805160206124b5833981519152558761053d575b506001600160a01b0382161515908161052a575b81610520575b5080610517575b1561050857916102e96102ee926102e46102f3969561029e6121ac565b6102a66121ac565b6102ae6121ac565b6102b66121ac565b6102be6121ac565b6102c66121ac565b6102ce6121ac565b60015f8051602061249583398151915255611edc565b611f67565b611e86565b612030565b6104e0575b508154600254604051636eb1769f60e11b81523060048201526001600160a01b039182166024820181905292909116602082604481845afa9182156104d557859261049d575b505f1982018092116104895760405163095ea7b360e01b602082019081526001600160a01b03851660248301526044808301949094529281529185908190610387606486611b6e565b84519082855af16103966122e2565b8161045a575b5080610450575b1561040b575b5050506103b35780f35b68ff0000000000000000195f805160206124b583398151915254165f805160206124b5833981519152557fc7f505b2f371ae2175ee4913f4499e1f2633a7b5936321eed1cdaeb6115181d2602060405160018152a180f35b610443610448936040519063095ea7b360e01b602083015260248201528660448201526044815261043d606482611b6e565b82611fc5565b611fc5565b5f80806103a9565b50803b15156103a3565b805180159250821561046f575b50505f61039c565b6104829250602080918301019101611fad565b5f80610467565b634e487b7160e01b85526011600452602485fd5b9091506020813d6020116104cd575b816104b960209383611b6e565b810103126104c95751905f61033e565b5f80fd5b3d91506104ac565b6040513d87823e3d90fd5b610501908380525f80516020612435833981519152602052604084206121d7565b505f6102f8565b63d92e233d60e01b8752600487fd5b50841515610281565b905015155f61027a565b6001600160a01b03841615159150610274565b68ffffffffffffffffff191668010000000000000001175f805160206124b5833981519152555f610260565b63f92ee8a960e01b8952600489fd5b9050155f610237565b303b15915061022f565b899150610225565b8680fd5b8480fd5b50346101a45760403660031901126101a4576105b5611b42565b8180525f8051602061247583398151915260209081526040808420335f908152925290205460ff16156105fd5781546105fa91602435916001600160a01b0316611d29565b80f35b637bfa4b9f60e01b8252600482fd5b50346101a45760403660031901126101a45761064360043561062c611b58565b9061063e61063982611c46565b611d65565b611df1565b5080f35b50346101a45760203660031901126101a457604060209160043581525f8051602061243583398151915283522054604051908152f35b50346101a45761068c36611bee565b818352600360205260408320549192916001600160a01b0316330361071457600254919283926001600160a01b031691823b1561070f576044849283604051958694859363ba64247f60e01b8552600485015260248401525af18015610704576106f35750f35b816106fd91611b6e565b6101a45780f35b6040513d84823e3d90fd5b505050fd5b639015f92360e01b8252600482fd5b50346101a45760203660031901126101a457600435808252600360205260408220546001600160a01b031633036107145760025482916001600160a01b0390911690813b1561079857829160248392604051948593849263b3a6453960e01b845260048401525af18015610704576106f35750f35b5050fd5b50346101a457806003193601126101a457604080516107bb8282611b6e565b6005815260208101640352e302e360dc1b81528251938492602084525180928160208601528585015e828201840152601f01601f19168101030190f35b50346101a45760a03660031901126101a45760043567ffffffffffffffff8111610aca5761082a903690600401611bc0565b90610833611b58565b60643592608435917fc9e1bb66e33f6f65624264dd5a87b9934bbc3ba8bab8b7e3d3203bf5f39f30de86525f805160206124758339815191526020526040862060018060a01b0382165f5260205260ff60405f20541615610abb57610896611c84565b6108a08386611c04565b918215610aac579086929186610a8c575b84610a6d575b6002546040516316eee50360e31b8152966001600160a01b0390911690602088600481855afa978815610a62578698610a2b575b50813b15610a27578561091f93819560405197889687958694631131410d60e11b8652608060048701526084860191611c64565b6001600160a01b0390921660248401526044803590840152606483015203925af1801561070457610a0e575b50506040516060810181811067ffffffffffffffff8211176109fa5760405233815260026020820185815260408301908482528588526003602052604088209360018060a01b039051166bffffffffffffffffffffffff60a01b8554161784555160018401555191015560405192835260208301527f4a68dbb8eefeaf632aee8277d2df7879582a7ced1898618c9507b6f0c1fa62e160403393a360015f805160206124958339815191525580f35b634e487b7160e01b86526041600452602486fd5b81610a1891611b6e565b610a2357835f61094b565b8380fd5b8580fd5b955096506020853d602011610a5a575b81610a4860209383611b6e565b810103126104c957889451965f6108eb565b3d9150610a3b565b6040513d88823e3d90fd5b8354610a87908690309033906001600160a01b0316611f23565b6108b7565b600154610aa7908890309033906001600160a01b0316611f23565b6108b1565b631f2a200560e01b8752600487fd5b6309e04fa560e31b8652600486fd5b5080fd5b50346101a457806003193601126101a457602090604051908152f35b50346101a457806003193601126101a4576001546040516001600160a01b039091168152602090f35b50346101a45760403660031901126101a4576040610b2f611b58565b9160043581525f80516020612475833981519152602052209060018060a01b03165f52602052602060ff60405f2054166040519015158152f35b50346101a457610b9a6020916040610b8036611bee565b929081525f80516020612435833981519152855220612183565b905460405160039290921b1c6001600160a01b03168152f35b50346101a45760203660031901126101a457600435808252600360205260408220546001600160a01b0316330361071457610bec611c84565b81546040516370a0823160e01b815230600482015290602090829060249082906001600160a01b03165afa908115610de5578391610db3575b5060025483906001600160a01b0316803b15610aca57818091602460405180948193638e7bb99d60e01b83528960048401525af1801561070457610d9a575b505082546040516370a0823160e01b815230600482015290602090829060249082906001600160a01b03165afa908115610d8f578491610d5b575b50610cb391610cad91611c39565b82611cbc565b819291610d3d575b80610d20575b818452600360205283600260408220828155826001820155015560405192835260208301527fa4f4fb78df565b7d075cfee05971cb37c12dfd097fcf883c32ed2f27d1188c2260403393a360015f805160206124958339815191525580f35b8354610d3890829033906001600160a01b0316611d29565b610cc1565b600154610d5690849033906001600160a01b0316611d29565b610cbb565b90506020813d602011610d87575b81610d7660209383611b6e565b810103126104c95751610cb3610c9f565b3d9150610d69565b6040513d86823e3d90fd5b81610da491611b6e565b610daf57825f610c64565b8280fd5b90506020813d602011610ddd575b81610dce60209383611b6e565b810103126104c957515f610c25565b3d9150610dc1565b6040513d85823e3d90fd5b50346101a457806003193601126101a45760206040517fc9e1bb66e33f6f65624264dd5a87b9934bbc3ba8bab8b7e3d3203bf5f39f30de8152f35b50346101a45760403660031901126101a4576004359060243567ffffffffffffffff8111610aca57610e61903690600401611bc0565b83835260036020526040832054919390916001600160a01b03163303610eda57600254929384936001600160a01b0316803b1561059757610ec9938580946040519687958694859363465a4bf360e11b85526004850152604060248501526044840191611c64565b03925af18015610704576106f35750f35b639015f92360e01b8352600483fd5b50346101a457806003193601126101a4576002546040516001600160a01b039091168152602090f35b50346101a45760203660031901126101a457610f2c611b42565b8180525f8051602061247583398151915260209081526040808420335f908152925290205460ff16156105fd576105fa90611f67565b50346101a457610f7136611b28565b828452600360205260408420549192916001600160a01b031633036110e357610f98611c84565b610fa28184611c04565b156110d457826110b4575b80611095575b60025484906001600160a01b0316610fcb8386611c04565b813b15610daf57829160448392604051948593849263042161eb60e51b84528a600485015260248401525af1801561070457611080575b5082905260036020526001604085200161101d848254611c04565b9055818452600360205260026040852001611039828254611c04565b905560405192835260208301527f22fdee1db67b052ece0957d1944f1a04258cd8080d799f21f9f94cd8ca510bce60403393a360015f805160206124958339815191525580f35b8161108a91611b6e565b610a2357835f611002565b83546110af908290309033906001600160a01b0316611f23565b610fb3565b6001546110cf908490309033906001600160a01b0316611f23565b610fad565b631f2a200560e01b8452600484fd5b639015f92360e01b8452600484fd5b50346101a45760203660031901126101a45761110c611b42565b8180525f8051602061247583398151915260209081526040808420335f908152925290205460ff16156105fd576105fa90611edc565b50346101a45760203660031901126101a457600435808252600360205260408220546001600160a01b031633036107145760025482916001600160a01b0390911690813b15610798578291602483926040519485938492632a3574f960e11b845260048401525af18015610704576106f35750f35b50346101a457806003193601126101a4577f00000000000000000000000000000000000000000000000000000000000000006001600160a01b0316300361120f5760206040515f805160206124558339815191528152f35b63703e46dd60e11b8152600490fd5b5060403660031901126101a457611233611b42565b6024359067ffffffffffffffff8211610daf5736602383011215610daf578160040135908361126183611ba4565b9361126f6040519586611b6e565b83855260208501933660248284010111610daf57806024602093018637850101526001600160a01b037f00000000000000000000000000000000000000000000000000000000000000001630811490811561144f575b50611440578380525f8051602061247583398151915260209081526040808620335f908152925290205460ff1615611431576040516352d1902d60e01b81526001600160a01b0382169390602081600481885afa8691816113fd575b5061133a57634c9c8ce360e01b86526004859052602486fd5b93845f805160206124558339815191528796036113eb5750823b156113d9575f8051602061245583398151915280546001600160a01b031916821790558491907fbc7cd75a20ee27fd9adebab32041f755214dbc6bffa90cc0225b39da2e5c2d3b8380a28051156113be576106439382915190845af46113b86122e2565b916123d6565b50505050346113ca5780f35b63b398979f60e01b8152600490fd5b634c9c8ce360e01b8552600452602484fd5b632a87526960e21b8652600452602485fd5b9091506020813d602011611429575b8161141960209383611b6e565b810103126105935751905f611321565b3d915061140c565b637bfa4b9f60e01b8452600484fd5b63703e46dd60e11b8452600484fd5b5f80516020612455833981519152546001600160a01b0316141590505f6112c5565b50346101a45760203660031901126101a45761148b611b42565b8180525f8051602061247583398151915260209081526040808420335f908152925290205460ff16156105fd576001546040516370a0823160e01b8152306004820152916001600160a01b0390911690602083602481855afa918215610d8f5784926114fc575b6105fa9350611d29565b91506020833d60201161152a575b8161151760209383611b6e565b810103126104c9576105fa9251916114f2565b3d915061150a565b50346101a45760203660031901126101a45761154c611b42565b8180525f8051602061247583398151915260209081526040808420335f908152925290205460ff16156105fd576105fa90611e86565b50346101a45760203660031901126101a4576040606091600435815260036020522060018060a01b0381541690600260018201549101549060405192835260208301526040820152f35b50346101a45760403660031901126101a4576115e6611b58565b336001600160a01b038216036116025761064390600435611df1565b63334bd91960e11b8252600482fd5b50346101a45760403660031901126101a457610643600435611631611b58565b9061163e61063982611c46565b611dab565b50346101a45760203660031901126101a4576020611662600435611c46565b604051908152f35b50346101a45760203660031901126101a457611684611b42565b8180525f8051602061247583398151915260209081526040808420335f908152925290205460ff16156105fd5781546040516370a0823160e01b8152306004820152916001600160a01b0390911690602083602481855afa918215610d8f5784926114fc576105fa9350611d29565b50346104c95761170236611b28565b5f838152600360205260409020549192916001600160a01b03163303611aac5761172a611c84565b6117348184611c04565b8015611a9d575f546040516370a0823160e01b81523060048201529190602090839060249082906001600160a01b03165afa918215611a5e575f92611a69575b506002546001600160a01b031690813b156104c9575f9160448392604051948593849263199c32b760e31b84528a600485015260248401525af18015611a5e57611a48575b5084546040516370a0823160e01b81523060048201529190602090839060249082906001600160a01b03165afa8015610a62578690611a15575b600254604051630e3b5f3f60e21b815260048101879052935087908190859060249082906001600160a01b03165afa938415611a08578194611960575b5050916118436118499261184f94611c39565b90611c04565b83611cbc565b908386526003602052806001604088200155838652600360205281600260408820015584116119515781116119425782611908575b806118cf575b60405192835260208301527f16a89e3700cae5194266cf5c46ea2ad10d20ff9fd9155a1c38a1bee3072df58760403393a360015f805160206124958339815191525580f35b8184526003602052600260408520016118e9828254611c39565b9055835461190390829033906001600160a01b0316611d29565b61188a565b818452600360205260016040852001611922848254611c39565b905560015461193d90849033906001600160a01b0316611d29565b611884565b635dd3b4d160e01b8452600484fd5b6385aa93a960e01b8552600485fd5b9093503d8085833e6119728183611b6e565b81019260c08285031261059757815167ffffffffffffffff8111610a275782019380601f86011215610a27578451926119aa84611ba4565b916119b86040519384611b6e565b848352602085880101116105935761184f9660208560809461184397836118499b018483015e0101526119ed60208201611c25565b506119fa60408201611c25565b500151945092889150611830565b50604051903d90823e3d90fd5b506020823d602011611a40575b81611a2f60209383611b6e565b810103126104c957602491516117f3565b3d9150611a22565b611a559195505f90611b6e565b5f9360246117b9565b6040513d5f823e3d90fd5b9091506020813d602011611a95575b81611a8560209383611b6e565b810103126104c95751905f611774565b3d9150611a78565b631f2a200560e01b5f5260045ffd5b639015f92360e01b5f5260045ffd5b346104c95760203660031901126104c9576004359063ffffffff60e01b82168092036104c957602091635a05180f60e01b8114908115611afd575b5015158152f35b637965db0b60e01b811491508115611b17575b5083611af6565b6301ffc9a760e01b14905083611b10565b60609060031901126104c957600435906024359060443590565b600435906001600160a01b03821682036104c957565b602435906001600160a01b03821682036104c957565b90601f8019910116810190811067ffffffffffffffff821117611b9057604052565b634e487b7160e01b5f52604160045260245ffd5b67ffffffffffffffff8111611b9057601f01601f191660200190565b9181601f840112156104c95782359167ffffffffffffffff83116104c957602083818601950101116104c957565b60409060031901126104c9576004359060243590565b91908201809211611c1157565b634e487b7160e01b5f52601160045260245ffd5b51906001600160a01b03821682036104c957565b91908203918211611c1157565b5f525f80516020612475833981519152602052600160405f20015490565b908060209392818452848401375f828201840152601f01601f1916010190565b60025f805160206124958339815191525414611cad5760025f8051602061249583398151915255565b633ee5aeb560e01b5f5260045ffd5b5f9081526003602052604090206001810154600290910154919291611ce18183611c04565b80851115611cfa57505080611cf69193611c39565b905b565b84611d089195939295611c39565b9182821115611d20575090611d1c91611c39565b9190565b935050505f9190565b60405163a9059cbb60e01b60208201526001600160a01b03929092166024830152604480830193909352918152611cf891610443606483611b6e565b5f8181525f805160206124758339815191526020908152604080832033845290915290205460ff1615611d955750565b63e2517d3f60e01b5f523360045260245260445ffd5b611db582826120df565b9182611dc057505090565b5f9182525f805160206124358339815191526020526040909120611ded916001600160a01b0316906121d7565b5090565b611dfb8282612246565b9182611e51575b50505f80525f805160206124358339815191526020527f615f0f9e84155bea8cc509fe18befeb1baf65611e38a6ba60964480fb29dfd445415611e425790565b631286f97960e21b5f5260045ffd5b5f9182525f805160206124358339815191526020526040909120611e7e916001600160a01b031690612311565b505f80611e02565b6001600160a01b03168015611ecd57600180546001600160a01b031916821790557f5d47f014513437fda004c32ed40c006bc60bce23f3aeb0c7380eb3c2b79931775f80a2565b63d92e233d60e01b5f5260045ffd5b6001600160a01b03168015611ecd57600280546001600160a01b031916821790557f7069fd9fab3e4fe83cc8eef039cb4a73a437f72a7e2afa41a88ef13a4e74894b5f80a2565b6040516323b872dd60e01b60208201526001600160a01b039283166024820152929091166044830152606480830193909352918152611cf891610443608483611b6e565b6001600160a01b03168015611ecd575f80546001600160a01b031916821781557f5ba6b30cd4b2f9e9e67f4feb9b9df10d5da3b057598e6901b217b7d590345e309080a2565b908160209103126104c9575180151581036104c95790565b5f80611fed9260018060a01b03169360208151910182865af1611fe66122e2565b90836123d6565b8051908115159182612015575b50506120035750565b635274afe760e01b5f5260045260245ffd5b6120289250602080918301019101611fad565b155f80611ffa565b6001600160a01b0381165f9081527fb7db2dd08fcb62d0c9e08c51941cae53c267786a0b75803fb7960902fc8ef97d602052604090205460ff166120da576001600160a01b03165f8181527fb7db2dd08fcb62d0c9e08c51941cae53c267786a0b75803fb7960902fc8ef97d60205260408120805460ff191660011790553391907f2f8788117e7eff1d82e926ec794901d17c78024a50270940304540a733656f0d8180a4600190565b505f90565b5f8181525f80516020612475833981519152602090815260408083206001600160a01b038616845290915290205460ff1661217d575f8181525f80516020612475833981519152602090815260408083206001600160a01b0395909516808452949091528120805460ff19166001179055339291907f2f8788117e7eff1d82e926ec794901d17c78024a50270940304540a733656f0d9080a4600190565b50505f90565b8054821015612198575f5260205f2001905f90565b634e487b7160e01b5f52603260045260245ffd5b60ff5f805160206124b58339815191525460401c16156121c857565b631afcd79f60e31b5f5260045ffd5b6001810190825f528160205260405f2054155f1461223f57805468010000000000000000811015611b905761222c612216826001879401855584612183565b819391549060031b91821b915f19901b19161790565b905554915f5260205260405f2055600190565b5050505f90565b5f8181525f80516020612475833981519152602090815260408083206001600160a01b038616845290915290205460ff161561217d575f8181525f80516020612475833981519152602090815260408083206001600160a01b0395909516808452949091528120805460ff19169055339291907ff6391f5c32d9c69d2a47ea670b442974b53935d1edc7fd64eb21e047a839171b9080a4600190565b3d1561230c573d906122f382611ba4565b916123016040519384611b6e565b82523d5f602084013e565b606090565b906001820191815f528260205260405f20548015155f146123ce575f198101818111611c115782545f19810191908211611c1157818103612399575b50505080548015612385575f1901906123668282612183565b8154905f199060031b1b19169055555f526020525f6040812055600190565b634e487b7160e01b5f52603160045260245ffd5b6123b96123a96122169386612183565b90549060031b1c92839286612183565b90555f528360205260405f20555f808061234d565b505050505f90565b906123fa57508051156123eb57805190602001fd5b630a12f52160e11b5f5260045ffd5b8151158061242b575b61240b575090565b639996b31560e01b5f9081526001600160a01b0391909116600452602490fd5b50803b1561240356fec1f6fe24621ce81ec5827caf0253cadb74709b061630e6b55e82371705932000360894a13ba1a3210667c828492db98dca3e2076cc3735a920a3ca505d382bbc02dd7bc7dec4dceedda775e58dd541e08a116c6c53815c0bd028192f7b6268009b779b17422d0df92223018b32b4d1fa46e071723d6817e2486d003becc55f00f0c57e16840df040f15088dc2f81fe391c3923bec73e23a9662efc9c229c6a00a26469706673582212209d427b055e3297c98e31e1b77c6339d776264ad50e8e38c3c4b820f4c7de428e64736f6c634300081a0033",
  "linkReferences": {},
  "deployedLinkReferences": {}
}