{
  "_format": "hh-sol-artifact-1",
  "contractName": "Credit",
  "sourceName": "contracts/Credit.sol",
  "abi": [
    {
      "inputs": [],
      "stateMutability": "nonpayable",
      "type": "constructor"
    },
    {
      "inputs": [],
      "name": "AccessControlBadConfirmation",
      "type": "error"
    },
    {
      "inputs": [
        {
          "internalType": "address",
          "name": "account",
          "type": "address"
        },
        {
          "internalType": "bytes32",
          "name": "neededRole",
          "type": "bytes32"
        }
      ],
      "name": "AccessControlUnauthorizedAccount",
      "type": "error"
    },
    {
      "inputs": [
        {
          "internalType": "address",
          "name": "target",
          "type": "address"
        }
      ],
      "name": "AddressEmptyCode",
      "type": "error"
    },
    {
      "inputs": [
        {
          "internalType": "address",
          "name": "implementation",
          "type": "address"
        }
      ],
      "name": "ERC1967InvalidImplementation",
      "type": "error"
    },
    {
      "inputs": [],
      "name": "ERC1967NonPayable",
      "type": "error"
    },
    {
      "inputs": [
        {
          "internalType": "address",
          "name": "spender",
          "type": "address"
        },
        {
          "internalType": "uint256",
          "name": "allowance",
          "type": "uint256"
        },
        {
          "internalType": "uint256",
          "name": "needed",
          "type": "uint256"
        }
      ],
      "name": "ERC20InsufficientAllowance",
      "type": "error"
    },
    {
      "inputs": [
        {
          "internalType": "address",
          "name": "sender",
          "type": "address"
        },
        {
          "internalType": "uint256",
          "name": "balance",
          "type": "uint256"
        },
        {
          "internalType": "uint256",
          "name": "needed",
          "type": "uint256"
        }
      ],
      "name": "ERC20InsufficientBalance",
      "type": "error"
    },
    {
      "inputs": [
        {
          "internalType": "address",
          "name": "approver",
          "type": "address"
        }
      ],
      "name": "ERC20InvalidApprover",
      "type": "error"
    },
    {
      "inputs": [
        {
          "internalType": "address",
          "name": "receiver",
          "type": "address"
        }
      ],
      "name": "ERC20InvalidReceiver",
      "type": "error"
    },
    {
      "inputs": [
        {
          "internalType": "address",
          "name": "sender",
          "type": "address"
        }
      ],
      "name": "ERC20InvalidSender",
      "type": "error"
    },
    {
      "inputs": [
        {
          "internalType": "address",
          "name": "spender",
          "type": "address"
        }
      ],
      "name": "ERC20InvalidSpender",
      "type": "error"
    },
    {
      "inputs": [],
      "name": "FailedInnerCall",
      "type": "error"
    },
    {
      "inputs": [],
      "name": "InvalidInitialization",
      "type": "error"
    },
    {
      "inputs": [],
      "name": "NoAdminExists",
      "type": "error"
    },
    {
      "inputs": [],
      "name": "NotInitializing",
      "type": "error"
    },
    {
      "inputs": [],
      "name": "OnlyAdmin",
      "type": "error"
    },
    {
      "inputs": [],
      "name": "OnlyMinter",
      "type": "error"
    },
    {
      "inputs": [],
      "name": "OnlyWhitelisted",
      "type": "error"
    },
    {
      "inputs": [],
      "name": "UUPSUnauthorizedCallContext",
      "type": "error"
    },
    {
      "inputs": [
        {
          "internalType": "bytes32",
          "name": "slot",
          "type": "bytes32"
        }
      ],
      "name": "UUPSUnsupportedProxiableUUID",
      "type": "error"
    },
    {
      "anonymous": false,
      "inputs": [
        {
          "indexed": true,
          "internalType": "address",
          "name": "owner",
          "type": "address"
        },
        {
          "indexed": true,
          "internalType": "address",
          "name": "spender",
          "type": "address"
        },
        {
          "indexed": false,
          "internalType": "uint256",
          "name": "value",
          "type": "uint256"
        }
      ],
      "name": "Approval",
      "type": "event"
    },
    {
      "anonymous": false,
      "inputs": [
        {
          "indexed": false,
          "internalType": "uint64",
          "name": "version",
          "type": "uint64"
        }
      ],
      "name": "Initialized",
      "type": "event"
    },
    {
      "anonymous": false,
      "inputs": [
        {
          "indexed": true,
          "internalType": "bytes32",
          "name": "role",
          "type": "bytes32"
        },
        {
          "indexed": true,
          "internalType": "bytes32",
          "name": "previousAdminRole",
          "type": "bytes32"
        },
        {
          "indexed": true,
          "internalType": "bytes32",
          "name": "newAdminRole",
          "type": "bytes32"
        }
      ],
      "name": "RoleAdminChanged",
      "type": "event"
    },
    {
      "anonymous": false,
      "inputs": [
        {
          "indexed": true,
          "internalType": "bytes32",
          "name": "role",
          "type": "bytes32"
        },
        {
          "indexed": true,
          "internalType": "address",
          "name": "account",
          "type": "address"
        },
        {
          "indexed": true,
          "internalType": "address",
          "name": "sender",
          "type": "address"
        }
      ],
      "name": "RoleGranted",
      "type": "event"
    },
    {
      "anonymous": false,
      "inputs": [
        {
          "indexed": true,
          "internalType": "bytes32",
          "name": "role",
          "type": "bytes32"
        },
        {
          "indexed": true,
          "internalType": "address",
          "name": "account",
          "type": "address"
        },
        {
          "indexed": true,
          "internalType": "address",
          "name": "sender",
          "type": "address"
        }
      ],
      "name": "RoleRevoked",
      "type": "event"
    },
    {
      "anonymous": false,
      "inputs": [
        {
          "indexed": true,
          "internalType": "address",
          "name": "from",
          "type": "address"
        },
        {
          "indexed": true,
          "internalType": "address",
          "name": "to",
          "type": "address"
        },
        {
          "indexed": false,
          "internalType": "uint256",
          "name": "value",
          "type": "uint256"
        }
      ],
      "name": "Transfer",
      "type": "event"
    },
    {
      "anonymous": false,
      "inputs": [
        {
          "indexed": true,
          "internalType": "address",
          "name": "implementation",
          "type": "address"
        }
      ],
      "name": "Upgraded",
      "type": "event"
    },
    {
      "inputs": [],
      "name": "DEFAULT_ADMIN_ROLE",
      "outputs": [
        {
          "internalType": "bytes32",
          "name": "",
          "type": "bytes32"
        }
      ],
      "stateMutability": "view",
      "type": "function"
    },
    {
      "inputs": [],
      "name": "MINTER_ROLE",
      "outputs": [
        {
          "internalType": "bytes32",
          "name": "",
          "type": "bytes32"
        }
      ],
      "stateMutability": "view",
      "type": "function"
    },
    {
      "inputs": [],
      "name": "TRANSFER_ALLOWED_ROLE",
      "outputs": [
        {
          "internalType": "bytes32",
          "name": "",
          "type": "bytes32"
        }
      ],
      "stateMutability": "view",
      "type": "function"
    },
    {
      "inputs": [],
      "name": "UPGRADE_INTERFACE_VERSION",
      "outputs": [
        {
          "internalType": "string",
          "name": "",
          "type": "string"
        }
      ],
      "stateMutability": "view",
      "type": "function"
    },
    {
      "inputs": [
        {
          "internalType": "address",
          "name": "owner",
          "type": "address"
        },
        {
          "internalType": "address",
          "name": "spender",
          "type": "address"
        }
      ],
      "name": "allowance",
      "outputs": [
        {
          "internalType": "uint256",
          "name": "",
          "type": "uint256"
        }
      ],
      "stateMutability": "view",
      "type": "function"
    },
    {
      "inputs": [
        {
          "internalType": "address",
          "name": "spender",
          "type": "address"
        },
        {
          "internalType": "uint256",
          "name": "value",
          "type": "uint256"
        }
      ],
      "name": "approve",
      "outputs": [
        {
          "internalType": "bool",
          "name": "",
          "type": "bool"
        }
      ],
      "stateMutability": "nonpayable",
      "type": "function"
    },
    {
      "inputs": [
        {
          "internalType": "address",
          "name": "account",
          "type": "address"
        }
      ],
      "name": "balanceOf",
      "outputs": [
        {
          "internalType": "uint256",
          "name": "",
          "type": "uint256"
        }
      ],
      "stateMutability": "view",
      "type": "function"
    },
    {
      "inputs": [
        {
          "internalType": "address",
          "name": "from",
          "type": "address"
        },
        {
          "internalType": "uint256",
          "name": "amount",
          "type": "uint256"
        }
      ],
      "name": "burn",
      "outputs": [],
      "stateMutability": "nonpayable",
      "type": "function"
    },
    {
      "inputs": [],
      "name": "decimals",
      "outputs": [
        {
          "internalType": "uint8",
          "name": "",
          "type": "uint8"
        }
      ],
      "stateMutability": "pure",
      "type": "function"
    },
    {
      "inputs": [
        {
          "internalType": "bytes32",
          "name": "role",
          "type": "bytes32"
        }
      ],
      "name": "getRoleAdmin",
      "outputs": [
        {
          "internalType": "bytes32",
          "name": "",
          "type": "bytes32"
        }
      ],
      "stateMutability": "view",
      "type": "function"
    },
    {
      "inputs": [
        {
          "internalType": "bytes32",
          "name": "role",
          "type": "bytes32"
        },
        {
          "internalType": "uint256",
          "name": "index",
          "type": "uint256"
        }
      ],
      "name": "getRoleMember",
      "outputs": [
        {
          "internalType": "address",
          "name": "",
          "type": "address"
        }
      ],
      "stateMutability": "view",
      "type": "function"
    },
    {
      "inputs": [
        {
          "internalType": "bytes32",
          "name": "role",
          "type": "bytes32"
        }
      ],
      "name": "getRoleMemberCount",
      "outputs": [
        {
          "internalType": "uint256",
          "name": "",
          "type": "uint256"
        }
      ],
      "stateMutability": "view",
      "type": "function"
    },
    {
      "inputs": [
        {
          "internalType": "bytes32",
          "name": "role",
          "type": "bytes32"
        },
        {
          "internalType": "address",
          "name": "account",
          "type": "address"
        }
      ],
      "name": "grantRole",
      "outputs": [],
      "stateMutability": "nonpayable",
      "type": "function"
    },
    {
      "inputs": [
        {
          "internalType": "bytes32",
          "name": "role",
          "type": "bytes32"
        },
        {
          "internalType": "address",
          "name": "account",
          "type": "address"
        }
      ],
      "name": "hasRole",
      "outputs": [
        {
          "internalType": "bool",
          "name": "",
          "type": "bool"
        }
      ],
      "stateMutability": "view",
      "type": "function"
    },
    {
      "inputs": [
        {
          "internalType": "address",
          "name": "_admin",
          "type": "address"
        }
      ],
      "name": "initialize",
      "outputs": [],
      "stateMutability": "nonpayable",
      "type": "function"
    },
    {
      "inputs": [
        {
          "internalType": "address",
          "name": "to",
          "type": "address"
        },
        {
          "internalType": "uint256",
          "name": "amount",
          "type": "uint256"
        }
      ],
      "name": "mint",
      "outputs": [],
      "stateMutability": "nonpayable",
      "type": "function"
    },
    {
      "inputs": [],
      "name": "name",
      "outputs": [
        {
          "internalType": "string",
          "name": "",
          "type": "string"
        }
      ],
      "stateMutability": "view",
      "type": "function"
    },
    {
      "inputs": [],
      "name": "proxiableUUID",
      "outputs": [
        {
          "internalType": "bytes32",
          "name": "",
          "type": "bytes32"
        }
      ],
      "stateMutability": "view",
      "type": "function"
    },
    {
      "inputs": [
        {
          "internalType": "bytes32",
          "name": "role",
          "type": "bytes32"
        },
        {
          "internalType": "address",
          "name": "callerConfirmation",
          "type": "address"
        }
      ],
      "name": "renounceRole",
      "outputs": [],
      "stateMutability": "nonpayable",
      "type": "function"
    },
    {
      "inputs": [
        {
          "internalType": "bytes32",
          "name": "role",
          "type": "bytes32"
        },
        {
          "internalType": "address",
          "name": "account",
          "type": "address"
        }
      ],
      "name": "revokeRole",
      "outputs": [],
      "stateMutability": "nonpayable",
      "type": "function"
    },
    {
      "inputs": [
        {
          "internalType": "bytes4",
          "name": "interfaceId",
          "type": "bytes4"
        }
      ],
      "name": "supportsInterface",
      "outputs": [
        {
          "internalType": "bool",
          "name": "",
          "type": "bool"
        }
      ],
      "stateMutability": "view",
      "type": "function"
    },
    {
      "inputs": [],
      "name": "symbol",
      "outputs": [
        {
          "internalType": "string",
          "name": "",
          "type": "string"
        }
      ],
      "stateMutability": "view",
      "type": "function"
    },
    {
      "inputs": [],
      "name": "totalSupply",
      "outputs": [
        {
          "internalType": "uint256",
          "name": "",
          "type": "uint256"
        }
      ],
      "stateMutability": "view",
      "type": "function"
    },
    {
      "inputs": [
        {
          "internalType": "address",
          "name": "to",
          "type": "address"
        },
        {
          "internalType": "uint256",
          "name": "value",
          "type": "uint256"
        }
      ],
      "name": "transfer",
      "outputs": [
        {
          "internalType": "bool",
          "name": "",
          "type": "bool"
        }
      ],
      "stateMutability": "nonpayable",
      "type": "function"
    },
    {
      "inputs": [
        {
          "internalType": "address",
          "name": "from",
          "type": "address"
        },
        {
          "internalType": "address",
          "name": "to",
          "type": "address"
        },
        {
          "internalType": "uint256",
          "name": "value",
          "type": "uint256"
        }
      ],
      "name": "transferFrom",
      "outputs": [
        {
          "internalType": "bool",
          "name": "",
          "type": "bool"
        }
      ],
      "stateMutability": "nonpayable",
      "type": "function"
    },
    {
      "inputs": [
        {
          "internalType": "address",
          "name": "newImplementation",
          "type": "address"
        },
        {
          "internalType": "bytes",
          "name": "data",
          "type": "bytes"
        }
      ],
      "name": "upgradeToAndCall",
      "outputs": [],
      "stateMutability": "payable",
      "type": "function"
    }
  ],
  "bytecode": "0x60a080604052346100e857306080527ff0c57e16840df040f15088dc2f81fe391c3923bec73e23a9662efc9c229c6a005460ff8160401c166100d9576002600160401b03196001600160401b03821601610073575b604051611b4990816100ed8239608051818181610b470152610c170152f35b6001600160401b0319166001600160401b039081177ff0c57e16840df040f15088dc2f81fe391c3923bec73e23a9662efc9c229c6a005581527fc7f505b2f371ae2175ee4913f4499e1f2633a7b5936321eed1cdaeb6115181d290602090a15f80610054565b63f92ee8a960e01b5f5260045ffd5b5f80fdfe6080806040526004361015610012575f80fd5b5f3560e01c90816301ffc9a7146112645750806306fdde03146111a7578063095ea7b31461112857806318160ddd146110ff57806323b872dd14611027578063248a9ca3146110015780632f2ff15d14610fd0578063313ce56714610fb557806336568abe14610f7157806340c10f1914610e095780634f1ef28614610b9b57806352d1902d14610b3557806370a0823114610af15780639010d07c14610aa057806391d1485414610a4b57806395d89b411461095d5780639dc29fac146107c0578063a217fddf146107a6578063a9059cbb14610775578063ad3cb1cc14610732578063c4d66de814610267578063ca15c87314610231578063d5391393146101f7578063d547741f146101bf578063dd62ed3e146101785763ef5c93741461013a575f80fd5b34610174575f3660031901126101745760206040517fed89ee80d998965e2804dad373576bf7ffc490ba5986d52deb7d526e936171018152f35b5f80fd5b34610174576040366003190112610174576101916112fb565b6101a261019c611311565b916113bb565b9060018060a01b03165f52602052602060405f2054604051908152f35b34610174576040366003190112610174576101f56004356101de611311565b906101f06101eb8261139d565b6114fd565b611543565b005b34610174575f3660031901126101745760206040517f9f2df0fed2c77648de5860a4cc508cd0818c85b8b8a1ab4ceeef8d981c8956a68152f35b34610174576020366003190112610174576004355f525f805160206119f4833981519152602052602060405f2054604051908152f35b34610174576020366003190112610174576102806112fb565b5f80516020611af48339815191525460ff8160401c16159067ffffffffffffffff81168015908161072a575b6001149081610720575b159081610717575b506107085767ffffffffffffffff1981166001175f80516020611af483398151915255816106dc575b506102f0611647565b6102f8611647565b610300611647565b6040908151926103108385611327565b600d84526c13585c9b1a5b8810dc99591a5d609a1b60208501528251936103378486611327565b600685526510d49151125560d21b6020860152610352611647565b80519067ffffffffffffffff82116105c557819061037d5f80516020611a3483398151915254611365565b601f8111610662575b50602090601f83116001146105e4575f926105d9575b50508160011b915f199060031b1c1916175f80516020611a34833981519152555b835167ffffffffffffffff81116105c5576103e55f80516020611a7483398151915254611365565b601f8111610556575b50602094601f82116001146104db579481929394955f926104d0575b50508160011b915f199060031b1c1916175f80516020611a74833981519152555b610433611647565b61043c81611672565b61049e575b5061044857005b60207fc7f505b2f371ae2175ee4913f4499e1f2633a7b5936321eed1cdaeb6115181d29168ff0000000000000000195f80516020611af483398151915254165f80516020611af4833981519152555160018152a1005b5f8080525f805160206119f48339815191526020528390206104c9916001600160a01b031690611861565b5082610441565b01519050858061040a565b601f198216955f80516020611a748339815191525f52805f20915f5b88811061053e57508360019596979810610526575b505050811b015f80516020611a748339815191525561042b565b01515f1960f88460031b161c1916905585808061050c565b919260206001819286850151815501940192016104f7565b5f80516020611a748339815191525f527f46a2803e59a4de4e7a4c574b1243f25977ac4c77d5a1a4a609b5394cebb4a2aa601f830160051c810191602084106105bb575b601f0160051c01905b8181106105b057506103ee565b5f81556001016105a3565b909150819061059a565b634e487b7160e01b5f52604160045260245ffd5b01519050868061039c565b5f80516020611a348339815191525f9081528281209350601f198516905b81811061064a5750908460019594939210610632575b505050811b015f80516020611a34833981519152556103bd565b01515f1960f88460031b161c19169055868080610618565b92936020600181928786015181550195019301610602565b5f80516020611a348339815191525f529091507f2ae08a8e29253f69ac5d979a101956ab8f8d9d7ded63fa7a83b16fc47648eab0601f840160051c810191602085106106d2575b90601f859493920160051c01905b8181106106c45750610386565b5f81558493506001016106b7565b90915081906106a9565b68ffffffffffffffffff191668010000000000000001175f80516020611af483398151915255826102e7565b63f92ee8a960e01b5f5260045ffd5b905015846102be565b303b1591506102b6565b8391506102ac565b34610174575f36600319011261017457610771604051610753604082611327565b60058152640352e302e360dc1b6020820152604051918291826112d1565b0390f35b346101745760403660031901126101745761079b6107916112fb565b60243590336113f3565b602060405160018152f35b34610174575f3660031901126101745760206040515f8152f35b34610174576040366003190112610174576107d96112fb565b335f9081527f549fe2656c81d2947b3b913f0a53b9ea86c71e049f3a1b8aa23c09a8a05cb8d46020526040902054602435919060ff161561094e576001600160a01b0316801561093b575f8181525f80516020611a14833981519152602052604090205460ff1680156108fc575b156108ee57805f525f80516020611a5483398151915260205260405f20548281106108d5576020835f947fddf252ad1be2c89b69c2b068fc378daa952ba7f163c4a11628f55a4df523b3ef938587525f80516020611a548339815191528452036040862055805f80516020611a9483398151915254035f80516020611a9483398151915255604051908152a3005b9063391434e360e21b5f5260045260245260445260645ffd5b6286200b60e81b5f5260045ffd5b505f80525f80516020611a148339815191526020527f0793ec7cd4748eacdd75f55d02389416a9e69e88b8af235e46fad1f105f189485460ff16610847565b634b637e8f60e11b5f525f60045260245ffd5b639cdc2ed560e01b5f5260045ffd5b34610174575f366003190112610174576040515f5f80516020611a748339815191525461098981611365565b8084529060018116908115610a2757506001146109bd575b610771836109b181850382611327565b604051918291826112d1565b5f80516020611a748339815191525f9081527f46a2803e59a4de4e7a4c574b1243f25977ac4c77d5a1a4a609b5394cebb4a2aa939250905b808210610a0d575090915081016020016109b16109a1565b9192600181602092548385880101520191019092916109f5565b60ff191660208086019190915291151560051b840190910191506109b190506109a1565b3461017457604036600319011261017457610a64611311565b6004355f525f80516020611ad483398151915260205260405f209060018060a01b03165f52602052602060ff60405f2054166040519015158152f35b34610174576040366003190112610174576004355f525f805160206119f48339815191526020526020610ad860243560405f2061161e565b905460405160039290921b1c6001600160a01b03168152f35b34610174576020366003190112610174576001600160a01b03610b126112fb565b165f525f80516020611a54833981519152602052602060405f2054604051908152f35b34610174575f366003190112610174577f00000000000000000000000000000000000000000000000000000000000000006001600160a01b03163003610b8c5760206040515f80516020611ab48339815191528152f35b63703e46dd60e11b5f5260045ffd5b604036600319011261017457610baf6112fb565b6024359067ffffffffffffffff8211610174573660238301121561017457816004013590610bdc82611349565b91610bea6040519384611327565b8083526020830193366024838301011161017457815f926024602093018737840101526001600160a01b037f000000000000000000000000000000000000000000000000000000000000000016308114908115610de7575b50610b8c57335f9081527fb7db2dd08fcb62d0c9e08c51941cae53c267786a0b75803fb7960902fc8ef97d602052604090205460ff1615610dd8576040516352d1902d60e01b81526001600160a01b0382169390602081600481885afa5f9181610da4575b50610cbf5784634c9c8ce360e01b5f5260045260245ffd5b805f80516020611ab4833981519152869203610d925750823b15610d80575f80516020611ab483398151915280546001600160a01b031916821790557fbc7cd75a20ee27fd9adebab32041f755214dbc6bffa90cc0225b39da2e5c2d3b5f80a2825115610d67575f80916101f5945190845af43d15610d5f573d91610d4383611349565b92610d516040519485611327565b83523d5f602085013e611995565b606091611995565b50505034610d7157005b63b398979f60e01b5f5260045ffd5b634c9c8ce360e01b5f5260045260245ffd5b632a87526960e21b5f5260045260245ffd5b9091506020813d602011610dd0575b81610dc060209383611327565b8101031261017457519086610ca7565b3d9150610db3565b634755657960e01b5f5260045ffd5b5f80516020611ab4833981519152546001600160a01b03161415905084610c42565b3461017457604036600319011261017457610e226112fb565b335f9081527f549fe2656c81d2947b3b913f0a53b9ea86c71e049f3a1b8aa23c09a8a05cb8d46020526040902054602435919060ff161561094e576001600160a01b0316908115610f5e575f80525f80516020611a148339815191526020527f0793ec7cd4748eacdd75f55d02389416a9e69e88b8af235e46fad1f105f189485460ff168015610f3b575b156108ee575f80516020611a948339815191525490808201809211610f275760207fddf252ad1be2c89b69c2b068fc378daa952ba7f163c4a11628f55a4df523b3ef915f935f80516020611a94833981519152558484525f80516020611a54833981519152825260408420818154019055604051908152a3005b634e487b7160e01b5f52601160045260245ffd5b505f8281525f80516020611a14833981519152602052604090205460ff16610ead565b63ec442f0560e01b5f525f60045260245ffd5b3461017457604036600319011261017457610f8a611311565b336001600160a01b03821603610fa6576101f590600435611543565b63334bd91960e11b5f5260045ffd5b34610174575f36600319011261017457602060405160068152f35b34610174576040366003190112610174576101f5600435610fef611311565b90610ffc6101eb8261139d565b6115d8565b3461017457602036600319011261017457602061101f60043561139d565b604051908152f35b34610174576060366003190112610174576110406112fb565b611048611311565b60443590611055836113bb565b335f90815260209190915260409020549260018401611079575b61079b93506113f3565b8284106110e4576001600160a01b038116156110d15733156110be5761079b936110a2826113bb565b60018060a01b0333165f526020528360405f209103905561106f565b634a1406b160e11b5f525f60045260245ffd5b63e602df0560e01b5f525f60045260245ffd5b8284637dc7a0d960e11b5f523360045260245260445260645ffd5b34610174575f3660031901126101745760205f80516020611a9483398151915254604051908152f35b34610174576040366003190112610174576111416112fb565b6024359033156110d1576001600160a01b03169081156110be57611164336113bb565b825f526020528060405f20556040519081527f8c5be1e5ebec7d5bd14f71427d1e84f3dd0314c0f7b2291e5b200ac8c7c3b92560203392a3602060405160018152f35b34610174575f366003190112610174576040515f5f80516020611a34833981519152546111d381611365565b8084529060018116908115610a2757506001146111fa57610771836109b181850382611327565b5f80516020611a348339815191525f9081527f2ae08a8e29253f69ac5d979a101956ab8f8d9d7ded63fa7a83b16fc47648eab0939250905b80821061124a575090915081016020016109b16109a1565b919260018160209254838588010152019101909291611232565b34610174576020366003190112610174576004359063ffffffff60e01b821680920361017457602091635a05180f60e01b81149081156112a6575b5015158152f35b637965db0b60e01b8114915081156112c0575b508361129f565b6301ffc9a760e01b149050836112b9565b602060409281835280519182918282860152018484015e5f828201840152601f01601f1916010190565b600435906001600160a01b038216820361017457565b602435906001600160a01b038216820361017457565b90601f8019910116810190811067ffffffffffffffff8211176105c557604052565b67ffffffffffffffff81116105c557601f01601f191660200190565b90600182811c92168015611393575b602083101461137f57565b634e487b7160e01b5f52602260045260245ffd5b91607f1691611374565b5f525f80516020611ad4833981519152602052600160405f20015490565b6001600160a01b03165f9081527f52c63247e1f47db19d5ce0460030c497f067ca4cebf71ba98eeadabe20bace016020526040902090565b6001600160a01b031690811561093b576001600160a01b0316918215610f5e575f8281525f80516020611a14833981519152602052604090205460ff1680156114da575b156108ee57815f525f80516020611a5483398151915260205260405f20548181106114c157817fddf252ad1be2c89b69c2b068fc378daa952ba7f163c4a11628f55a4df523b3ef92602092855f525f80516020611a5483398151915284520360405f2055845f525f80516020611a54833981519152825260405f20818154019055604051908152a3565b8263391434e360e21b5f5260045260245260445260645ffd5b505f8381525f80516020611a14833981519152602052604090205460ff16611437565b5f8181525f80516020611ad48339815191526020908152604080832033845290915290205460ff161561152d5750565b63e2517d3f60e01b5f523360045260245260445ffd5b61154d82826117c5565b91826115a3575b50505f80525f805160206119f48339815191526020527f615f0f9e84155bea8cc509fe18befeb1baf65611e38a6ba60964480fb29dfd4454156115945790565b631286f97960e21b5f5260045ffd5b5f9182525f805160206119f483398151915260205260409091206115d0916001600160a01b0316906118d0565b505f80611554565b6115e28282611721565b91826115ed57505090565b5f9182525f805160206119f4833981519152602052604090912061161a916001600160a01b031690611861565b5090565b8054821015611633575f5260205f2001905f90565b634e487b7160e01b5f52603260045260245ffd5b60ff5f80516020611af48339815191525460401c161561166357565b631afcd79f60e31b5f5260045ffd5b6001600160a01b0381165f9081527fb7db2dd08fcb62d0c9e08c51941cae53c267786a0b75803fb7960902fc8ef97d602052604090205460ff1661171c576001600160a01b03165f8181527fb7db2dd08fcb62d0c9e08c51941cae53c267786a0b75803fb7960902fc8ef97d60205260408120805460ff191660011790553391907f2f8788117e7eff1d82e926ec794901d17c78024a50270940304540a733656f0d8180a4600190565b505f90565b5f8181525f80516020611ad4833981519152602090815260408083206001600160a01b038616845290915290205460ff166117bf575f8181525f80516020611ad4833981519152602090815260408083206001600160a01b0395909516808452949091528120805460ff19166001179055339291907f2f8788117e7eff1d82e926ec794901d17c78024a50270940304540a733656f0d9080a4600190565b50505f90565b5f8181525f80516020611ad4833981519152602090815260408083206001600160a01b038616845290915290205460ff16156117bf575f8181525f80516020611ad4833981519152602090815260408083206001600160a01b0395909516808452949091528120805460ff19169055339291907ff6391f5c32d9c69d2a47ea670b442974b53935d1edc7fd64eb21e047a839171b9080a4600190565b6001810190825f528160205260405f2054155f146118c9578054680100000000000000008110156105c5576118b66118a082600187940185558461161e565b819391549060031b91821b915f19901b19161790565b905554915f5260205260405f2055600190565b5050505f90565b906001820191815f528260205260405f20548015155f1461198d575f198101818111610f275782545f19810191908211610f2757818103611958575b50505080548015611944575f190190611925828261161e565b8154905f199060031b1b19169055555f526020525f6040812055600190565b634e487b7160e01b5f52603160045260245ffd5b6119786119686118a0938661161e565b90549060031b1c9283928661161e565b90555f528360205260405f20555f808061190c565b505050505f90565b906119b957508051156119aa57805190602001fd5b630a12f52160e11b5f5260045ffd5b815115806119ea575b6119ca575090565b639996b31560e01b5f9081526001600160a01b0391909116600452602490fd5b50803b156119c256fec1f6fe24621ce81ec5827caf0253cadb74709b061630e6b55e82371705932000c40f6cedaf183ba89a2c4ecff2f83975a9df688a9b168d3b8c0ef6bafd46fd2152c63247e1f47db19d5ce0460030c497f067ca4cebf71ba98eeadabe20bace0352c63247e1f47db19d5ce0460030c497f067ca4cebf71ba98eeadabe20bace0052c63247e1f47db19d5ce0460030c497f067ca4cebf71ba98eeadabe20bace0452c63247e1f47db19d5ce0460030c497f067ca4cebf71ba98eeadabe20bace02360894a13ba1a3210667c828492db98dca3e2076cc3735a920a3ca505d382bbc02dd7bc7dec4dceedda775e58dd541e08a116c6c53815c0bd028192f7b626800f0c57e16840df040f15088dc2f81fe391c3923bec73e23a9662efc9c229c6a00a2646970667358221220b70a2a9164f3110d0e86f000c5e133f3b003616e31053ebf3d978a8d9dfe85e164736f6c634300081a0033",
  "linkReferences": {},
  "deployedLinkReferences": {}
}