{
  "_format": "hh-sol-artifact-1",
  "contractName": "Credit",
  "sourceName": "contracts/token/Credit.sol",
  "abi": [
    {
      "inputs": [
        {
          "internalType": "address",
          "name": "_oysterMarket",
          "type": "address"
        },
        {
          "internalType": "address",
          "name": "_usdc",
          "type": "address"
        }
      ],
      "stateMutability": "nonpayable",
      "type": "constructor"
    },
    {
      "inputs": [],
      "name": "NoAdminExists",
      "type": "error"
    },
    {
      "inputs": [],
      "name": "NotEnoughUSDC",
      "type": "error"
    },
    {
      "inputs": [],
      "name": "OnlyAdmin",
      "type": "error"
    },
    {
      "inputs": [],
      "name": "OnlyOysterMarket",
      "type": "error"
    },
    {
      "inputs": [],
      "name": "OnlyToEmergencyWithdrawRole",
      "type": "error"
    },
    {
      "inputs": [],
      "name": "OnlyTransferAllowedRole",
      "type": "error"
    },
    {
      "anonymous": false,
      "inputs": [
        {
          "indexed": false,
          "internalType": "address",
          "name": "previousAdmin",
          "type": "address"
        },
        {
          "indexed": false,
          "internalType": "address",
          "name": "newAdmin",
          "type": "address"
        }
      ],
      "name": "AdminChanged",
      "type": "event"
    },
    {
      "anonymous": false,
      "inputs": [
        {
          "indexed": true,
          "internalType": "address",
          "name": "owner",
          "type": "address"
        },
        {
          "indexed": true,
          "internalType": "address",
          "name": "spender",
          "type": "address"
        },
        {
          "indexed": false,
          "internalType": "uint256",
          "name": "value",
          "type": "uint256"
        }
      ],
      "name": "Approval",
      "type": "event"
    },
    {
      "anonymous": false,
      "inputs": [
        {
          "indexed": true,
          "internalType": "address",
          "name": "beacon",
          "type": "address"
        }
      ],
      "name": "BeaconUpgraded",
      "type": "event"
    },
    {
      "anonymous": false,
      "inputs": [
        {
          "indexed": false,
          "internalType": "uint8",
          "name": "version",
          "type": "uint8"
        }
      ],
      "name": "Initialized",
      "type": "event"
    },
    {
      "anonymous": false,
      "inputs": [
        {
          "indexed": false,
          "internalType": "address",
          "name": "account",
          "type": "address"
        }
      ],
      "name": "Paused",
      "type": "event"
    },
    {
      "anonymous": false,
      "inputs": [
        {
          "indexed": true,
          "internalType": "bytes32",
          "name": "role",
          "type": "bytes32"
        },
        {
          "indexed": true,
          "internalType": "bytes32",
          "name": "previousAdminRole",
          "type": "bytes32"
        },
        {
          "indexed": true,
          "internalType": "bytes32",
          "name": "newAdminRole",
          "type": "bytes32"
        }
      ],
      "name": "RoleAdminChanged",
      "type": "event"
    },
    {
      "anonymous": false,
      "inputs": [
        {
          "indexed": true,
          "internalType": "bytes32",
          "name": "role",
          "type": "bytes32"
        },
        {
          "indexed": true,
          "internalType": "address",
          "name": "account",
          "type": "address"
        },
        {
          "indexed": true,
          "internalType": "address",
          "name": "sender",
          "type": "address"
        }
      ],
      "name": "RoleGranted",
      "type": "event"
    },
    {
      "anonymous": false,
      "inputs": [
        {
          "indexed": true,
          "internalType": "bytes32",
          "name": "role",
          "type": "bytes32"
        },
        {
          "indexed": true,
          "internalType": "address",
          "name": "account",
          "type": "address"
        },
        {
          "indexed": true,
          "internalType": "address",
          "name": "sender",
          "type": "address"
        }
      ],
      "name": "RoleRevoked",
      "type": "event"
    },
    {
      "anonymous": false,
      "inputs": [
        {
          "indexed": true,
          "internalType": "address",
          "name": "from",
          "type": "address"
        },
        {
          "indexed": true,
          "internalType": "address",
          "name": "to",
          "type": "address"
        },
        {
          "indexed": false,
          "internalType": "uint256",
          "name": "value",
          "type": "uint256"
        }
      ],
      "name": "Transfer",
      "type": "event"
    },
    {
      "anonymous": false,
      "inputs": [
        {
          "indexed": false,
          "internalType": "address",
          "name": "account",
          "type": "address"
        }
      ],
      "name": "Unpaused",
      "type": "event"
    },
    {
      "anonymous": false,
      "inputs": [
        {
          "indexed": true,
          "internalType": "address",
          "name": "implementation",
          "type": "address"
        }
      ],
      "name": "Upgraded",
      "type": "event"
    },
    {
      "inputs": [],
      "name": "DEFAULT_ADMIN_ROLE",
      "outputs": [
        {
          "internalType": "bytes32",
          "name": "",
          "type": "bytes32"
        }
      ],
      "stateMutability": "view",
      "type": "function"
    },
    {
      "inputs": [],
      "name": "EMERGENCY_WITHDRAW_ROLE",
      "outputs": [
        {
          "internalType": "bytes32",
          "name": "",
          "type": "bytes32"
        }
      ],
      "stateMutability": "view",
      "type": "function"
    },
    {
      "inputs": [],
      "name": "MINTER_ROLE",
      "outputs": [
        {
          "internalType": "bytes32",
          "name": "",
          "type": "bytes32"
        }
      ],
      "stateMutability": "view",
      "type": "function"
    },
    {
      "inputs": [],
      "name": "TRANSFER_ALLOWED_ROLE",
      "outputs": [
        {
          "internalType": "bytes32",
          "name": "",
          "type": "bytes32"
        }
      ],
      "stateMutability": "view",
      "type": "function"
    },
    {
      "inputs": [
        {
          "internalType": "address",
          "name": "owner",
          "type": "address"
        },
        {
          "internalType": "address",
          "name": "spender",
          "type": "address"
        }
      ],
      "name": "allowance",
      "outputs": [
        {
          "internalType": "uint256",
          "name": "",
          "type": "uint256"
        }
      ],
      "stateMutability": "view",
      "type": "function"
    },
    {
      "inputs": [
        {
          "internalType": "address",
          "name": "spender",
          "type": "address"
        },
        {
          "internalType": "uint256",
          "name": "amount",
          "type": "uint256"
        }
      ],
      "name": "approve",
      "outputs": [
        {
          "internalType": "bool",
          "name": "",
          "type": "bool"
        }
      ],
      "stateMutability": "nonpayable",
      "type": "function"
    },
    {
      "inputs": [
        {
          "internalType": "address",
          "name": "account",
          "type": "address"
        }
      ],
      "name": "balanceOf",
      "outputs": [
        {
          "internalType": "uint256",
          "name": "",
          "type": "uint256"
        }
      ],
      "stateMutability": "view",
      "type": "function"
    },
    {
      "inputs": [
        {
          "internalType": "address",
          "name": "_from",
          "type": "address"
        },
        {
          "internalType": "uint256",
          "name": "_amount",
          "type": "uint256"
        }
      ],
      "name": "burn",
      "outputs": [],
      "stateMutability": "nonpayable",
      "type": "function"
    },
    {
      "inputs": [],
      "name": "decimals",
      "outputs": [
        {
          "internalType": "uint8",
          "name": "",
          "type": "uint8"
        }
      ],
      "stateMutability": "pure",
      "type": "function"
    },
    {
      "inputs": [
        {
          "internalType": "address",
          "name": "spender",
          "type": "address"
        },
        {
          "internalType": "uint256",
          "name": "subtractedValue",
          "type": "uint256"
        }
      ],
      "name": "decreaseAllowance",
      "outputs": [
        {
          "internalType": "bool",
          "name": "",
          "type": "bool"
        }
      ],
      "stateMutability": "nonpayable",
      "type": "function"
    },
    {
      "inputs": [
        {
          "internalType": "address",
          "name": "_token",
          "type": "address"
        },
        {
          "internalType": "address",
          "name": "_to",
          "type": "address"
        },
        {
          "internalType": "uint256",
          "name": "_amount",
          "type": "uint256"
        }
      ],
      "name": "emergencyWithdraw",
      "outputs": [],
      "stateMutability": "nonpayable",
      "type": "function"
    },
    {
      "inputs": [
        {
          "internalType": "bytes32",
          "name": "role",
          "type": "bytes32"
        }
      ],
      "name": "getRoleAdmin",
      "outputs": [
        {
          "internalType": "bytes32",
          "name": "",
          "type": "bytes32"
        }
      ],
      "stateMutability": "view",
      "type": "function"
    },
    {
      "inputs": [
        {
          "internalType": "bytes32",
          "name": "role",
          "type": "bytes32"
        },
        {
          "internalType": "uint256",
          "name": "index",
          "type": "uint256"
        }
      ],
      "name": "getRoleMember",
      "outputs": [
        {
          "internalType": "address",
          "name": "",
          "type": "address"
        }
      ],
      "stateMutability": "view",
      "type": "function"
    },
    {
      "inputs": [
        {
          "internalType": "bytes32",
          "name": "role",
          "type": "bytes32"
        }
      ],
      "name": "getRoleMemberCount",
      "outputs": [
        {
          "internalType": "uint256",
          "name": "",
          "type": "uint256"
        }
      ],
      "stateMutability": "view",
      "type": "function"
    },
    {
      "inputs": [
        {
          "internalType": "bytes32",
          "name": "role",
          "type": "bytes32"
        },
        {
          "internalType": "address",
          "name": "account",
          "type": "address"
        }
      ],
      "name": "grantRole",
      "outputs": [],
      "stateMutability": "nonpayable",
      "type": "function"
    },
    {
      "inputs": [
        {
          "internalType": "bytes32",
          "name": "role",
          "type": "bytes32"
        },
        {
          "internalType": "address",
          "name": "account",
          "type": "address"
        }
      ],
      "name": "hasRole",
      "outputs": [
        {
          "internalType": "bool",
          "name": "",
          "type": "bool"
        }
      ],
      "stateMutability": "view",
      "type": "function"
    },
    {
      "inputs": [
        {
          "internalType": "address",
          "name": "spender",
          "type": "address"
        },
        {
          "internalType": "uint256",
          "name": "addedValue",
          "type": "uint256"
        }
      ],
      "name": "increaseAllowance",
      "outputs": [
        {
          "internalType": "bool",
          "name": "",
          "type": "bool"
        }
      ],
      "stateMutability": "nonpayable",
      "type": "function"
    },
    {
      "inputs": [
        {
          "internalType": "address",
          "name": "_admin",
          "type": "address"
        }
      ],
      "name": "initialize",
      "outputs": [],
      "stateMutability": "nonpayable",
      "type": "function"
    },
    {
      "inputs": [
        {
          "internalType": "address",
          "name": "_to",
          "type": "address"
        },
        {
          "internalType": "uint256",
          "name": "_amount",
          "type": "uint256"
        }
      ],
      "name": "mint",
      "outputs": [],
      "stateMutability": "nonpayable",
      "type": "function"
    },
    {
      "inputs": [],
      "name": "name",
      "outputs": [
        {
          "internalType": "string",
          "name": "",
          "type": "string"
        }
      ],
      "stateMutability": "view",
      "type": "function"
    },
    {
      "inputs": [],
      "name": "paused",
      "outputs": [
        {
          "internalType": "bool",
          "name": "",
          "type": "bool"
        }
      ],
      "stateMutability": "view",
      "type": "function"
    },
    {
      "inputs": [],
      "name": "proxiableUUID",
      "outputs": [
        {
          "internalType": "bytes32",
          "name": "",
          "type": "bytes32"
        }
      ],
      "stateMutability": "view",
      "type": "function"
    },
    {
      "inputs": [
        {
          "internalType": "address",
          "name": "_to",
          "type": "address"
        },
        {
          "internalType": "uint256",
          "name": "_amount",
          "type": "uint256"
        }
      ],
      "name": "redeemAndBurn",
      "outputs": [],
      "stateMutability": "nonpayable",
      "type": "function"
    },
    {
      "inputs": [
        {
          "internalType": "bytes32",
          "name": "role",
          "type": "bytes32"
        },
        {
          "internalType": "address",
          "name": "account",
          "type": "address"
        }
      ],
      "name": "renounceRole",
      "outputs": [],
      "stateMutability": "nonpayable",
      "type": "function"
    },
    {
      "inputs": [
        {
          "internalType": "bytes32",
          "name": "role",
          "type": "bytes32"
        },
        {
          "internalType": "address",
          "name": "account",
          "type": "address"
        }
      ],
      "name": "revokeRole",
      "outputs": [],
      "stateMutability": "nonpayable",
      "type": "function"
    },
    {
      "inputs": [
        {
          "internalType": "bytes4",
          "name": "interfaceId",
          "type": "bytes4"
        }
      ],
      "name": "supportsInterface",
      "outputs": [
        {
          "internalType": "bool",
          "name": "",
          "type": "bool"
        }
      ],
      "stateMutability": "view",
      "type": "function"
    },
    {
      "inputs": [],
      "name": "symbol",
      "outputs": [
        {
          "internalType": "string",
          "name": "",
          "type": "string"
        }
      ],
      "stateMutability": "view",
      "type": "function"
    },
    {
      "inputs": [],
      "name": "totalSupply",
      "outputs": [
        {
          "internalType": "uint256",
          "name": "",
          "type": "uint256"
        }
      ],
      "stateMutability": "view",
      "type": "function"
    },
    {
      "inputs": [
        {
          "internalType": "address",
          "name": "to",
          "type": "address"
        },
        {
          "internalType": "uint256",
          "name": "amount",
          "type": "uint256"
        }
      ],
      "name": "transfer",
      "outputs": [
        {
          "internalType": "bool",
          "name": "",
          "type": "bool"
        }
      ],
      "stateMutability": "nonpayable",
      "type": "function"
    },
    {
      "inputs": [
        {
          "internalType": "address",
          "name": "from",
          "type": "address"
        },
        {
          "internalType": "address",
          "name": "to",
          "type": "address"
        },
        {
          "internalType": "uint256",
          "name": "amount",
          "type": "uint256"
        }
      ],
      "name": "transferFrom",
      "outputs": [
        {
          "internalType": "bool",
          "name": "",
          "type": "bool"
        }
      ],
      "stateMutability": "nonpayable",
      "type": "function"
    },
    {
      "inputs": [
        {
          "internalType": "address",
          "name": "newImplementation",
          "type": "address"
        }
      ],
      "name": "upgradeTo",
      "outputs": [],
      "stateMutability": "nonpayable",
      "type": "function"
    },
    {
      "inputs": [
        {
          "internalType": "address",
          "name": "newImplementation",
          "type": "address"
        },
        {
          "internalType": "bytes",
          "name": "data",
          "type": "bytes"
        }
      ],
      "name": "upgradeToAndCall",
      "outputs": [],
      "stateMutability": "payable",
      "type": "function"
    }
  ],
  "bytecode": "0x60e03461009557601f61318f38819003918201601f19168301916001600160401b0383118484101761009a57808492604094855283398101031261009557610052602061004b836100b0565b92016100b0565b903060805260a05260c0526040516130ca90816100c58239608051818181610fdf015281816111250152611660015260a05181610d7b015260c05181610db80152f35b600080fd5b634e487b7160e01b600052604160045260246000fd5b51906001600160a01b03821682036100955756fe608080604052600436101561001357600080fd5b60003560e01c90816301ffc9a714611d3f5750806306fdde0314611c96578063095ea7b314611c7057806318160ddd14611c5257806323b872dd14611b87578063248a9ca314611b525780632f2ff15d14611a17578063313ce567146119fb57806336568abe1461194f5780633659cfe61461162d57806339509351146115cd57806340c10f191461143e5780634f1ef2861461109957806352d1902d14610fb75780635622fd9014610f7c5780635c975abb14610f5857806370a0823114610f1157806389022e2e14610d3d5780639010d07c14610cea57806391d1485414610c8f57806395d89b4114610b935780639dc29fac14610b66578063a217fddf14610b4a578063a457c2d714610a7e578063a9059cbb14610a4d578063c4d66de8146103d1578063ca15c873146103a5578063d53913931461036a578063d547741f14610325578063dd62ed3e146102b3578063e63ea408146101bf5763ef5c93741461017f57600080fd5b346101ba5760006003193601126101ba5760206040517fed89ee80d998965e2804dad373576bf7ffc490ba5986d52deb7d526e936171018152f35b600080fd5b346101ba576101cd36611ea5565b3360009081527fffdfc1249c027f9191656349feb0761381bb32c9f557e01f419fd08754bf5a1b602052604090205490919060ff1615610289573360009081527f0c2290b178333b9e91c2bedbee86166fc0702e25a3a228dacfc6f9cc25e31030602052604090205460ff161561025f5773ffffffffffffffffffffffffffffffffffffffff61025d9316612722565b005b7fb11b43430000000000000000000000000000000000000000000000000000000060005260046000fd5b7f475565790000000000000000000000000000000000000000000000000000000060005260046000fd5b346101ba5760406003193601126101ba576102cc611e5f565b73ffffffffffffffffffffffffffffffffffffffff6102e9611e82565b911660005260ca60205273ffffffffffffffffffffffffffffffffffffffff604060002091166000526020526020604060002054604051908152f35b346101ba5760406003193601126101ba5761025d600435610344611e82565b9061036561036082600052606560205260016040600020015490565b61256d565b6125c4565b346101ba5760006003193601126101ba5760206040517f9f2df0fed2c77648de5860a4cc508cd0818c85b8b8a1ab4ceeef8d981c8956a68152f35b346101ba5760206003193601126101ba5760043560005260976020526020604060002054604051908152f35b346101ba5760206003193601126101ba576103ea611e5f565b6000549060ff8260081c161591828093610a40575b8015610a29575b156109bf578260017fffffffffffffffffffffffffffffffffffffffffffffffffffffffffffffff00831617600055610990575b5060ff60005460081c169161044e83612a50565b61045783612a50565b61046083612a50565b604091825161046f8482611ef9565b600d81527f4f7973746572204372656469740000000000000000000000000000000000000060208201526104d88451956104a98688611ef9565b600687527f43524544495400000000000000000000000000000000000000000000000000006020880152612a50565b80519067ffffffffffffffff82116108245781906104f760cc54611f38565b601f81116108e3575b50602090601f831160011461085e57600092610853575b50506000198260011b9260031b1c19161760cc555b835167ffffffffffffffff81116108245761054860cd54611f38565b601f8111610781575b506020601f82116001146106f75781906105f79495966000926106ec575b50506000198260011b9260031b1c19161760cd555b61059560ff60005460081c16612a50565b6000805260656020528360002073ffffffffffffffffffffffffffffffffffffffff821660005260205260ff84600020541615610652575b60008052609760205273ffffffffffffffffffffffffffffffffffffffff84600020911690612e73565b506105fe57005b60207f7f26b83ff96e1f2b6a682f133852f6798a09c465da95921460cefb3847402498917fffffffffffffffffffffffffffffffffffffffffffffffffffffffffffff00ff600054166000555160018152a1005b6000805260656020528360002073ffffffffffffffffffffffffffffffffffffffff82166000526020528360002060017fffffffffffffffffffffffffffffffffffffffffffffffffffffffffffffff008254161790553373ffffffffffffffffffffffffffffffffffffffff821660007f2f8788117e7eff1d82e926ec794901d17c78024a50270940304540a733656f0d8180a46105cd565b01519050868061056f565b601f1982169560cd6000527f83978b4c69c48dd978ab43fe30f077615294f938fb7f936d9eb340e51ea7db2e9660005b8181106107695750916105f795969791846001959410610750575b505050811b0160cd55610584565b015160001960f88460031b161c19169055868080610742565b83830151895560019098019760209384019301610727565b60cd600052601f820160051c7f83978b4c69c48dd978ab43fe30f077615294f938fb7f936d9eb340e51ea7db2e0190602083106107fc575b601f0160051c7f83978b4c69c48dd978ab43fe30f077615294f938fb7f936d9eb340e51ea7db2e01905b8181106107f05750610551565b600081556001016107e3565b7f83978b4c69c48dd978ab43fe30f077615294f938fb7f936d9eb340e51ea7db2e91506107b9565b7f4e487b7100000000000000000000000000000000000000000000000000000000600052604160045260246000fd5b015190508680610517565b91601f19169160cc6000527f47197230e1e4b29fc0bd84d7d78966c0925452aff72a2a121538b102457e9ebe9260005b8181106108cb57509084600195949392106108b2575b505050811b0160cc5561052c565b015160001960f88460031b161c191690558680806108a4565b9293602060018192878601518155019501930161088e565b90915060cc600052601f830160051c7f47197230e1e4b29fc0bd84d7d78966c0925452aff72a2a121538b102457e9ebe019060208410610968575b90601f8493920160051c7f47197230e1e4b29fc0bd84d7d78966c0925452aff72a2a121538b102457e9ebe01905b8181106109595750610500565b6000815584935060010161094c565b7f47197230e1e4b29fc0bd84d7d78966c0925452aff72a2a121538b102457e9ebe915061091e565b7fffffffffffffffffffffffffffffffffffffffffffffffffffffffffffff000016610101176000558261043a565b608460405162461bcd60e51b815260206004820152602e60248201527f496e697469616c697a61626c653a20636f6e747261637420697320616c72656160448201527f647920696e697469616c697a65640000000000000000000000000000000000006064820152fd5b50303b1580156104065750600160ff821614610406565b50600160ff8216106103ff565b346101ba5760406003193601126101ba57610a73610a69611e5f565b60243590336121fd565b602060405160018152f35b346101ba5760406003193601126101ba57610a97611e5f565b602435903360005260ca602052604060002073ffffffffffffffffffffffffffffffffffffffff821660005260205260406000205491808310610ae057610a73920390336120a9565b608460405162461bcd60e51b815260206004820152602560248201527f45524332303a2064656372656173656420616c6c6f77616e63652062656c6f7760448201527f207a65726f0000000000000000000000000000000000000000000000000000006064820152fd5b346101ba5760006003193601126101ba57602060405160008152f35b346101ba5760406003193601126101ba5761025d610b82611e5f565b610b8a612450565b60243590612873565b346101ba5760006003193601126101ba57604051600060cd54610bb581611f38565b8084529060018116908115610c4d5750600114610bed575b610be983610bdd81850382611ef9565b60405191829182611e33565b0390f35b91905060cd6000527f83978b4c69c48dd978ab43fe30f077615294f938fb7f936d9eb340e51ea7db2e916000905b808210610c3357509091508101602001610bdd610bcd565b919260018160209254838588010152019101909291610c1b565b7fffffffffffffffffffffffffffffffffffffffffffffffffffffffffffffff001660208086019190915291151560051b84019091019150610bdd9050610bcd565b346101ba5760406003193601126101ba57610ca8611e82565b600435600052606560205273ffffffffffffffffffffffffffffffffffffffff60406000209116600052602052602060ff604060002054166040519015158152f35b346101ba5760406003193601126101ba576004356000526097602052602073ffffffffffffffffffffffffffffffffffffffff610d2d6024356040600020612bb1565b90549060031b1c16604051908152f35b346101ba5760406003193601126101ba57610d56611e5f565b60243560ff61015f5416610ecd5773ffffffffffffffffffffffffffffffffffffffff7f0000000000000000000000000000000000000000000000000000000000000000163303610ea35773ffffffffffffffffffffffffffffffffffffffff7f000000000000000000000000000000000000000000000000000000000000000016916040517f70a08231000000000000000000000000000000000000000000000000000000008152306004820152602081602481875afa8015610e97578391600091610e62575b5010610e385781610e329161025d94612722565b33612873565b7ff428bbf40000000000000000000000000000000000000000000000000000000060005260046000fd5b9150506020813d602011610e8f575b81610e7e60209383611ef9565b810103126101ba5782905185610e1e565b3d9150610e71565b6040513d6000823e3d90fd5b7fec288dde0000000000000000000000000000000000000000000000000000000060005260046000fd5b606460405162461bcd60e51b815260206004820152601060248201527f5061757361626c653a20706175736564000000000000000000000000000000006044820152fd5b346101ba5760206003193601126101ba5773ffffffffffffffffffffffffffffffffffffffff610f3f611e5f565b1660005260c96020526020604060002054604051908152f35b346101ba5760006003193601126101ba57602060ff61015f54166040519015158152f35b346101ba5760006003193601126101ba5760206040517f66f144ecd65ad16d38ecdba8687842af4bc05fde66fe3d999569a3006349785f8152f35b346101ba5760006003193601126101ba5773ffffffffffffffffffffffffffffffffffffffff7f000000000000000000000000000000000000000000000000000000000000000016300361102f5760206040517f360894a13ba1a3210667c828492db98dca3e2076cc3735a920a3ca505d382bbc8152f35b608460405162461bcd60e51b815260206004820152603860248201527f555550535570677261646561626c653a206d757374206e6f742062652063616c60448201527f6c6564207468726f7567682064656c656761746563616c6c00000000000000006064820152fd5b60406003193601126101ba576110ad611e5f565b6024359067ffffffffffffffff82116101ba57366023830112156101ba5781600401356110d981611f1c565b906110e76040519283611ef9565b808252602082019336602483830101116101ba578160009260246020930187378301015261118f73ffffffffffffffffffffffffffffffffffffffff7f00000000000000000000000000000000000000000000000000000000000000001661115181301415611f8b565b73ffffffffffffffffffffffffffffffffffffffff7f360894a13ba1a3210667c828492db98dca3e2076cc3735a920a3ca505d382bbc541614611ffc565b3360009081527fffdfc1249c027f9191656349feb0761381bb32c9f557e01f419fd08754bf5a1b602052604090205460ff1615610289577f4910fdfa16fed3260ed0e7147f7cc6da11a60208b5b9406d12a635614ffd91435460ff16156111fb575061025d9150612ac1565b9073ffffffffffffffffffffffffffffffffffffffff81166040517f52d1902d000000000000000000000000000000000000000000000000000000008152602081600481855afa6000918161140a575b506112ba57608460405162461bcd60e51b815260206004820152602e60248201527f45524331393637557067726164653a206e657720696d706c656d656e7461746960448201527f6f6e206973206e6f7420555550530000000000000000000000000000000000006064820152fd5b7f360894a13ba1a3210667c828492db98dca3e2076cc3735a920a3ca505d382bbc036113a0576112e982612ac1565b7fbc7cd75a20ee27fd9adebab32041f755214dbc6bffa90cc0225b39da2e5c2d3b600080a2815115801590611398575b61131f57005b60008061025d9460405194611335606087611ef9565b602786527f416464726573733a206c6f772d6c6576656c2064656c65676174652063616c6c60208701527f206661696c65640000000000000000000000000000000000000000000000000060408701525190845af4611392612fd4565b91613004565b506001611319565b608460405162461bcd60e51b815260206004820152602960248201527f45524331393637557067726164653a20756e737570706f727465642070726f7860448201527f6961626c655555494400000000000000000000000000000000000000000000006064820152fd5b9091506020813d602011611436575b8161142660209383611ef9565b810103126101ba5751908661124b565b3d9150611419565b346101ba5760406003193601126101ba57611457611e5f565b73ffffffffffffffffffffffffffffffffffffffff60243591611478612450565b1690811561158957600080527f115210ebd146ce44d4a9c3716916b84ad247918a20d9b0c5b15e89c088c7c3f76020527fa2c4de9243f979e7214b679b0a950296e7c19a5bf874ffc5d7a520a9eb7a369a5460ff168015611552575b15611528577fddf252ad1be2c89b69c2b068fc378daa952ba7f163c4a11628f55a4df523b3ef60208261150b60009460cb5461206d565b60cb5584845260c9825260408420818154019055604051908152a3005b7f0515324d0000000000000000000000000000000000000000000000000000000060005260046000fd5b5060008281527f115210ebd146ce44d4a9c3716916b84ad247918a20d9b0c5b15e89c088c7c3f7602052604090205460ff166114d4565b606460405162461bcd60e51b815260206004820152601f60248201527f45524332303a206d696e7420746f20746865207a65726f2061646472657373006044820152fd5b346101ba5760406003193601126101ba57610a736115e9611e5f565b3360005260ca602052604060002073ffffffffffffffffffffffffffffffffffffffff82166000526020526116266040600020602435905461206d565b90336120a9565b346101ba5760206003193601126101ba57611646611e5f565b61168c73ffffffffffffffffffffffffffffffffffffffff7f00000000000000000000000000000000000000000000000000000000000000001661115181301415611f8b565b3360009081527fffdfc1249c027f9191656349feb0761381bb32c9f557e01f419fd08754bf5a1b602052604090205460ff1615610289576040519060206116d38184611ef9565b60008352808301601f1982013682377f4910fdfa16fed3260ed0e7147f7cc6da11a60208b5b9406d12a635614ffd91435460ff161561171857505061025d9150612ac1565b73ffffffffffffffffffffffffffffffffffffffff839293166040517f52d1902d0000000000000000000000000000000000000000000000000000000081528481600481855afa60009181611920575b506117d7576084856040519062461bcd60e51b82526004820152602e60248201527f45524331393637557067726164653a206e657720696d706c656d656e7461746960448201527f6f6e206973206e6f7420555550530000000000000000000000000000000000006064820152fd5b7f360894a13ba1a3210667c828492db98dca3e2076cc3735a920a3ca505d382bbc036118b65761180683612ac1565b7fbc7cd75a20ee27fd9adebab32041f755214dbc6bffa90cc0225b39da2e5c2d3b600080a28351158015906118ae575b61183c57005b6000809161025d957f416464726573733a206c6f772d6c6576656c2064656c65676174652063616c6c60405196611874606089611ef9565b602788528701527f206661696c65640000000000000000000000000000000000000000000000000060408701525190845af4611392612fd4565b506000611836565b6084846040519062461bcd60e51b82526004820152602960248201527f45524331393637557067726164653a20756e737570706f727465642070726f7860448201527f6961626c655555494400000000000000000000000000000000000000000000006064820152fd5b9091508581813d8311611948575b6119388183611ef9565b810103126101ba57519087611768565b503d61192e565b346101ba5760406003193601126101ba57611968611e82565b3373ffffffffffffffffffffffffffffffffffffffff8216036119915761025d906004356125c4565b608460405162461bcd60e51b815260206004820152602f60248201527f416363657373436f6e74726f6c3a2063616e206f6e6c792072656e6f756e636560448201527f20726f6c657320666f722073656c6600000000000000000000000000000000006064820152fd5b346101ba5760006003193601126101ba57602060405160068152f35b346101ba5760406003193601126101ba5761025d600435611a36611e82565b90611a5261036082600052606560205260016040600020015490565b806000526065602052604060002073ffffffffffffffffffffffffffffffffffffffff831660005260205260ff6040600020541615611ab6575b600052609760205273ffffffffffffffffffffffffffffffffffffffff6040600020911690612e73565b806000526065602052604060002073ffffffffffffffffffffffffffffffffffffffff8316600052602052604060002060017fffffffffffffffffffffffffffffffffffffffffffffffffffffffffffffff008254161790553373ffffffffffffffffffffffffffffffffffffffff8316827f2f8788117e7eff1d82e926ec794901d17c78024a50270940304540a733656f0d600080a4611a8c565b346101ba5760206003193601126101ba576020611b7f600435600052606560205260016040600020015490565b604051908152f35b346101ba57611b9536611ea5565b9073ffffffffffffffffffffffffffffffffffffffff831660005260ca602052604060002073ffffffffffffffffffffffffffffffffffffffff3316600052602052604060002054926000198403611bf2575b610a7393506121fd565b828410611c0e57611c0983610a73950333836120a9565b611be8565b606460405162461bcd60e51b815260206004820152601d60248201527f45524332303a20696e73756666696369656e7420616c6c6f77616e63650000006044820152fd5b346101ba5760006003193601126101ba57602060cb54604051908152f35b346101ba5760406003193601126101ba57610a73611c8c611e5f565b60243590336120a9565b346101ba5760006003193601126101ba57604051600060cc54611cb881611f38565b8084529060018116908115610c4d5750600114611cdf57610be983610bdd81850382611ef9565b91905060cc6000527f47197230e1e4b29fc0bd84d7d78966c0925452aff72a2a121538b102457e9ebe916000905b808210611d2557509091508101602001610bdd610bcd565b919260018160209254838588010152019101909291611d0d565b346101ba5760206003193601126101ba57600435907fffffffff0000000000000000000000000000000000000000000000000000000082168092036101ba57817f5a05180f0000000000000000000000000000000000000000000000000000000060209314908115611db3575b5015158152f35b7f7965db0b00000000000000000000000000000000000000000000000000000000811491508115611de6575b5083611dac565b7f01ffc9a70000000000000000000000000000000000000000000000000000000091501483611ddf565b60005b838110611e235750506000910152565b8181015183820152602001611e13565b601f19601f60409360208452611e588151809281602088015260208888019101611e10565b0116010190565b6004359073ffffffffffffffffffffffffffffffffffffffff821682036101ba57565b6024359073ffffffffffffffffffffffffffffffffffffffff821682036101ba57565b60031960609101126101ba5760043573ffffffffffffffffffffffffffffffffffffffff811681036101ba579060243573ffffffffffffffffffffffffffffffffffffffff811681036101ba579060443590565b90601f601f19910116810190811067ffffffffffffffff82111761082457604052565b67ffffffffffffffff811161082457601f01601f191660200190565b90600182811c92168015611f81575b6020831014611f5257565b7f4e487b7100000000000000000000000000000000000000000000000000000000600052602260045260246000fd5b91607f1691611f47565b15611f9257565b608460405162461bcd60e51b815260206004820152602c60248201527f46756e6374696f6e206d7573742062652063616c6c6564207468726f7567682060448201527f64656c656761746563616c6c00000000000000000000000000000000000000006064820152fd5b1561200357565b608460405162461bcd60e51b815260206004820152602c60248201527f46756e6374696f6e206d7573742062652063616c6c6564207468726f7567682060448201527f6163746976652070726f787900000000000000000000000000000000000000006064820152fd5b9190820180921161207a57565b7f4e487b7100000000000000000000000000000000000000000000000000000000600052601160045260246000fd5b73ffffffffffffffffffffffffffffffffffffffff169081156121945773ffffffffffffffffffffffffffffffffffffffff1691821561212a5760207f8c5be1e5ebec7d5bd14f71427d1e84f3dd0314c0f7b2291e5b200ac8c7c3b925918360005260ca8252604060002085600052825280604060002055604051908152a3565b608460405162461bcd60e51b815260206004820152602260248201527f45524332303a20617070726f766520746f20746865207a65726f20616464726560448201527f73730000000000000000000000000000000000000000000000000000000000006064820152fd5b608460405162461bcd60e51b8152602060048201526024808201527f45524332303a20617070726f76652066726f6d20746865207a65726f2061646460448201527f72657373000000000000000000000000000000000000000000000000000000006064820152fd5b73ffffffffffffffffffffffffffffffffffffffff169081156123e65773ffffffffffffffffffffffffffffffffffffffff1691821561237c5760008281527f115210ebd146ce44d4a9c3716916b84ad247918a20d9b0c5b15e89c088c7c3f7602052604090205460ff168015612345575b15611528578160005260c96020526040600020548181106122db57817fddf252ad1be2c89b69c2b068fc378daa952ba7f163c4a11628f55a4df523b3ef926020928560005260c98452036040600020558460005260c982526040600020818154019055604051908152a3565b608460405162461bcd60e51b815260206004820152602660248201527f45524332303a207472616e7366657220616d6f756e742065786365656473206260448201527f616c616e636500000000000000000000000000000000000000000000000000006064820152fd5b5060008381527f115210ebd146ce44d4a9c3716916b84ad247918a20d9b0c5b15e89c088c7c3f7602052604090205460ff1661226f565b608460405162461bcd60e51b815260206004820152602360248201527f45524332303a207472616e7366657220746f20746865207a65726f206164647260448201527f65737300000000000000000000000000000000000000000000000000000000006064820152fd5b608460405162461bcd60e51b815260206004820152602560248201527f45524332303a207472616e736665722066726f6d20746865207a65726f20616460448201527f64726573730000000000000000000000000000000000000000000000000000006064820152fd5b3360009081527fa0f6cebec7fb889cc5ac88647269c4c0108fb926abd2111b551f234b348876df602052604090205460ff161561248957565b61256961249533612c09565b61255160116124c37f9f2df0fed2c77648de5860a4cc508cd0818c85b8b8a1ab4ceeef8d981c8956a6612dba565b9260376040519485927f416363657373436f6e74726f6c3a206163636f756e742000000000000000000060208501526125058151809260208688019101611e10565b83017f206973206d697373696e6720726f6c652000000000000000000000000000000083820152612540825180936020604885019101611e10565b01010301601f198101835282611ef9565b60405191829162461bcd60e51b835260048301611e33565b0390fd5b806000526065602052604060002073ffffffffffffffffffffffffffffffffffffffff331660005260205260ff60406000205416156125a95750565b6125699061255160116124c36125be33612c09565b93612dba565b9061262c91806000526065602052604060002073ffffffffffffffffffffffffffffffffffffffff831660005260205260ff60406000205416612689575b600052609760205273ffffffffffffffffffffffffffffffffffffffff6040600020911690612ee9565b506000805260976020527f683723e34a772b6e4f2c919bba7fa32ed8ea11a8325f54da7db716e9d9dd98c7541561265f57565b7f4a1be5e40000000000000000000000000000000000000000000000000000000060005260046000fd5b806000526065602052604060002073ffffffffffffffffffffffffffffffffffffffff831660005260205260406000207fffffffffffffffffffffffffffffffffffffffffffffffffffffffffffffff0081541690553373ffffffffffffffffffffffffffffffffffffffff8316827ff6391f5c32d9c69d2a47ea670b442974b53935d1edc7fd64eb21e047a839171b600080a4612602565b9173ffffffffffffffffffffffffffffffffffffffff6127d09293604051928260208501967fa9059cbb000000000000000000000000000000000000000000000000000000008852166024850152604484015260448352612784606484611ef9565b166000806040958651946127988887611ef9565b602086527f5361666545524332303a206c6f772d6c6576656c2063616c6c206661696c65646020870152519082855af1611392612fd4565b8051908115918215612850575b5050156127e75750565b6084905162461bcd60e51b815260206004820152602a60248201527f5361666545524332303a204552433230206f7065726174696f6e20646964206e60448201527f6f742073756363656564000000000000000000000000000000000000000000006064820152fd5b81925090602091810103126101ba576020015180151581036101ba5738806127dd565b73ffffffffffffffffffffffffffffffffffffffff1680156129e65760008181527f115210ebd146ce44d4a9c3716916b84ad247918a20d9b0c5b15e89c088c7c3f7602052604090205460ff168015612993575b15611528578060005260c960205260406000205491808310612929576020817fddf252ad1be2c89b69c2b068fc378daa952ba7f163c4a11628f55a4df523b3ef9260009585875260c984520360408620558060cb540360cb55604051908152a3565b608460405162461bcd60e51b815260206004820152602260248201527f45524332303a206275726e20616d6f756e7420657863656564732062616c616e60448201527f63650000000000000000000000000000000000000000000000000000000000006064820152fd5b50600080527f115210ebd146ce44d4a9c3716916b84ad247918a20d9b0c5b15e89c088c7c3f76020527fa2c4de9243f979e7214b679b0a950296e7c19a5bf874ffc5d7a520a9eb7a369a5460ff166128c7565b608460405162461bcd60e51b815260206004820152602160248201527f45524332303a206275726e2066726f6d20746865207a65726f2061646472657360448201527f73000000000000000000000000000000000000000000000000000000000000006064820152fd5b15612a5757565b608460405162461bcd60e51b815260206004820152602b60248201527f496e697469616c697a61626c653a20636f6e7472616374206973206e6f74206960448201527f6e697469616c697a696e670000000000000000000000000000000000000000006064820152fd5b803b15612b475773ffffffffffffffffffffffffffffffffffffffff167fffffffffffffffffffffffff00000000000000000000000000000000000000007f360894a13ba1a3210667c828492db98dca3e2076cc3735a920a3ca505d382bbc5416177f360894a13ba1a3210667c828492db98dca3e2076cc3735a920a3ca505d382bbc55565b608460405162461bcd60e51b815260206004820152602d60248201527f455243313936373a206e657720696d706c656d656e746174696f6e206973206e60448201527f6f74206120636f6e7472616374000000000000000000000000000000000000006064820152fd5b8054821015612bc95760005260206000200190600090565b7f4e487b7100000000000000000000000000000000000000000000000000000000600052603260045260246000fd5b908151811015612bc9570160200190565b600090612c16602a611f1c565b91612c246040519384611ef9565b602a8352612c32602a611f1c565b601f19602085019101368237835115612d8d5760309053825160011015612d60576078602184015350602960005b60018211612cb5575050612c715790565b606460405162461bcd60e51b815260206004820152602060248201527f537472696e67733a20686578206c656e67746820696e73756666696369656e746044820152fd5b9091600f81166010811015612d33577f3031323334353637383961626364656600000000000000000000000000000000901a612cf18486612bf8565b5360041c918015612d06576000190190612c60565b6024827f4e487b710000000000000000000000000000000000000000000000000000000081526011600452fd5b6024837f4e487b710000000000000000000000000000000000000000000000000000000081526032600452fd5b807f4e487b7100000000000000000000000000000000000000000000000000000000602492526032600452fd5b6024827f4e487b710000000000000000000000000000000000000000000000000000000081526032600452fd5b600090612dc76042611f1c565b91612dd56040519384611ef9565b60428352612de36042611f1c565b601f19602085019101368237835115612d8d5760309053825160011015612d60576078602184015350604160005b60018211612e22575050612c715790565b9091600f81166010811015612d33577f3031323334353637383961626364656600000000000000000000000000000000901a612e5e8486612bf8565b5360041c918015612d06576000190190612e11565b6001810190826000528160205260406000205415600014612ee15780546801000000000000000081101561082457612ecc612eb5826001879401855584612bb1565b81939154906000199060031b92831b921b19161790565b90555491600052602052604060002055600190565b505050600090565b9060018201918160005282602052604060002054801515600014612fcb57600019810181811161207a57825490600019820191821161207a57808203612f94575b50505080548015612f65576000190190612f448282612bb1565b60001982549160031b1b191690555560005260205260006040812055600190565b7f4e487b7100000000000000000000000000000000000000000000000000000000600052603160045260246000fd5b612fb4612fa4612eb59386612bb1565b90549060031b1c92839286612bb1565b905560005283602052604060002055388080612f2a565b50505050600090565b3d15612fff573d90612fe582611f1c565b91612ff36040519384611ef9565b82523d6000602084013e565b606090565b919290156130655750815115613018575090565b3b156130215790565b606460405162461bcd60e51b815260206004820152601d60248201527f416464726573733a2063616c6c20746f206e6f6e2d636f6e74726163740000006044820152fd5b8251909150156130785750805190602001fd5b6125699060405191829162461bcd60e51b835260048301611e3356fea264697066735822122019dff77dc173525b1a50428185cc64127a40c136aed971c4b20ab5fb662f886864736f6c634300081a0033",
  "linkReferences": {},
  "deployedLinkReferences": {}
}