{
  "_format": "hh-sol-artifact-1",
  "contractName": "MarketV1",
  "sourceName": "contracts/enclaves/MarketV1.sol",
  "abi": [
    {
      "inputs": [],
      "stateMutability": "nonpayable",
      "type": "constructor"
    },
    {
      "anonymous": false,
      "inputs": [
        {
          "indexed": false,
          "internalType": "address",
          "name": "previousAdmin",
          "type": "address"
        },
        {
          "indexed": false,
          "internalType": "address",
          "name": "newAdmin",
          "type": "address"
        }
      ],
      "name": "AdminChanged",
      "type": "event"
    },
    {
      "anonymous": false,
      "inputs": [
        {
          "indexed": true,
          "internalType": "address",
          "name": "beacon",
          "type": "address"
        }
      ],
      "name": "BeaconUpgraded",
      "type": "event"
    },
    {
      "anonymous": false,
      "inputs": [
        {
          "indexed": true,
          "internalType": "address",
          "name": "oldCreditToken",
          "type": "address"
        },
        {
          "indexed": true,
          "internalType": "address",
          "name": "newCreditToken",
          "type": "address"
        }
      ],
      "name": "CreditTokenUpdated",
      "type": "event"
    },
    {
      "anonymous": false,
      "inputs": [
        {
          "indexed": false,
          "internalType": "uint8",
          "name": "version",
          "type": "uint8"
        }
      ],
      "name": "Initialized",
      "type": "event"
    },
    {
      "anonymous": false,
      "inputs": [
        {
          "indexed": true,
          "internalType": "bytes32",
          "name": "jobId",
          "type": "bytes32"
        }
      ],
      "name": "JobClosed",
      "type": "event"
    },
    {
      "anonymous": false,
      "inputs": [
        {
          "indexed": true,
          "internalType": "bytes32",
          "name": "jobId",
          "type": "bytes32"
        },
        {
          "indexed": true,
          "internalType": "address",
          "name": "token",
          "type": "address"
        },
        {
          "indexed": true,
          "internalType": "address",
          "name": "from",
          "type": "address"
        },
        {
          "indexed": false,
          "internalType": "uint256",
          "name": "amount",
          "type": "uint256"
        }
      ],
      "name": "JobDeposited",
      "type": "event"
    },
    {
      "anonymous": false,
      "inputs": [
        {
          "indexed": true,
          "internalType": "bytes32",
          "name": "jobId",
          "type": "bytes32"
        },
        {
          "indexed": false,
          "internalType": "string",
          "name": "metadata",
          "type": "string"
        }
      ],
      "name": "JobMetadataUpdated",
      "type": "event"
    },
    {
      "anonymous": false,
      "inputs": [
        {
          "indexed": true,
          "internalType": "bytes32",
          "name": "jobId",
          "type": "bytes32"
        },
        {
          "indexed": false,
          "internalType": "string",
          "name": "metadata",
          "type": "string"
        },
        {
          "indexed": true,
          "internalType": "address",
          "name": "owner",
          "type": "address"
        },
        {
          "indexed": true,
          "internalType": "address",
          "name": "provider",
          "type": "address"
        }
      ],
      "name": "JobOpened",
      "type": "event"
    },
    {
      "anonymous": false,
      "inputs": [
        {
          "indexed": true,
          "internalType": "bytes32",
          "name": "jobId",
          "type": "bytes32"
        },
        {
          "indexed": false,
          "internalType": "uint256",
          "name": "newRate",
          "type": "uint256"
        }
      ],
      "name": "JobRateRevised",
      "type": "event"
    },
    {
      "anonymous": false,
      "inputs": [
        {
          "indexed": true,
          "internalType": "bytes32",
          "name": "jobId",
          "type": "bytes32"
        },
        {
          "indexed": false,
          "internalType": "uint256",
          "name": "lastSettled",
          "type": "uint256"
        }
      ],
      "name": "JobSettled",
      "type": "event"
    },
    {
      "anonymous": false,
      "inputs": [
        {
          "indexed": true,
          "internalType": "bytes32",
          "name": "jobId",
          "type": "bytes32"
        },
        {
          "indexed": true,
          "internalType": "address",
          "name": "token",
          "type": "address"
        },
        {
          "indexed": true,
          "internalType": "address",
          "name": "provider",
          "type": "address"
        },
        {
          "indexed": false,
          "internalType": "uint256",
          "name": "amount",
          "type": "uint256"
        }
      ],
      "name": "JobSettlementWithdrawn",
      "type": "event"
    },
    {
      "anonymous": false,
      "inputs": [
        {
          "indexed": true,
          "internalType": "bytes32",
          "name": "jobId",
          "type": "bytes32"
        },
        {
          "indexed": true,
          "internalType": "address",
          "name": "token",
          "type": "address"
        },
        {
          "indexed": true,
          "internalType": "address",
          "name": "to",
          "type": "address"
        },
        {
          "indexed": false,
          "internalType": "uint256",
          "name": "amount",
          "type": "uint256"
        }
      ],
      "name": "JobWithdrawn",
      "type": "event"
    },
    {
      "anonymous": false,
      "inputs": [
        {
          "indexed": true,
          "internalType": "bytes32",
          "name": "selector",
          "type": "bytes32"
        },
        {
          "indexed": true,
          "internalType": "bytes32",
          "name": "key",
          "type": "bytes32"
        },
        {
          "indexed": false,
          "internalType": "uint256",
          "name": "iValue",
          "type": "uint256"
        },
        {
          "indexed": false,
          "internalType": "uint256",
          "name": "unlockTime",
          "type": "uint256"
        }
      ],
      "name": "LockCreated",
      "type": "event"
    },
    {
      "anonymous": false,
      "inputs": [
        {
          "indexed": true,
          "internalType": "bytes32",
          "name": "selector",
          "type": "bytes32"
        },
        {
          "indexed": true,
          "internalType": "bytes32",
          "name": "key",
          "type": "bytes32"
        },
        {
          "indexed": false,
          "internalType": "uint256",
          "name": "iValue",
          "type": "uint256"
        }
      ],
      "name": "LockDeleted",
      "type": "event"
    },
    {
      "anonymous": false,
      "inputs": [
        {
          "indexed": true,
          "internalType": "bytes32",
          "name": "selector",
          "type": "bytes32"
        },
        {
          "indexed": false,
          "internalType": "uint256",
          "name": "prevLockTime",
          "type": "uint256"
        },
        {
          "indexed": false,
          "internalType": "uint256",
          "name": "updatedLockTime",
          "type": "uint256"
        }
      ],
      "name": "LockWaitTimeUpdated",
      "type": "event"
    },
    {
      "anonymous": false,
      "inputs": [
        {
          "indexed": false,
          "internalType": "uint256",
          "name": "noticePeriod",
          "type": "uint256"
        }
      ],
      "name": "NoticePeriodUpdated",
      "type": "event"
    },
    {
      "anonymous": false,
      "inputs": [
        {
          "indexed": true,
          "internalType": "address",
          "name": "provider",
          "type": "address"
        },
        {
          "indexed": false,
          "internalType": "string",
          "name": "cp",
          "type": "string"
        }
      ],
      "name": "ProviderAdded",
      "type": "event"
    },
    {
      "anonymous": false,
      "inputs": [
        {
          "indexed": true,
          "internalType": "address",
          "name": "provider",
          "type": "address"
        }
      ],
      "name": "ProviderRemoved",
      "type": "event"
    },
    {
      "anonymous": false,
      "inputs": [
        {
          "indexed": true,
          "internalType": "address",
          "name": "provider",
          "type": "address"
        },
        {
          "indexed": false,
          "internalType": "string",
          "name": "newCp",
          "type": "string"
        }
      ],
      "name": "ProviderUpdatedWithCp",
      "type": "event"
    },
    {
      "anonymous": false,
      "inputs": [
        {
          "indexed": true,
          "internalType": "bytes32",
          "name": "role",
          "type": "bytes32"
        },
        {
          "indexed": true,
          "internalType": "bytes32",
          "name": "previousAdminRole",
          "type": "bytes32"
        },
        {
          "indexed": true,
          "internalType": "bytes32",
          "name": "newAdminRole",
          "type": "bytes32"
        }
      ],
      "name": "RoleAdminChanged",
      "type": "event"
    },
    {
      "anonymous": false,
      "inputs": [
        {
          "indexed": true,
          "internalType": "bytes32",
          "name": "role",
          "type": "bytes32"
        },
        {
          "indexed": true,
          "internalType": "address",
          "name": "account",
          "type": "address"
        },
        {
          "indexed": true,
          "internalType": "address",
          "name": "sender",
          "type": "address"
        }
      ],
      "name": "RoleGranted",
      "type": "event"
    },
    {
      "anonymous": false,
      "inputs": [
        {
          "indexed": true,
          "internalType": "bytes32",
          "name": "role",
          "type": "bytes32"
        },
        {
          "indexed": true,
          "internalType": "address",
          "name": "account",
          "type": "address"
        },
        {
          "indexed": true,
          "internalType": "address",
          "name": "sender",
          "type": "address"
        }
      ],
      "name": "RoleRevoked",
      "type": "event"
    },
    {
      "anonymous": false,
      "inputs": [
        {
          "indexed": true,
          "internalType": "address",
          "name": "oldToken",
          "type": "address"
        },
        {
          "indexed": true,
          "internalType": "address",
          "name": "newToken",
          "type": "address"
        }
      ],
      "name": "TokenUpdated",
      "type": "event"
    },
    {
      "anonymous": false,
      "inputs": [
        {
          "indexed": true,
          "internalType": "address",
          "name": "implementation",
          "type": "address"
        }
      ],
      "name": "Upgraded",
      "type": "event"
    },
    {
      "inputs": [],
      "name": "DEFAULT_ADMIN_ROLE",
      "outputs": [
        {
          "internalType": "bytes32",
          "name": "",
          "type": "bytes32"
        }
      ],
      "stateMutability": "view",
      "type": "function"
    },
    {
      "inputs": [],
      "name": "EMERGENCY_WITHDRAW_ROLE",
      "outputs": [
        {
          "internalType": "bytes32",
          "name": "",
          "type": "bytes32"
        }
      ],
      "stateMutability": "view",
      "type": "function"
    },
    {
      "inputs": [],
      "name": "EXTRA_DECIMALS",
      "outputs": [
        {
          "internalType": "uint256",
          "name": "",
          "type": "uint256"
        }
      ],
      "stateMutability": "view",
      "type": "function"
    },
    {
      "inputs": [],
      "name": "RATE_LOCK_SELECTOR",
      "outputs": [
        {
          "internalType": "bytes32",
          "name": "",
          "type": "bytes32"
        }
      ],
      "stateMutability": "view",
      "type": "function"
    },
    {
      "inputs": [],
      "name": "creditToken",
      "outputs": [
        {
          "internalType": "contract IERC20",
          "name": "",
          "type": "address"
        }
      ],
      "stateMutability": "view",
      "type": "function"
    },
    {
      "inputs": [
        {
          "internalType": "address",
          "name": "_token",
          "type": "address"
        },
        {
          "internalType": "address",
          "name": "_to",
          "type": "address"
        },
        {
          "internalType": "uint256",
          "name": "_amount",
          "type": "uint256"
        }
      ],
      "name": "emergencyWithdraw",
      "outputs": [],
      "stateMutability": "nonpayable",
      "type": "function"
    },
    {
      "inputs": [
        {
          "internalType": "bytes32",
          "name": "role",
          "type": "bytes32"
        }
      ],
      "name": "getRoleAdmin",
      "outputs": [
        {
          "internalType": "bytes32",
          "name": "",
          "type": "bytes32"
        }
      ],
      "stateMutability": "view",
      "type": "function"
    },
    {
      "inputs": [
        {
          "internalType": "bytes32",
          "name": "role",
          "type": "bytes32"
        },
        {
          "internalType": "uint256",
          "name": "index",
          "type": "uint256"
        }
      ],
      "name": "getRoleMember",
      "outputs": [
        {
          "internalType": "address",
          "name": "",
          "type": "address"
        }
      ],
      "stateMutability": "view",
      "type": "function"
    },
    {
      "inputs": [
        {
          "internalType": "bytes32",
          "name": "role",
          "type": "bytes32"
        }
      ],
      "name": "getRoleMemberCount",
      "outputs": [
        {
          "internalType": "uint256",
          "name": "",
          "type": "uint256"
        }
      ],
      "stateMutability": "view",
      "type": "function"
    },
    {
      "inputs": [
        {
          "internalType": "bytes32",
          "name": "role",
          "type": "bytes32"
        },
        {
          "internalType": "address",
          "name": "account",
          "type": "address"
        }
      ],
      "name": "grantRole",
      "outputs": [],
      "stateMutability": "nonpayable",
      "type": "function"
    },
    {
      "inputs": [
        {
          "internalType": "bytes32",
          "name": "role",
          "type": "bytes32"
        },
        {
          "internalType": "address",
          "name": "account",
          "type": "address"
        }
      ],
      "name": "hasRole",
      "outputs": [
        {
          "internalType": "bool",
          "name": "",
          "type": "bool"
        }
      ],
      "stateMutability": "view",
      "type": "function"
    },
    {
      "inputs": [
        {
          "internalType": "address",
          "name": "_admin",
          "type": "address"
        },
        {
          "internalType": "address",
          "name": "_token",
          "type": "address"
        },
        {
          "internalType": "bytes32[]",
          "name": "_selectors",
          "type": "bytes32[]"
        },
        {
          "internalType": "uint256[]",
          "name": "_lockWaitTimes",
          "type": "uint256[]"
        }
      ],
      "name": "initialize",
      "outputs": [],
      "stateMutability": "nonpayable",
      "type": "function"
    },
    {
      "inputs": [
        {
          "internalType": "bytes32",
          "name": "_jobId",
          "type": "bytes32"
        }
      ],
      "name": "jobClose",
      "outputs": [],
      "stateMutability": "nonpayable",
      "type": "function"
    },
    {
      "inputs": [
        {
          "internalType": "bytes32",
          "name": "",
          "type": "bytes32"
        }
      ],
      "name": "jobCreditBalance",
      "outputs": [
        {
          "internalType": "uint256",
          "name": "",
          "type": "uint256"
        }
      ],
      "stateMutability": "view",
      "type": "function"
    },
    {
      "inputs": [
        {
          "internalType": "bytes32",
          "name": "_jobId",
          "type": "bytes32"
        },
        {
          "internalType": "uint256",
          "name": "_amount",
          "type": "uint256"
        }
      ],
      "name": "jobDeposit",
      "outputs": [],
      "stateMutability": "nonpayable",
      "type": "function"
    },
    {
      "inputs": [],
      "name": "jobIndex",
      "outputs": [
        {
          "internalType": "bytes32",
          "name": "",
          "type": "bytes32"
        }
      ],
      "stateMutability": "view",
      "type": "function"
    },
    {
      "inputs": [
        {
          "internalType": "bytes32",
          "name": "_jobId",
          "type": "bytes32"
        },
        {
          "internalType": "string",
          "name": "_metadata",
          "type": "string"
        }
      ],
      "name": "jobMetadataUpdate",
      "outputs": [],
      "stateMutability": "nonpayable",
      "type": "function"
    },
    {
      "inputs": [
        {
          "internalType": "string",
          "name": "_metadata",
          "type": "string"
        },
        {
          "internalType": "address",
          "name": "_provider",
          "type": "address"
        },
        {
          "internalType": "uint256",
          "name": "_rate",
          "type": "uint256"
        },
        {
          "internalType": "uint256",
          "name": "_balance",
          "type": "uint256"
        }
      ],
      "name": "jobOpen",
      "outputs": [],
      "stateMutability": "nonpayable",
      "type": "function"
    },
    {
      "inputs": [
        {
          "internalType": "bytes32",
          "name": "_jobId",
          "type": "bytes32"
        },
        {
          "internalType": "uint256",
          "name": "_newRate",
          "type": "uint256"
        }
      ],
      "name": "jobReviseRate",
      "outputs": [],
      "stateMutability": "nonpayable",
      "type": "function"
    },
    {
      "inputs": [
        {
          "internalType": "bytes32",
          "name": "_jobId",
          "type": "bytes32"
        }
      ],
      "name": "jobSettle",
      "outputs": [],
      "stateMutability": "nonpayable",
      "type": "function"
    },
    {
      "inputs": [
        {
          "internalType": "bytes32",
          "name": "_jobId",
          "type": "bytes32"
        },
        {
          "internalType": "uint256",
          "name": "_amount",
          "type": "uint256"
        }
      ],
      "name": "jobWithdraw",
      "outputs": [],
      "stateMutability": "nonpayable",
      "type": "function"
    },
    {
      "inputs": [
        {
          "internalType": "bytes32",
          "name": "",
          "type": "bytes32"
        }
      ],
      "name": "jobs",
      "outputs": [
        {
          "internalType": "string",
          "name": "metadata",
          "type": "string"
        },
        {
          "internalType": "address",
          "name": "owner",
          "type": "address"
        },
        {
          "internalType": "address",
          "name": "provider",
          "type": "address"
        },
        {
          "internalType": "uint256",
          "name": "rate",
          "type": "uint256"
        },
        {
          "internalType": "uint256",
          "name": "balance",
          "type": "uint256"
        },
        {
          "internalType": "uint256",
          "name": "lastSettled",
          "type": "uint256"
        }
      ],
      "stateMutability": "view",
      "type": "function"
    },
    {
      "inputs": [
        {
          "internalType": "bytes32",
          "name": "",
          "type": "bytes32"
        }
      ],
      "name": "lockWaitTime",
      "outputs": [
        {
          "internalType": "uint256",
          "name": "",
          "type": "uint256"
        }
      ],
      "stateMutability": "view",
      "type": "function"
    },
    {
      "inputs": [
        {
          "internalType": "bytes32",
          "name": "",
          "type": "bytes32"
        }
      ],
      "name": "locks",
      "outputs": [
        {
          "internalType": "uint256",
          "name": "unlockTime",
          "type": "uint256"
        },
        {
          "internalType": "uint256",
          "name": "iValue",
          "type": "uint256"
        }
      ],
      "stateMutability": "view",
      "type": "function"
    },
    {
      "inputs": [],
      "name": "noticePeriod",
      "outputs": [
        {
          "internalType": "uint256",
          "name": "",
          "type": "uint256"
        }
      ],
      "stateMutability": "view",
      "type": "function"
    },
    {
      "inputs": [
        {
          "internalType": "string",
          "name": "_cp",
          "type": "string"
        }
      ],
      "name": "providerAdd",
      "outputs": [],
      "stateMutability": "nonpayable",
      "type": "function"
    },
    {
      "inputs": [],
      "name": "providerRemove",
      "outputs": [],
      "stateMutability": "nonpayable",
      "type": "function"
    },
    {
      "inputs": [
        {
          "internalType": "string",
          "name": "_cp",
          "type": "string"
        }
      ],
      "name": "providerUpdateWithCp",
      "outputs": [],
      "stateMutability": "nonpayable",
      "type": "function"
    },
    {
      "inputs": [
        {
          "internalType": "address",
          "name": "",
          "type": "address"
        }
      ],
      "name": "providers",
      "outputs": [
        {
          "internalType": "string",
          "name": "cp",
          "type": "string"
        }
      ],
      "stateMutability": "view",
      "type": "function"
    },
    {
      "inputs": [],
      "name": "proxiableUUID",
      "outputs": [
        {
          "internalType": "bytes32",
          "name": "",
          "type": "bytes32"
        }
      ],
      "stateMutability": "view",
      "type": "function"
    },
    {
      "inputs": [
        {
          "internalType": "uint256",
          "name": "_noticePeriod",
          "type": "uint256"
        },
        {
          "internalType": "address",
          "name": "_creditToken",
          "type": "address"
        }
      ],
      "name": "reinitialize",
      "outputs": [],
      "stateMutability": "nonpayable",
      "type": "function"
    },
    {
      "inputs": [
        {
          "internalType": "bytes32",
          "name": "role",
          "type": "bytes32"
        },
        {
          "internalType": "address",
          "name": "account",
          "type": "address"
        }
      ],
      "name": "renounceRole",
      "outputs": [],
      "stateMutability": "nonpayable",
      "type": "function"
    },
    {
      "inputs": [
        {
          "internalType": "bytes32",
          "name": "role",
          "type": "bytes32"
        },
        {
          "internalType": "address",
          "name": "account",
          "type": "address"
        }
      ],
      "name": "revokeRole",
      "outputs": [],
      "stateMutability": "nonpayable",
      "type": "function"
    },
    {
      "inputs": [
        {
          "internalType": "bytes4",
          "name": "interfaceId",
          "type": "bytes4"
        }
      ],
      "name": "supportsInterface",
      "outputs": [
        {
          "internalType": "bool",
          "name": "",
          "type": "bool"
        }
      ],
      "stateMutability": "view",
      "type": "function"
    },
    {
      "inputs": [],
      "name": "token",
      "outputs": [
        {
          "internalType": "contract IERC20",
          "name": "",
          "type": "address"
        }
      ],
      "stateMutability": "view",
      "type": "function"
    },
    {
      "inputs": [
        {
          "internalType": "address",
          "name": "_creditToken",
          "type": "address"
        }
      ],
      "name": "updateCreditToken",
      "outputs": [],
      "stateMutability": "nonpayable",
      "type": "function"
    },
    {
      "inputs": [
        {
          "internalType": "uint256",
          "name": "_noticePeriod",
          "type": "uint256"
        }
      ],
      "name": "updateNoticePeriod",
      "outputs": [],
      "stateMutability": "nonpayable",
      "type": "function"
    },
    {
      "inputs": [
        {
          "internalType": "address",
          "name": "_token",
          "type": "address"
        }
      ],
      "name": "updateToken",
      "outputs": [],
      "stateMutability": "nonpayable",
      "type": "function"
    },
    {
      "inputs": [
        {
          "internalType": "address",
          "name": "newImplementation",
          "type": "address"
        }
      ],
      "name": "upgradeTo",
      "outputs": [],
      "stateMutability": "nonpayable",
      "type": "function"
    },
    {
      "inputs": [
        {
          "internalType": "address",
          "name": "newImplementation",
          "type": "address"
        },
        {
          "internalType": "bytes",
          "name": "data",
          "type": "bytes"
        }
      ],
      "name": "upgradeToAndCall",
      "outputs": [],
      "stateMutability": "payable",
      "type": "function"
    }
  ],
  "bytecode": "0x60a08060405234610136573060805260005460ff8160081c161591828093610129575b8015610112575b156100b9575060ff198116600117600055816100a7575b5061006c575b604051613eb8908161013c8239608051818181610db201528181610fd201526115610152f35b61ff0019600054166000557f7f26b83ff96e1f2b6a682f133852f6798a09c465da95921460cefb3847402498602060405160018152a1610046565b61ffff19166101011760005538610040565b62461bcd60e51b815260206004820152602e60248201527f496e697469616c697a61626c653a20636f6e747261637420697320616c72656160448201526d191e481a5b9a5d1a585b1a5e995960921b6064820152608490fd5b50303b1580156100295750600160ff831614610029565b50600160ff831610610022565b600080fdfe608080604052600436101561001357600080fd5b60003560e01c90816301ffc9a714612207575080630787bc27146121b45780631ca1120914611d7d5780631f60d4a114611d1a5780632262821a14611a4f578063248a9ca314611a1a5780632f2ff15d14611913578063316c48d2146118e657806336568abe146118475780633659cfe61461153b57806338ed7cfc146114ac57806348ad85721461147f5780634a4f238b146112d75780634f1ef28614610f805780634f31ad9d14610e6c57806352d1902d14610d975780635512a3df14610c575780635622fd9014610c1c5780635c1333e614610bc05780637ad3def214610b64578063842c3d6014610aae578063899e5d8514610a865780638cb497e6146107ee5780638e7bb99d146106dc5780639010d07c1461069f57806391d1485414610651578063974bf8d6146105fa5780639b14d4c6146105db578063a217fddf146105bf578063b7772818146105a0578063ca15c87314610574578063cce195b814610491578063d49fbd731461041f578063d547741f146103da578063dc3e083014610383578063e41e716014610348578063e63ea40814610256578063ed5e843714610220578063f47b3a17146102045763fc0c546a146101d757600080fd5b346101ff5760006003193601126101ff5760206001600160a01b036103b95416604051908152f35b600080fd5b346101ff5760006003193601126101ff576020604051600c8152f35b346101ff5760206003193601126101ff5760043560005261012d6020526040806000206001815491015482519182526020820152f35b346101ff5760606003193601126101ff5761026f6122d8565b6102776122ee565b3360009081527fffdfc1249c027f9191656349feb0761381bb32c9f557e01f419fd08754bf5a1b60205260409020549091906102b59060ff1661275b565b3360009081527f0c2290b178333b9e91c2bedbee86166fc0702e25a3a228dacfc6f9cc25e31030602052604090205460ff161561030457610302916001600160a01b036044359216613117565b005b606460405162461bcd60e51b815260206004820152601f60248201527f6f6e6c7920746f20656d657267656e637920776974686472617720726f6c65006044820152fd5b346101ff5760006003193601126101ff5760206040517fbb00c34f1a27e23493f1bd516e88ec0af9b091cc990f207e765f5bd5af0122438152f35b346101ff5760206003193601126101ff57610302600435806000526103b76020526103c06001600160a01b036001604060002001541615156125e3565b806000526103b760205260036040600020015442916131c1565b346101ff5760406003193601126101ff576103026004356103f96122ee565b9061041a61041582600052606560205260016040600020015490565b612b36565b612e54565b346101ff5760006003193601126101ff573360005261038560205261045261044b604060002054612304565b1515613032565b3360005261038560205261046960406000206130c8565b337f1589f8555933761a3cff8aa925061be3b46e2dd43f621322ab611d300f62b1d9600080a2005b346101ff5761049f3661249c565b816000526103b76020526104c56001600160a01b036001604060002001541615156125e3565b816000526103b76020526104eb6001600160a01b0360016040600020015416331461262e565b6104f681151561307d565b816000526103b76020526105206003604060002001546105196103ba5442612878565b90846131c1565b1561053057610302913390613858565b606460405162461bcd60e51b815260206004820152601e60248201527f696e73756666696369656e742066756e647320746f20776974686472617700006044820152fd5b346101ff5760206003193601126101ff5760043560005260976020526020604060002054604051908152f35b346101ff5760006003193601126101ff5760206103b854604051908152f35b346101ff5760006003193601126101ff57602060405160008152f35b346101ff5760006003193601126101ff5760206103ba54604051908152f35b346101ff5760206003193601126101ff573360009081527fffdfc1249c027f9191656349feb0761381bb32c9f557e01f419fd08754bf5a1b60205260409020546106469060ff1661275b565b610302600435612f9f565b346101ff5760406003193601126101ff5761066a6122ee565b60043560005260656020526001600160a01b0360406000209116600052602052602060ff604060002054166040519015158152f35b346101ff5760206001600160a01b036106cc6106ba3661249c565b90600052609784526040600020613ad6565b90549060031b1c16604051908152f35b346101ff5760206003193601126101ff57600435806000526103b76020526107166001600160a01b036001604060002001541615156125e3565b806000526103b760205261073c6001600160a01b0360016040600020015416331461262e565b806000526103b760205261076660036040600020015461075f6103ba5442612878565b90836131c1565b50806000526103b7602052600460406000200154806107dd575b50806000526103b7602052600060056040822061079c816130c8565b82600182015582600282015582600382015582600482015501557f87c6cc8269aa1e8b05794139b53e072d0cdd15e8bc266fb1fca4028003a7d98c600080a2005b6107e8903383613858565b81610780565b346101ff5760406003193601126101ff5760043560243567ffffffffffffffff81116101ff576108229036906004016124b2565b826000939293526103b760205261084b6001600160a01b036001604060002001541615156125e3565b816000526103b76020526108716001600160a01b0360016040600020015416331461262e565b816000526103b7602052610888604060002061237a565b6040516108b6602082816108a5818301968781519384920161243c565b81010301601f198101835282612357565b5190206040516020810190838683376108e36020828681016000838201520301601f198101835282612357565b51902014610a4257816000526103b760205260406000209267ffffffffffffffff8211610a135761091e826109188654612304565b86612ac9565b600093601f83116001146109915761096f83807fa24ecd736bba25f4e473a4b5b4e2bb685cd0ccfc87ac332fc4079943e870d59b9697600091610986575b506000198260011b9260031b1c19161790565b90555b61098160405192839283612b0e565b0390a2005b90508401358861095c565b80855260208520601f19841695805b8781106109fb5750847fa24ecd736bba25f4e473a4b5b4e2bb685cd0ccfc87ac332fc4079943e870d59b9697106109e1575b5050600183811b019055610972565b60001960f88660031b161c199084013516905585806109d2565b909160206001819285880135815501930191016109a0565b7f4e487b7100000000000000000000000000000000000000000000000000000000600052604160045260246000fd5b606460405162461bcd60e51b815260206004820152601860248201527f6d6574616461746120686173206e6f74206368616e67656400000000000000006044820152fd5b346101ff5760006003193601126101ff5760206001600160a01b036103ea5416604051908152f35b346101ff57610abc3661249c565b816000526103b7602052610ae26001600160a01b036001604060002001541615156125e3565b610aed81151561307d565b816000526103b7602052610b106003604060002001546105196103ba5442612878565b15610b2057610302913390613521565b606460405162461bcd60e51b815260206004820152601d60248201527f696e73756666696369656e742066756e647320746f206465706f7369740000006044820152fd5b346101ff5760206003193601126101ff57610302610b806122d8565b3360009081527fffdfc1249c027f9191656349feb0761381bb32c9f557e01f419fd08754bf5a1b6020526040902054610bbb9060ff1661275b565b612817565b346101ff5760206003193601126101ff57610302610bdc6122d8565b3360009081527fffdfc1249c027f9191656349feb0761381bb32c9f557e01f419fd08754bf5a1b6020526040902054610c179060ff1661275b565b612fd1565b346101ff5760006003193601126101ff5760206040517f66f144ecd65ad16d38ecdba8687842af4bc05fde66fe3d999569a3006349785f8152f35b346101ff57610c6536612533565b33600052610385602052610c8061044b604060002054612304565b610c8c81511515612f54565b336000526103856020526040600020815167ffffffffffffffff8111610a1357610cc081610cba8454612304565b84612ac9565b6020601f8211600114610d33579080610ced92600091610d2857506000198260011b9260031b1c19161790565b90555b7f16aa293866804eb57e17688cdf865583ca3ea47890988b4854569cc4e8d62b5b60405160208152806109813394602083019061245f565b90508401518561095c565b601f1982169083600052806000209160005b818110610d7f57509083600194939210610d66575b5050811b019055610cf0565b85015160001960f88460031b161c191690558480610d5a565b9192602060018192868a015181550194019201610d45565b346101ff5760006003193601126101ff576001600160a01b037f0000000000000000000000000000000000000000000000000000000000000000163003610e025760206040517f360894a13ba1a3210667c828492db98dca3e2076cc3735a920a3ca505d382bbc8152f35b608460405162461bcd60e51b815260206004820152603860248201527f555550535570677261646561626c653a206d757374206e6f742062652063616c60448201527f6c6564207468726f7567682064656c656761746563616c6c00000000000000006064820152fd5b346101ff5760406003193601126101ff57610f1e610e886122ee565b3360009081527fffdfc1249c027f9191656349feb0761381bb32c9f557e01f419fd08754bf5a1b6020526040902054610ec39060ff1661275b565b6101027fffffffffffffffffffffffffffffffffffffffffffffffffffffffffffff000060005460ff8160081c161580610f73575b610f0190612572565b16176000556103b8544660c01b176103b855610c17600435612f9f565b7fffffffffffffffffffffffffffffffffffffffffffffffffffffffffffff00ff600054166000557f7f26b83ff96e1f2b6a682f133852f6798a09c465da95921460cefb3847402498602060405160028152a1005b50600260ff821610610ef8565b60406003193601126101ff57610f946122d8565b60243567ffffffffffffffff81116101ff57366023820112156101ff57610fc59036906024816004013591016124fc565b61102f6001600160a01b037f000000000000000000000000000000000000000000000000000000000000000016610ffe81301415612679565b6001600160a01b037f360894a13ba1a3210667c828492db98dca3e2076cc3735a920a3ca505d382bbc5416146126ea565b3360009081527fffdfc1249c027f9191656349feb0761381bb32c9f557e01f419fd08754bf5a1b602052604090205461106a9060ff1661275b565b7f4910fdfa16fed3260ed0e7147f7cc6da11a60208b5b9406d12a635614ffd91435460ff161561109e575061030290613775565b6001600160a01b0382166040517f52d1902d000000000000000000000000000000000000000000000000000000008152602081600481855afa600091816112a3575b5061114f57608460405162461bcd60e51b815260206004820152602e60248201527f45524331393637557067726164653a206e657720696d706c656d656e7461746960448201527f6f6e206973206e6f7420555550530000000000000000000000000000000000006064820152fd5b7f360894a13ba1a3210667c828492db98dca3e2076cc3735a920a3ca505d382bbc036112395761117e83613775565b7fbc7cd75a20ee27fd9adebab32041f755214dbc6bffa90cc0225b39da2e5c2d3b600080a2805115801590611231575b6111b457005b61030291600080604051936111ca606086612357565b602785527f416464726573733a206c6f772d6c6576656c2064656c65676174652063616c6c60208601527f206661696c6564000000000000000000000000000000000000000000000000006040860152602081519101845af461122b613dba565b91613dea565b5060016111ae565b608460405162461bcd60e51b815260206004820152602960248201527f45524331393637557067726164653a20756e737570706f727465642070726f7860448201527f6961626c655555494400000000000000000000000000000000000000000000006064820152fd5b9091506020813d6020116112cf575b816112bf60209383612357565b810103126101ff575190856110e0565b3d91506112b2565b346101ff576112e536612533565b336000526103856020526112fd604060002054612304565b61143b5761130d81511515612f54565b604051906020820182811067ffffffffffffffff821117610a1357604052808252336000526103856020526040600020915191825167ffffffffffffffff8111610a135761135f81610cba8454612304565b6020601f82116001146113d65781906113909394956000926113cb575b50506000198260011b9260031b1c19161790565b90555b7f685b3f0c2702c8946b2f7fcfbc7ad4802d34b86a128adc5b5fb99570d27f535760405160208152806109813394602083019061245f565b01519050858061137c565b601f1982169083600052806000209160005b8181106114235750958360019596971061140a575b505050811b019055611393565b015160001960f88460031b161c191690558480806113fd565b9192602060018192868b0151815501940192016113e8565b606460405162461bcd60e51b815260206004820152600e60248201527f616c7265616479206578697374730000000000000000000000000000000000006044820152fd5b346101ff5760206003193601126101ff5760043560005261012e6020526020604060002054604051908152f35b346101ff5760206003193601126101ff576004356000526103b760205261151d60406000206114da8161237a565b906001600160a01b03600182015416906001600160a01b03600282015416906003810154600560048301549201549260405196879660c0885260c088019061245f565b94602087015260408601526060850152608084015260a08301520390f35b346101ff5760206003193601126101ff576115546122d8565b61158d6001600160a01b037f000000000000000000000000000000000000000000000000000000000000000016610ffe81301415612679565b3360009081527fffdfc1249c027f9191656349feb0761381bb32c9f557e01f419fd08754bf5a1b60205260409020546115c89060ff1661275b565b6040519060206115d88184612357565b60008352808301601f1982013682377f4910fdfa16fed3260ed0e7147f7cc6da11a60208b5b9406d12a635614ffd91435460ff161561161d5750506103029150613775565b6001600160a01b03839293166040517f52d1902d0000000000000000000000000000000000000000000000000000000081528481600481855afa60009181611818575b506116cf576084856040519062461bcd60e51b82526004820152602e60248201527f45524331393637557067726164653a206e657720696d706c656d656e7461746960448201527f6f6e206973206e6f7420555550530000000000000000000000000000000000006064820152fd5b7f360894a13ba1a3210667c828492db98dca3e2076cc3735a920a3ca505d382bbc036117ae576116fe83613775565b7fbc7cd75a20ee27fd9adebab32041f755214dbc6bffa90cc0225b39da2e5c2d3b600080a28351158015906117a6575b61173457005b60008091610302957f416464726573733a206c6f772d6c6576656c2064656c65676174652063616c6c6040519661176c606089612357565b602788528701527f206661696c65640000000000000000000000000000000000000000000000000060408701525190845af461122b613dba565b50600061172e565b6084846040519062461bcd60e51b82526004820152602960248201527f45524331393637557067726164653a20756e737570706f727465642070726f7860448201527f6961626c655555494400000000000000000000000000000000000000000000006064820152fd5b9091508581813d8311611840575b6118308183612357565b810103126101ff57519087611660565b503d611826565b346101ff5760406003193601126101ff576118606122ee565b336001600160a01b0382160361187c5761030290600435612e54565b608460405162461bcd60e51b815260206004820152602f60248201527f416363657373436f6e74726f6c3a2063616e206f6e6c792072656e6f756e636560448201527f20726f6c657320666f722073656c6600000000000000000000000000000000006064820152fd5b346101ff5760206003193601126101ff576004356000526103e96020526020604060002054604051908152f35b346101ff5760406003193601126101ff576103026004356119326122ee565b9061194e61041582600052606560205260016040600020015490565b80600052606560205260406000206001600160a01b03831660005260205260ff6040600020541615611998575b60005260976020526001600160a01b036040600020911690613c59565b80600052606560205260406000206001600160a01b038316600052602052604060002060017fffffffffffffffffffffffffffffffffffffffffffffffffffffffffffffff00825416179055336001600160a01b038316827f2f8788117e7eff1d82e926ec794901d17c78024a50270940304540a733656f0d600080a461197b565b346101ff5760206003193601126101ff576020611a47600435600052606560205260016040600020015490565b604051908152f35b346101ff5760806003193601126101ff5760043567ffffffffffffffff81116101ff57611a809036906004016124b2565b90611a896122ee565b6103b8549160018301808411611ceb576103b8556040519360c0850185811067ffffffffffffffff821117610a1357604052611ac63682846124fc565b855260208501943386526001600160a01b0360408201941693848152606082016000815260808301906000825260a0840192428452886000526103b76020526040600020945180519067ffffffffffffffff8211610a1357611b3282611b2c8954612304565b89612ac9565b602090601f8311600114611c4957936001600160a01b03600594816103029f8f9c999587611c259c98611b9d927f696b22512bbe07c21f31472ed10c94a32346556ce9d75f2ecf46c71e5a81cd8c9f9c600092611c3e5750506000198260011b9260031b1c19161790565b89555b5116826001890191167fffffffffffffffffffffffff000000000000000000000000000000000000000082541617905551166001600160a01b036002870191167fffffffffffffffffffffffff000000000000000000000000000000000000000082541617905551600385015551600484015551910155604051918291339683612b0e565b0390a4611c356064353383613521565b60443590612885565b01519050388061137c565b90601f1983169188600052816000209260005b818110611cd35750946001600160a01b036103029f8f9c9995876001917f696b22512bbe07c21f31472ed10c94a32346556ce9d75f2ecf46c71e5a81cd8c9e9b978597611c259f9b60059d10611cba575b505050811b018955611ba0565b015160001960f88460031b161c19169055388080611cad565b92936020600181928786015181550195019301611c5c565b7f4e487b7100000000000000000000000000000000000000000000000000000000600052601160045260246000fd5b346101ff57610302611d2b3661249c565b90806000526103b7602052611d526001600160a01b036001604060002001541615156125e3565b806000526103b7602052611d786001600160a01b0360016040600020015416331461262e565b612885565b346101ff5760806003193601126101ff57611d966122d8565b611d9e6122ee565b906044359167ffffffffffffffff83116101ff57366023840112156101ff57826004013592611dcc84612484565b93611dda6040519586612357565b8085526024602086019160051b830101913683116101ff57602401905b8282106121a4575050506064359067ffffffffffffffff82116101ff57366023830112156101ff57816004013591611e2e83612484565b92611e3c6040519485612357565b8084526024602085019160051b830101913683116101ff57602401905b828210612194575050506000549060ff8260081c161591828093612187575b8015612170575b611e8890612572565b8260017fffffffffffffffffffffffffffffffffffffffffffffffffffffffffffffff00831617600055612141575b5084518351036101ff57611f0860ff60005460081c16611ed6816127a6565b611edf816127a6565b611ee8816127a6565b611ef1816127a6565b611efa816127a6565b611f03816127a6565b6127a6565b84518351036120fd5760005b8551811015611f8b5780611f2a60019288613171565b51611f358287613171565b51908060005261012e602052807f21a54b9df4e6fa389ce6d626ac659fe37069cae439958c382c427376f9fe5e4c604080600020548151908152856020820152a260005261012e60205260406000205501611f14565b506001600160a01b03841660009081527fffdfc1249c027f9191656349feb0761381bb32c9f557e01f419fd08754bf5a1b6020526040902054612016919061201090869060ff1615612071575b6000805260976020526001600160a01b03167f683723e34a772b6e4f2c919bba7fa32ed8ea11a8325f54da7db716e9d9dd98c7613c59565b50612817565b61201c57005b7fffffffffffffffffffffffffffffffffffffffffffffffffffffffffffff00ff600054166000557f7f26b83ff96e1f2b6a682f133852f6798a09c465da95921460cefb3847402498602060405160018152a1005b6001600160a01b03811660008181527fffdfc1249c027f9191656349feb0761381bb32c9f557e01f419fd08754bf5a1b6020526040812080547fffffffffffffffffffffffffffffffffffffffffffffffffffffffffffffff001660011790553391907f2f8788117e7eff1d82e926ec794901d17c78024a50270940304540a733656f0d8180a4611fd8565b606460405162461bcd60e51b815260206004820152601560248201527f4c6f636b3a206c656e677468206d69736d6174636800000000000000000000006044820152fd5b7fffffffffffffffffffffffffffffffffffffffffffffffffffffffffffff0000166101011760005585611eb7565b50303b158015611e7f575060ff8116600114611e7f565b50600160ff821610611e78565b8135815260209182019101611e59565b8135815260209182019101611df7565b346101ff5760206003193601126101ff576001600160a01b036121d56122d8565b166000526103856020526122036121ef604060002061237a565b60405191829160208352602083019061245f565b0390f35b346101ff5760206003193601126101ff57600435907fffffffff0000000000000000000000000000000000000000000000000000000082168092036101ff57817f5a05180f000000000000000000000000000000000000000000000000000000006020931490811561227b575b5015158152f35b7f7965db0b000000000000000000000000000000000000000000000000000000008114915081156122ae575b5083612274565b7f01ffc9a700000000000000000000000000000000000000000000000000000000915014836122a7565b600435906001600160a01b03821682036101ff57565b602435906001600160a01b03821682036101ff57565b90600182811c9216801561234d575b602083101461231e57565b7f4e487b7100000000000000000000000000000000000000000000000000000000600052602260045260246000fd5b91607f1691612313565b90601f601f19910116810190811067ffffffffffffffff821117610a1357604052565b906040519182600082549261238e84612304565b80845293600181169081156123fc57506001146123b5575b506123b392500383612357565b565b90506000929192526020600020906000915b8183106123e05750509060206123b392820101386123a6565b60209193508060019154838589010152019101909184926123c7565b602093506123b39592507fffffffffffffffffffffffffffffffffffffffffffffffffffffffffffffff0091501682840152151560051b820101386123a6565b60005b83811061244f5750506000910152565b818101518382015260200161243f565b90601f19601f60209361247d8151809281875287808801910161243c565b0116010190565b67ffffffffffffffff8111610a135760051b60200190565b60031960409101126101ff576004359060243590565b9181601f840112156101ff5782359167ffffffffffffffff83116101ff57602083818601950101116101ff57565b67ffffffffffffffff8111610a1357601f01601f191660200190565b929192612508826124e0565b916125166040519384612357565b8294818452818301116101ff578281602093846000960137010152565b60206003198201126101ff576004359067ffffffffffffffff82116101ff57806023830112156101ff5781602461256f936004013591016124fc565b90565b1561257957565b608460405162461bcd60e51b815260206004820152602e60248201527f496e697469616c697a61626c653a20636f6e747261637420697320616c72656160448201527f647920696e697469616c697a65640000000000000000000000000000000000006064820152fd5b156125ea57565b606460405162461bcd60e51b815260206004820152600d60248201527f6a6f62206e6f7420666f756e64000000000000000000000000000000000000006044820152fd5b1561263557565b606460405162461bcd60e51b815260206004820152600e60248201527f6f6e6c79206a6f62206f776e65720000000000000000000000000000000000006044820152fd5b1561268057565b608460405162461bcd60e51b815260206004820152602c60248201527f46756e6374696f6e206d7573742062652063616c6c6564207468726f7567682060448201527f64656c656761746563616c6c00000000000000000000000000000000000000006064820152fd5b156126f157565b608460405162461bcd60e51b815260206004820152602c60248201527f46756e6374696f6e206d7573742062652063616c6c6564207468726f7567682060448201527f6163746976652070726f787900000000000000000000000000000000000000006064820152fd5b1561276257565b606460405162461bcd60e51b815260206004820152600a60248201527f6f6e6c792061646d696e000000000000000000000000000000000000000000006044820152fd5b156127ad57565b608460405162461bcd60e51b815260206004820152602b60248201527f496e697469616c697a61626c653a20636f6e7472616374206973206e6f74206960448201527f6e697469616c697a696e670000000000000000000000000000000000000000006064820152fd5b6001600160a01b03806103b954921691827fffffffffffffffffffffffff00000000000000000000000000000000000000008216176103b955167f0b1186973f810894b87ab0bfbee422fddcaad21b46dc705a561451bbb6bac117600080a3565b91908201809211611ceb57565b8115612a6e57806000526103b76020528160036040600020015414612a2a57806000526103b7602052600560406000200154421161299f575b60008181526103b760209081526040918290206003018054908590559151848152612927949184917fe3395cd22fe77c10b3c5e578653d7a91c811426f8df4dae23240d7c2b078e1df9190a28082111561299857505b6129216103ba5442612878565b916131c1565b1561292e57565b608460405162461bcd60e51b815260206004820152602160248201527f696e73756666696369656e742066756e647320746f207265766973652072617460448201527f65000000000000000000000000000000000000000000000000000000000000006064820152fd5b9050612914565b806000526103b76020526129bc42600360406000200154836131c1565b6128be57608460405162461bcd60e51b815260206004820152603160248201527f696e73756666696369656e742066756e647320746f20736574746c652062656660448201527f6f7265207265766973696e6720726174650000000000000000000000000000006064820152fd5b606460405162461bcd60e51b815260206004820152601460248201527f7261746520686173206e6f74206368616e6765640000000000000000000000006044820152fd5b606460405162461bcd60e51b815260206004820152600c60248201527f696e76616c6964207261746500000000000000000000000000000000000000006044820152fd5b818110612abd575050565b60008155600101612ab2565b9190601f8111612ad857505050565b6123b3926000526020600020906020601f840160051c83019310612b04575b601f0160051c0190612ab2565b9091508190612af7565b90601f83604094601f1993602086528160208701528686013760008582860101520116010190565b80600052606560205260406000206001600160a01b03331660005260205260ff6040600020541615612b655750565b3390600090612b74602a6124e0565b92612b826040519485612357565b602a8452612b90602a6124e0565b92601f19602086019401368537845115612dd65760308453845160011015612dd657607860218601536029905b60018211612e03575050612ce757600090612bd860426124e0565b90612be66040519283612357565b60428252612bf460426124e0565b92601f19602084019401368537825115612dd65760308453825160011015612dd657607860218401536041905b60018211612d2b575050612ce757612ce3936037612cc39383612cb2612c7d97601196506040519889967f416363657373436f6e74726f6c3a206163636f756e742000000000000000000060208901525180928789019061243c565b8501917f206973206d697373696e6720726f6c652000000000000000000000000000000085840152518093604884019061243c565b01010301601f198101835282612357565b60405191829162461bcd60e51b835260206004840152602483019061245f565b0390fd5b606460405162461bcd60e51b815260206004820152602060248201527f537472696e67733a20686578206c656e67746820696e73756666696369656e746044820152fd5b9091600f81166010811015612da9577f3031323334353637383961626364656600000000000000000000000000000000901a612d678486613c48565b5360041c918015612d7c576000190190612c21565b6024827f4e487b710000000000000000000000000000000000000000000000000000000081526011600452fd5b6024837f4e487b710000000000000000000000000000000000000000000000000000000081526032600452fd5b807f4e487b7100000000000000000000000000000000000000000000000000000000602492526032600452fd5b9091600f81166010811015612da9577f3031323334353637383961626364656600000000000000000000000000000000901a612e3f8488613c48565b5360041c918015612d7c576000190190612bbd565b90612ea29180600052606560205260406000206001600160a01b03831660005260205260ff60406000205416612ed5575b60005260976020526001600160a01b036040600020911690613ccf565b506000805260976020527f683723e34a772b6e4f2c919bba7fa32ed8ea11a8325f54da7db716e9d9dd98c754156101ff57565b80600052606560205260406000206001600160a01b03831660005260205260406000207fffffffffffffffffffffffffffffffffffffffffffffffffffffffffffffff008154169055336001600160a01b038316827ff6391f5c32d9c69d2a47ea670b442974b53935d1edc7fd64eb21e047a839171b600080a4612e85565b15612f5b57565b606460405162461bcd60e51b815260206004820152600760248201527f696e76616c6964000000000000000000000000000000000000000000000000006044820152fd5b60207fc6c970958a1f6eae750e294ebf24a992ce9f3be1baf976f04811b637dab23be891806103ba55604051908152a1565b6001600160a01b03806103ea54921691827fffffffffffffffffffffffff00000000000000000000000000000000000000008216176103ea55167f72d66ed05244f4522e4779ce4be88ddd529722030678aeeca374da1bf7654557600080a3565b1561303957565b606460405162461bcd60e51b815260206004820152600960248201527f6e6f7420666f756e6400000000000000000000000000000000000000000000006044820152fd5b1561308457565b606460405162461bcd60e51b815260206004820152600e60248201527f696e76616c696420616d6f756e740000000000000000000000000000000000006044820152fd5b6130d28154612304565b90816130dc575050565b81601f600093116001146130ee575055565b8183526020832061310a91601f0160051c810190600101612ab2565b8082528160208120915555565b6040517fa9059cbb0000000000000000000000000000000000000000000000000000000060208201526001600160a01b039290921660248301526044808301939093529181526123b39161316c606483612357565b613aee565b80518210156131855760209160051b010190565b7f4e487b7100000000000000000000000000000000000000000000000000000000600052603260045260246000fd5b91908203918211611ceb57565b9190916000928184526103b760205260056040852001548084106134dd576131e990846131b4565b908181029181830414901517156134835764e8d4a510008101908181116134b05764e8d4a50fff019081116134835764e8d4a510009004918184526103b7602052600460408520015480841060001461347d575082935b8281526103b76020526001600160a01b036002604083200154168382526103b7602052600460408320016132758782546131b4565b9055856001600160a01b036103ea541661332a575b92600560406020948394877f274f4d415f3351e4e45f4a0b7f4f3dff2cd72eaa33fdc2b0cdf63ab8a2915cda986132d5575b50508781526103b78652200155604051908152a2111590565b6132ec81836001600160a01b036103b95416613117565b897f81e6b108b966709cddc6cb6d61bb914aa652f363813ab8bb61de47b79cb81000896001600160a01b036103b95416938751908152a438806132bc565b8483526103e9602052604083205480613344575b5061328a565b9050808711156134755761335881886131b4565b908584526103e9602052604084206133718282546131b4565b90556001600160a01b036103ea5416803b15613471576040517f89022e2e0000000000000000000000000000000000000000000000000000000081526001600160a01b0385166004820152602481018390529085908290604490829084905af18015613466579486947f274f4d415f3351e4e45f4a0b7f4f3dff2cd72eaa33fdc2b0cdf63ab8a2915cda9794600594604094602099613452575b5082908b7f81e6b108b966709cddc6cb6d61bb914aa652f363813ab8bb61de47b79cb810008b6001600160a01b036103ea5416938951908152a4945094965094505061333e565b9361345f81859396612357565b939061340b565b6040513d87823e3d90fd5b8480fd5b508582613358565b93613240565b6024847f4e487b710000000000000000000000000000000000000000000000000000000081526011600452fd5b6024857f4e487b710000000000000000000000000000000000000000000000000000000081526011600452fd5b606460405162461bcd60e51b815260206004820152602060248201527f63616e6e6f7420736574746c65206265666f7265206c617374536574746c65646044820152fd5b9082906001600160a01b036103ea5416806135bc575b5081613560575b50506000526103b760205261355c6004604060002001918254612878565b9055565b613579826001600160a01b036103b95416833091613bee565b827fc845a5a4f32fa352657d67b371111440e46f015f1823fc16f494c4dcc97a20ec60206001600160a01b03806103b95416946040519687521694a4388061353e565b6040517f70a082310000000000000000000000000000000000000000000000000000000081526001600160a01b03831690816004820152602081602481865afa90811561373757600091613743575b506040517fdd62ed3e000000000000000000000000000000000000000000000000000000008152826004820152306024820152602081604481875afa90811561373757600091613702575b50808210156136fb57505b8061366e575b5050613537565b91935090808611156136ee576136918161368881896131b4565b95853091613bee565b846000526103e960205260406000206136ab828254612878565b9055847fc845a5a4f32fa352657d67b371111440e46f015f1823fc16f494c4dcc97a20ec60206001600160a01b036103ea541693604051908152a4388080613667565b5084613691816000613688565b9050613661565b906020823d60201161372f575b8161371c60209383612357565b8101031261372c57505138613656565b80fd5b3d915061370f565b6040513d6000823e3d90fd5b906020823d60201161376d575b8161375d60209383612357565b8101031261372c5750513861360b565b3d9150613750565b803b156137ee576001600160a01b03167fffffffffffffffffffffffff00000000000000000000000000000000000000007f360894a13ba1a3210667c828492db98dca3e2076cc3735a920a3ca505d382bbc5416177f360894a13ba1a3210667c828492db98dca3e2076cc3735a920a3ca505d382bbc55565b608460405162461bcd60e51b815260206004820152602d60248201527f455243313936373a206e657720696d706c656d656e746174696f6e206973206e60448201527f6f74206120636f6e7472616374000000000000000000000000000000000000006064820152fd5b806000526103b760205260046040600020015492808410613a6c578093826000526103e9602052604060002054808210613a0257613895916131b4565b90826000526103b760205260046040600020016138b38282546131b4565b9055808210156139f75750806138c991946131b4565b925b80613997575b50826138dc57505050565b6001600160a01b036103ea541680156139535783836138fa92613117565b806000526103e960205260406000206139148482546131b4565b90557f87bdb98718dd4e61394d946621729721aedbfeb6a4d27df9501eb1913e6f10a060206001600160a01b03806103ea5416946040519687521694a4565b606460405162461bcd60e51b815260206004820152601460248201527f63726564697420746f6b656e206e6f74207365740000000000000000000000006044820152fd5b6139ae81846001600160a01b036103b95416613117565b6001600160a01b036103b95416604051918252827f87bdb98718dd4e61394d946621729721aedbfeb6a4d27df9501eb1913e6f10a060206001600160a01b03871694a4386138d1565b6000945090506138cb565b608460405162461bcd60e51b815260206004820152602260248201527f6372656469742062616c616e63652065786365656473206a6f622062616c616e60448201527f63650000000000000000000000000000000000000000000000000000000000006064820152fd5b608460405162461bcd60e51b815260206004820152602560248201527f7769746864726177616c20616d6f756e742065786365656473206a6f6220626160448201527f6c616e63650000000000000000000000000000000000000000000000000000006064820152fd5b80548210156131855760005260206000200190600090565b6001600160a01b03613b4b911691604092600080855193613b0f8786612357565b602085527f5361666545524332303a206c6f772d6c6576656c2063616c6c206661696c6564602086015260208151910182855af161122b613dba565b8051908115918215613bcb575b505015613b625750565b6084905162461bcd60e51b815260206004820152602a60248201527f5361666545524332303a204552433230206f7065726174696f6e20646964206e60448201527f6f742073756363656564000000000000000000000000000000000000000000006064820152fd5b81925090602091810103126101ff576020015180151581036101ff573880613b58565b9091926001600160a01b036123b39481604051957f23b872dd00000000000000000000000000000000000000000000000000000000602088015216602486015216604484015260648301526064825261316c608483612357565b908151811015613185570160200190565b6001810190826000528160205260406000205415600014613cc757805468010000000000000000811015610a1357613cb2613c9b826001879401855584613ad6565b81939154906000199060031b92831b921b19161790565b90555491600052602052604060002055600190565b505050600090565b9060018201918160005282602052604060002054801515600014613db1576000198101818111611ceb578254906000198201918211611ceb57808203613d7a575b50505080548015613d4b576000190190613d2a8282613ad6565b60001982549160031b1b191690555560005260205260006040812055600190565b7f4e487b7100000000000000000000000000000000000000000000000000000000600052603160045260246000fd5b613d9a613d8a613c9b9386613ad6565b90549060031b1c92839286613ad6565b905560005283602052604060002055388080613d10565b50505050600090565b3d15613de5573d90613dcb826124e0565b91613dd96040519384612357565b82523d6000602084013e565b606090565b91929015613e4b5750815115613dfe575090565b3b15613e075790565b606460405162461bcd60e51b815260206004820152601d60248201527f416464726573733a2063616c6c20746f206e6f6e2d636f6e74726163740000006044820152fd5b825190915015613e5e5750805190602001fd5b612ce39060405191829162461bcd60e51b835260206004840152602483019061245f56fea2646970667358221220760f5acd11adff7ae22f0223d6a4b1e9ed64de8b6853ff079d278695ec0e535b64736f6c634300081a0033",
  "linkReferences": {},
  "deployedLinkReferences": {}
}