{
  "_format": "hh-sol-artifact-1",
  "contractName": "MarketV1",
  "sourceName": "contracts/enclaves/MarketV1.sol",
  "abi": [
    {
      "inputs": [],
      "stateMutability": "nonpayable",
      "type": "constructor"
    },
    {
      "anonymous": false,
      "inputs": [
        {
          "indexed": false,
          "internalType": "address",
          "name": "previousAdmin",
          "type": "address"
        },
        {
          "indexed": false,
          "internalType": "address",
          "name": "newAdmin",
          "type": "address"
        }
      ],
      "name": "AdminChanged",
      "type": "event"
    },
    {
      "anonymous": false,
      "inputs": [
        {
          "indexed": true,
          "internalType": "address",
          "name": "beacon",
          "type": "address"
        }
      ],
      "name": "BeaconUpgraded",
      "type": "event"
    },
    {
      "anonymous": false,
      "inputs": [
        {
          "indexed": true,
          "internalType": "address",
          "name": "oldCreditToken",
          "type": "address"
        },
        {
          "indexed": true,
          "internalType": "address",
          "name": "newCreditToken",
          "type": "address"
        }
      ],
      "name": "CreditTokenUpdated",
      "type": "event"
    },
    {
      "anonymous": false,
      "inputs": [
        {
          "indexed": false,
          "internalType": "uint8",
          "name": "version",
          "type": "uint8"
        }
      ],
      "name": "Initialized",
      "type": "event"
    },
    {
      "anonymous": false,
      "inputs": [
        {
          "indexed": true,
          "internalType": "bytes32",
          "name": "jobId",
          "type": "bytes32"
        }
      ],
      "name": "JobClosed",
      "type": "event"
    },
    {
      "anonymous": false,
      "inputs": [
        {
          "indexed": true,
          "internalType": "bytes32",
          "name": "jobId",
          "type": "bytes32"
        },
        {
          "indexed": true,
          "internalType": "address",
          "name": "token",
          "type": "address"
        },
        {
          "indexed": true,
          "internalType": "address",
          "name": "from",
          "type": "address"
        },
        {
          "indexed": false,
          "internalType": "uint256",
          "name": "amount",
          "type": "uint256"
        }
      ],
      "name": "JobDeposited",
      "type": "event"
    },
    {
      "anonymous": false,
      "inputs": [
        {
          "indexed": true,
          "internalType": "bytes32",
          "name": "jobId",
          "type": "bytes32"
        },
        {
          "indexed": false,
          "internalType": "string",
          "name": "metadata",
          "type": "string"
        }
      ],
      "name": "JobMetadataUpdated",
      "type": "event"
    },
    {
      "anonymous": false,
      "inputs": [
        {
          "indexed": true,
          "internalType": "bytes32",
          "name": "jobId",
          "type": "bytes32"
        },
        {
          "indexed": false,
          "internalType": "string",
          "name": "metadata",
          "type": "string"
        },
        {
          "indexed": true,
          "internalType": "address",
          "name": "owner",
          "type": "address"
        },
        {
          "indexed": true,
          "internalType": "address",
          "name": "provider",
          "type": "address"
        }
      ],
      "name": "JobOpened",
      "type": "event"
    },
    {
      "anonymous": false,
      "inputs": [
        {
          "indexed": true,
          "internalType": "bytes32",
          "name": "jobId",
          "type": "bytes32"
        },
        {
          "indexed": false,
          "internalType": "uint256",
          "name": "newRate",
          "type": "uint256"
        }
      ],
      "name": "JobRateRevised",
      "type": "event"
    },
    {
      "anonymous": false,
      "inputs": [
        {
          "indexed": true,
          "internalType": "bytes32",
          "name": "jobId",
          "type": "bytes32"
        },
        {
          "indexed": false,
          "internalType": "uint256",
          "name": "lastSettled",
          "type": "uint256"
        }
      ],
      "name": "JobSettled",
      "type": "event"
    },
    {
      "anonymous": false,
      "inputs": [
        {
          "indexed": true,
          "internalType": "bytes32",
          "name": "jobId",
          "type": "bytes32"
        },
        {
          "indexed": true,
          "internalType": "address",
          "name": "token",
          "type": "address"
        },
        {
          "indexed": true,
          "internalType": "address",
          "name": "provider",
          "type": "address"
        },
        {
          "indexed": false,
          "internalType": "uint256",
          "name": "amount",
          "type": "uint256"
        }
      ],
      "name": "JobSettlementWithdrawn",
      "type": "event"
    },
    {
      "anonymous": false,
      "inputs": [
        {
          "indexed": true,
          "internalType": "bytes32",
          "name": "jobId",
          "type": "bytes32"
        },
        {
          "indexed": true,
          "internalType": "address",
          "name": "token",
          "type": "address"
        },
        {
          "indexed": true,
          "internalType": "address",
          "name": "to",
          "type": "address"
        },
        {
          "indexed": false,
          "internalType": "uint256",
          "name": "amount",
          "type": "uint256"
        }
      ],
      "name": "JobWithdrawn",
      "type": "event"
    },
    {
      "anonymous": false,
      "inputs": [
        {
          "indexed": true,
          "internalType": "bytes32",
          "name": "selector",
          "type": "bytes32"
        },
        {
          "indexed": true,
          "internalType": "bytes32",
          "name": "key",
          "type": "bytes32"
        },
        {
          "indexed": false,
          "internalType": "uint256",
          "name": "iValue",
          "type": "uint256"
        },
        {
          "indexed": false,
          "internalType": "uint256",
          "name": "unlockTime",
          "type": "uint256"
        }
      ],
      "name": "LockCreated",
      "type": "event"
    },
    {
      "anonymous": false,
      "inputs": [
        {
          "indexed": true,
          "internalType": "bytes32",
          "name": "selector",
          "type": "bytes32"
        },
        {
          "indexed": true,
          "internalType": "bytes32",
          "name": "key",
          "type": "bytes32"
        },
        {
          "indexed": false,
          "internalType": "uint256",
          "name": "iValue",
          "type": "uint256"
        }
      ],
      "name": "LockDeleted",
      "type": "event"
    },
    {
      "anonymous": false,
      "inputs": [
        {
          "indexed": true,
          "internalType": "bytes32",
          "name": "selector",
          "type": "bytes32"
        },
        {
          "indexed": false,
          "internalType": "uint256",
          "name": "prevLockTime",
          "type": "uint256"
        },
        {
          "indexed": false,
          "internalType": "uint256",
          "name": "updatedLockTime",
          "type": "uint256"
        }
      ],
      "name": "LockWaitTimeUpdated",
      "type": "event"
    },
    {
      "anonymous": false,
      "inputs": [
        {
          "indexed": false,
          "internalType": "uint256",
          "name": "noticePeriod",
          "type": "uint256"
        }
      ],
      "name": "NoticePeriodUpdated",
      "type": "event"
    },
    {
      "anonymous": false,
      "inputs": [
        {
          "indexed": true,
          "internalType": "address",
          "name": "provider",
          "type": "address"
        },
        {
          "indexed": false,
          "internalType": "string",
          "name": "cp",
          "type": "string"
        }
      ],
      "name": "ProviderAdded",
      "type": "event"
    },
    {
      "anonymous": false,
      "inputs": [
        {
          "indexed": true,
          "internalType": "address",
          "name": "provider",
          "type": "address"
        }
      ],
      "name": "ProviderRemoved",
      "type": "event"
    },
    {
      "anonymous": false,
      "inputs": [
        {
          "indexed": true,
          "internalType": "address",
          "name": "provider",
          "type": "address"
        },
        {
          "indexed": false,
          "internalType": "string",
          "name": "newCp",
          "type": "string"
        }
      ],
      "name": "ProviderUpdatedWithCp",
      "type": "event"
    },
    {
      "anonymous": false,
      "inputs": [
        {
          "indexed": true,
          "internalType": "bytes32",
          "name": "role",
          "type": "bytes32"
        },
        {
          "indexed": true,
          "internalType": "bytes32",
          "name": "previousAdminRole",
          "type": "bytes32"
        },
        {
          "indexed": true,
          "internalType": "bytes32",
          "name": "newAdminRole",
          "type": "bytes32"
        }
      ],
      "name": "RoleAdminChanged",
      "type": "event"
    },
    {
      "anonymous": false,
      "inputs": [
        {
          "indexed": true,
          "internalType": "bytes32",
          "name": "role",
          "type": "bytes32"
        },
        {
          "indexed": true,
          "internalType": "address",
          "name": "account",
          "type": "address"
        },
        {
          "indexed": true,
          "internalType": "address",
          "name": "sender",
          "type": "address"
        }
      ],
      "name": "RoleGranted",
      "type": "event"
    },
    {
      "anonymous": false,
      "inputs": [
        {
          "indexed": true,
          "internalType": "bytes32",
          "name": "role",
          "type": "bytes32"
        },
        {
          "indexed": true,
          "internalType": "address",
          "name": "account",
          "type": "address"
        },
        {
          "indexed": true,
          "internalType": "address",
          "name": "sender",
          "type": "address"
        }
      ],
      "name": "RoleRevoked",
      "type": "event"
    },
    {
      "anonymous": false,
      "inputs": [
        {
          "indexed": true,
          "internalType": "address",
          "name": "oldToken",
          "type": "address"
        },
        {
          "indexed": true,
          "internalType": "address",
          "name": "newToken",
          "type": "address"
        }
      ],
      "name": "TokenUpdated",
      "type": "event"
    },
    {
      "anonymous": false,
      "inputs": [
        {
          "indexed": true,
          "internalType": "address",
          "name": "implementation",
          "type": "address"
        }
      ],
      "name": "Upgraded",
      "type": "event"
    },
    {
      "inputs": [],
      "name": "DEFAULT_ADMIN_ROLE",
      "outputs": [
        {
          "internalType": "bytes32",
          "name": "",
          "type": "bytes32"
        }
      ],
      "stateMutability": "view",
      "type": "function"
    },
    {
      "inputs": [],
      "name": "EMERGENCY_WITHDRAW_ROLE",
      "outputs": [
        {
          "internalType": "bytes32",
          "name": "",
          "type": "bytes32"
        }
      ],
      "stateMutability": "view",
      "type": "function"
    },
    {
      "inputs": [],
      "name": "EXTRA_DECIMALS",
      "outputs": [
        {
          "internalType": "uint256",
          "name": "",
          "type": "uint256"
        }
      ],
      "stateMutability": "view",
      "type": "function"
    },
    {
      "inputs": [],
      "name": "RATE_LOCK_SELECTOR",
      "outputs": [
        {
          "internalType": "bytes32",
          "name": "",
          "type": "bytes32"
        }
      ],
      "stateMutability": "view",
      "type": "function"
    },
    {
      "inputs": [],
      "name": "creditToken",
      "outputs": [
        {
          "internalType": "contract IERC20",
          "name": "",
          "type": "address"
        }
      ],
      "stateMutability": "view",
      "type": "function"
    },
    {
      "inputs": [
        {
          "internalType": "address",
          "name": "_to",
          "type": "address"
        },
        {
          "internalType": "bytes32[]",
          "name": "_jobIds",
          "type": "bytes32[]"
        }
      ],
      "name": "emergencyWithdrawCredit",
      "outputs": [],
      "stateMutability": "nonpayable",
      "type": "function"
    },
    {
      "inputs": [
        {
          "internalType": "bytes32",
          "name": "role",
          "type": "bytes32"
        }
      ],
      "name": "getRoleAdmin",
      "outputs": [
        {
          "internalType": "bytes32",
          "name": "",
          "type": "bytes32"
        }
      ],
      "stateMutability": "view",
      "type": "function"
    },
    {
      "inputs": [
        {
          "internalType": "bytes32",
          "name": "role",
          "type": "bytes32"
        },
        {
          "internalType": "uint256",
          "name": "index",
          "type": "uint256"
        }
      ],
      "name": "getRoleMember",
      "outputs": [
        {
          "internalType": "address",
          "name": "",
          "type": "address"
        }
      ],
      "stateMutability": "view",
      "type": "function"
    },
    {
      "inputs": [
        {
          "internalType": "bytes32",
          "name": "role",
          "type": "bytes32"
        }
      ],
      "name": "getRoleMemberCount",
      "outputs": [
        {
          "internalType": "uint256",
          "name": "",
          "type": "uint256"
        }
      ],
      "stateMutability": "view",
      "type": "function"
    },
    {
      "inputs": [
        {
          "internalType": "bytes32",
          "name": "role",
          "type": "bytes32"
        },
        {
          "internalType": "address",
          "name": "account",
          "type": "address"
        }
      ],
      "name": "grantRole",
      "outputs": [],
      "stateMutability": "nonpayable",
      "type": "function"
    },
    {
      "inputs": [
        {
          "internalType": "bytes32",
          "name": "role",
          "type": "bytes32"
        },
        {
          "internalType": "address",
          "name": "account",
          "type": "address"
        }
      ],
      "name": "hasRole",
      "outputs": [
        {
          "internalType": "bool",
          "name": "",
          "type": "bool"
        }
      ],
      "stateMutability": "view",
      "type": "function"
    },
    {
      "inputs": [
        {
          "internalType": "address",
          "name": "_admin",
          "type": "address"
        },
        {
          "internalType": "address",
          "name": "_token",
          "type": "address"
        },
        {
          "internalType": "bytes32[]",
          "name": "_selectors",
          "type": "bytes32[]"
        },
        {
          "internalType": "uint256[]",
          "name": "_lockWaitTimes",
          "type": "uint256[]"
        }
      ],
      "name": "initialize",
      "outputs": [],
      "stateMutability": "nonpayable",
      "type": "function"
    },
    {
      "inputs": [
        {
          "internalType": "bytes32",
          "name": "_jobId",
          "type": "bytes32"
        }
      ],
      "name": "jobClose",
      "outputs": [],
      "stateMutability": "nonpayable",
      "type": "function"
    },
    {
      "inputs": [
        {
          "internalType": "bytes32",
          "name": "",
          "type": "bytes32"
        }
      ],
      "name": "jobCreditBalance",
      "outputs": [
        {
          "internalType": "uint256",
          "name": "",
          "type": "uint256"
        }
      ],
      "stateMutability": "view",
      "type": "function"
    },
    {
      "inputs": [
        {
          "internalType": "bytes32",
          "name": "_jobId",
          "type": "bytes32"
        },
        {
          "internalType": "uint256",
          "name": "_amount",
          "type": "uint256"
        }
      ],
      "name": "jobDeposit",
      "outputs": [],
      "stateMutability": "nonpayable",
      "type": "function"
    },
    {
      "inputs": [],
      "name": "jobIndex",
      "outputs": [
        {
          "internalType": "bytes32",
          "name": "",
          "type": "bytes32"
        }
      ],
      "stateMutability": "view",
      "type": "function"
    },
    {
      "inputs": [
        {
          "internalType": "bytes32",
          "name": "_jobId",
          "type": "bytes32"
        },
        {
          "internalType": "string",
          "name": "_metadata",
          "type": "string"
        }
      ],
      "name": "jobMetadataUpdate",
      "outputs": [],
      "stateMutability": "nonpayable",
      "type": "function"
    },
    {
      "inputs": [
        {
          "internalType": "string",
          "name": "_metadata",
          "type": "string"
        },
        {
          "internalType": "address",
          "name": "_provider",
          "type": "address"
        },
        {
          "internalType": "uint256",
          "name": "_rate",
          "type": "uint256"
        },
        {
          "internalType": "uint256",
          "name": "_balance",
          "type": "uint256"
        }
      ],
      "name": "jobOpen",
      "outputs": [],
      "stateMutability": "nonpayable",
      "type": "function"
    },
    {
      "inputs": [
        {
          "internalType": "bytes32",
          "name": "_jobId",
          "type": "bytes32"
        },
        {
          "internalType": "uint256",
          "name": "_newRate",
          "type": "uint256"
        }
      ],
      "name": "jobReviseRate",
      "outputs": [],
      "stateMutability": "nonpayable",
      "type": "function"
    },
    {
      "inputs": [
        {
          "internalType": "bytes32",
          "name": "_jobId",
          "type": "bytes32"
        }
      ],
      "name": "jobSettle",
      "outputs": [],
      "stateMutability": "nonpayable",
      "type": "function"
    },
    {
      "inputs": [
        {
          "internalType": "bytes32",
          "name": "_jobId",
          "type": "bytes32"
        },
        {
          "internalType": "uint256",
          "name": "_amount",
          "type": "uint256"
        }
      ],
      "name": "jobWithdraw",
      "outputs": [],
      "stateMutability": "nonpayable",
      "type": "function"
    },
    {
      "inputs": [
        {
          "internalType": "bytes32",
          "name": "",
          "type": "bytes32"
        }
      ],
      "name": "jobs",
      "outputs": [
        {
          "internalType": "string",
          "name": "metadata",
          "type": "string"
        },
        {
          "internalType": "address",
          "name": "owner",
          "type": "address"
        },
        {
          "internalType": "address",
          "name": "provider",
          "type": "address"
        },
        {
          "internalType": "uint256",
          "name": "rate",
          "type": "uint256"
        },
        {
          "internalType": "uint256",
          "name": "balance",
          "type": "uint256"
        },
        {
          "internalType": "uint256",
          "name": "lastSettled",
          "type": "uint256"
        }
      ],
      "stateMutability": "view",
      "type": "function"
    },
    {
      "inputs": [
        {
          "internalType": "bytes32",
          "name": "",
          "type": "bytes32"
        }
      ],
      "name": "lockWaitTime",
      "outputs": [
        {
          "internalType": "uint256",
          "name": "",
          "type": "uint256"
        }
      ],
      "stateMutability": "view",
      "type": "function"
    },
    {
      "inputs": [
        {
          "internalType": "bytes32",
          "name": "",
          "type": "bytes32"
        }
      ],
      "name": "locks",
      "outputs": [
        {
          "internalType": "uint256",
          "name": "unlockTime",
          "type": "uint256"
        },
        {
          "internalType": "uint256",
          "name": "iValue",
          "type": "uint256"
        }
      ],
      "stateMutability": "view",
      "type": "function"
    },
    {
      "inputs": [],
      "name": "noticePeriod",
      "outputs": [
        {
          "internalType": "uint256",
          "name": "",
          "type": "uint256"
        }
      ],
      "stateMutability": "view",
      "type": "function"
    },
    {
      "inputs": [
        {
          "internalType": "string",
          "name": "_cp",
          "type": "string"
        }
      ],
      "name": "providerAdd",
      "outputs": [],
      "stateMutability": "nonpayable",
      "type": "function"
    },
    {
      "inputs": [],
      "name": "providerRemove",
      "outputs": [],
      "stateMutability": "nonpayable",
      "type": "function"
    },
    {
      "inputs": [
        {
          "internalType": "string",
          "name": "_cp",
          "type": "string"
        }
      ],
      "name": "providerUpdateWithCp",
      "outputs": [],
      "stateMutability": "nonpayable",
      "type": "function"
    },
    {
      "inputs": [
        {
          "internalType": "address",
          "name": "",
          "type": "address"
        }
      ],
      "name": "providers",
      "outputs": [
        {
          "internalType": "string",
          "name": "cp",
          "type": "string"
        }
      ],
      "stateMutability": "view",
      "type": "function"
    },
    {
      "inputs": [],
      "name": "proxiableUUID",
      "outputs": [
        {
          "internalType": "bytes32",
          "name": "",
          "type": "bytes32"
        }
      ],
      "stateMutability": "view",
      "type": "function"
    },
    {
      "inputs": [
        {
          "internalType": "uint256",
          "name": "_noticePeriod",
          "type": "uint256"
        },
        {
          "internalType": "address",
          "name": "_creditToken",
          "type": "address"
        }
      ],
      "name": "reinitialize",
      "outputs": [],
      "stateMutability": "nonpayable",
      "type": "function"
    },
    {
      "inputs": [
        {
          "internalType": "bytes32",
          "name": "role",
          "type": "bytes32"
        },
        {
          "internalType": "address",
          "name": "account",
          "type": "address"
        }
      ],
      "name": "renounceRole",
      "outputs": [],
      "stateMutability": "nonpayable",
      "type": "function"
    },
    {
      "inputs": [
        {
          "internalType": "bytes32",
          "name": "role",
          "type": "bytes32"
        },
        {
          "internalType": "address",
          "name": "account",
          "type": "address"
        }
      ],
      "name": "revokeRole",
      "outputs": [],
      "stateMutability": "nonpayable",
      "type": "function"
    },
    {
      "inputs": [
        {
          "internalType": "bytes4",
          "name": "interfaceId",
          "type": "bytes4"
        }
      ],
      "name": "supportsInterface",
      "outputs": [
        {
          "internalType": "bool",
          "name": "",
          "type": "bool"
        }
      ],
      "stateMutability": "view",
      "type": "function"
    },
    {
      "inputs": [],
      "name": "token",
      "outputs": [
        {
          "internalType": "contract IERC20",
          "name": "",
          "type": "address"
        }
      ],
      "stateMutability": "view",
      "type": "function"
    },
    {
      "inputs": [
        {
          "internalType": "address",
          "name": "_creditToken",
          "type": "address"
        }
      ],
      "name": "updateCreditToken",
      "outputs": [],
      "stateMutability": "nonpayable",
      "type": "function"
    },
    {
      "inputs": [
        {
          "internalType": "uint256",
          "name": "_noticePeriod",
          "type": "uint256"
        }
      ],
      "name": "updateNoticePeriod",
      "outputs": [],
      "stateMutability": "nonpayable",
      "type": "function"
    },
    {
      "inputs": [
        {
          "internalType": "address",
          "name": "_token",
          "type": "address"
        }
      ],
      "name": "updateToken",
      "outputs": [],
      "stateMutability": "nonpayable",
      "type": "function"
    },
    {
      "inputs": [
        {
          "internalType": "address",
          "name": "newImplementation",
          "type": "address"
        }
      ],
      "name": "upgradeTo",
      "outputs": [],
      "stateMutability": "nonpayable",
      "type": "function"
    },
    {
      "inputs": [
        {
          "internalType": "address",
          "name": "newImplementation",
          "type": "address"
        },
        {
          "internalType": "bytes",
          "name": "data",
          "type": "bytes"
        }
      ],
      "name": "upgradeToAndCall",
      "outputs": [],
      "stateMutability": "payable",
      "type": "function"
    }
  ],
  "bytecode": "0x60a08060405234610136573060805260005460ff8160081c161591828093610129575b8015610112575b156100b9575060ff198116600117600055816100a7575b5061006c575b604051613fb5908161013c8239608051818181610cc201528181610ee201526114710152f35b61ff0019600054166000557f7f26b83ff96e1f2b6a682f133852f6798a09c465da95921460cefb3847402498602060405160018152a1610046565b61ffff19166101011760005538610040565b62461bcd60e51b815260206004820152602e60248201527f496e697469616c697a61626c653a20636f6e747261637420697320616c72656160448201526d191e481a5b9a5d1a585b1a5e995960921b6064820152608490fd5b50303b1580156100295750600160ff831614610029565b50600160ff831610610022565b600080fdfe608080604052600436101561001357600080fd5b60003560e01c90816301ffc9a7146122a35750806302615741146121175780630787bc27146120c45780631ca1120914611c8d5780631f60d4a114611c2a5780632262821a1461195f578063248a9ca31461192a5780632f2ff15d14611823578063316c48d2146117f657806336568abe146117575780633659cfe61461144b57806338ed7cfc146113bc57806348ad85721461138f5780634a4f238b146111e75780634f1ef28614610e905780634f31ad9d14610d7c57806352d1902d14610ca75780635512a3df14610b675780635622fd9014610b2c5780635c1333e614610ad05780637ad3def214610a74578063842c3d60146109be578063899e5d85146109965780638cb497e6146106fe5780638e7bb99d146105ec5780639010d07c146105af57806391d1485414610561578063974bf8d61461050a5780639b14d4c6146104eb578063a217fddf146104cf578063b7772818146104b0578063ca15c87314610484578063cce195b8146103a1578063d49fbd731461032f578063d547741f146102ea578063dc3e083014610291578063e41e716014610256578063ed5e843714610220578063f47b3a17146102045763fc0c546a146101d757600080fd5b346101ff5760006003193601126101ff5760206001600160a01b036103b95416604051908152f35b600080fd5b346101ff5760006003193601126101ff576020604051600c8152f35b346101ff5760206003193601126101ff5760043560005261012d6020526040806000206001815491015482519182526020820152f35b346101ff5760006003193601126101ff5760206040517fbb00c34f1a27e23493f1bd516e88ec0af9b091cc990f207e765f5bd5af0122438152f35b346101ff5760206003193601126101ff576102e8600435806000526103b76020526102ce6001600160a01b036001604060002001541615156126ca565b806000526103b76020526003604060002001544291613204565b005b346101ff5760406003193601126101ff576102e860043561030961238a565b9061032a61032582600052606560205260016040600020015490565b612bd2565b612ef0565b346101ff5760006003193601126101ff573360005261038560205261036261035b6040600020546123a0565b1515613112565b3360005261038560205261037960406000206131a8565b337f1589f8555933761a3cff8aa925061be3b46e2dd43f621322ab611d300f62b1d9600080a2005b346101ff576103af36612538565b816000526103b76020526103d56001600160a01b036001604060002001541615156126ca565b816000526103b76020526103fb6001600160a01b03600160406000200154163314612715565b61040681151561315d565b816000526103b76020526104306003604060002001546104296103ba5442612842565b9084613204565b15610440576102e8913390613576565b606460405162461bcd60e51b815260206004820152601e60248201527f696e73756666696369656e742066756e647320746f20776974686472617700006044820152fd5b346101ff5760206003193601126101ff5760043560005260976020526020604060002054604051908152f35b346101ff5760006003193601126101ff5760206103b854604051908152f35b346101ff5760006003193601126101ff57602060405160008152f35b346101ff5760006003193601126101ff5760206103ba54604051908152f35b346101ff5760206003193601126101ff573360009081527fffdfc1249c027f9191656349feb0761381bb32c9f557e01f419fd08754bf5a1b60205260409020546105569060ff1661260e565b6102e860043561307f565b346101ff5760406003193601126101ff5761057a61238a565b60043560005260656020526001600160a01b0360406000209116600052602052602060ff604060002054166040519015158152f35b346101ff5760206001600160a01b036105dc6105ca36612538565b90600052609784526040600020613b79565b90549060031b1c16604051908152f35b346101ff5760206003193601126101ff57600435806000526103b76020526106266001600160a01b036001604060002001541615156126ca565b806000526103b760205261064c6001600160a01b03600160406000200154163314612715565b806000526103b760205261067660036040600020015461066f6103ba5442612842565b9083613204565b50806000526103b7602052600460406000200154806106ed575b50806000526103b760205260006005604082206106ac816131a8565b82600182015582600282015582600382015582600482015501557f87c6cc8269aa1e8b05794139b53e072d0cdd15e8bc266fb1fca4028003a7d98c600080a2005b6106f8903383613576565b81610690565b346101ff5760406003193601126101ff5760043560243567ffffffffffffffff81116101ff5761073290369060040161254e565b826000939293526103b760205261075b6001600160a01b036001604060002001541615156126ca565b816000526103b76020526107816001600160a01b03600160406000200154163314612715565b816000526103b76020526107986040600020612416565b6040516107c6602082816107b581830196878151938492016124d8565b81010301601f1981018352826123f3565b5190206040516020810190838683376107f36020828681016000838201520301601f1981018352826123f3565b5190201461095257816000526103b760205260406000209267ffffffffffffffff82116109235761082e8261082886546123a0565b86612b65565b600093601f83116001146108a15761087f83807fa24ecd736bba25f4e473a4b5b4e2bb685cd0ccfc87ac332fc4079943e870d59b9697600091610896575b506000198260011b9260031b1c19161790565b90555b61089160405192839283612baa565b0390a2005b90508401358861086c565b80855260208520601f19841695805b87811061090b5750847fa24ecd736bba25f4e473a4b5b4e2bb685cd0ccfc87ac332fc4079943e870d59b9697106108f1575b5050600183811b019055610882565b60001960f88660031b161c199084013516905585806108e2565b909160206001819285880135815501930191016108b0565b7f4e487b7100000000000000000000000000000000000000000000000000000000600052604160045260246000fd5b606460405162461bcd60e51b815260206004820152601860248201527f6d6574616461746120686173206e6f74206368616e67656400000000000000006044820152fd5b346101ff5760006003193601126101ff5760206001600160a01b036103ea5416604051908152f35b346101ff576109cc36612538565b816000526103b76020526109f26001600160a01b036001604060002001541615156126ca565b6109fd81151561315d565b816000526103b7602052610a206003604060002001546104296103ba5442612842565b15610a30576102e8913390613842565b606460405162461bcd60e51b815260206004820152601d60248201527f696e73756666696369656e742066756e647320746f206465706f7369740000006044820152fd5b346101ff5760206003193601126101ff576102e8610a90612374565b3360009081527fffdfc1249c027f9191656349feb0761381bb32c9f557e01f419fd08754bf5a1b6020526040902054610acb9060ff1661260e565b6128c0565b346101ff5760206003193601126101ff576102e8610aec612374565b3360009081527fffdfc1249c027f9191656349feb0761381bb32c9f557e01f419fd08754bf5a1b6020526040902054610b279060ff1661260e565b6130b1565b346101ff5760006003193601126101ff5760206040517f66f144ecd65ad16d38ecdba8687842af4bc05fde66fe3d999569a3006349785f8152f35b346101ff57610b75366125cf565b33600052610385602052610b9061035b6040600020546123a0565b610b9c81511515613034565b336000526103856020526040600020815167ffffffffffffffff811161092357610bd081610bca84546123a0565b84612b65565b6020601f8211600114610c43579080610bfd92600091610c3857506000198260011b9260031b1c19161790565b90555b7f16aa293866804eb57e17688cdf865583ca3ea47890988b4854569cc4e8d62b5b6040516020815280610891339460208301906124fb565b90508401518561086c565b601f1982169083600052806000209160005b818110610c8f57509083600194939210610c76575b5050811b019055610c00565b85015160001960f88460031b161c191690558480610c6a565b9192602060018192868a015181550194019201610c55565b346101ff5760006003193601126101ff576001600160a01b037f0000000000000000000000000000000000000000000000000000000000000000163003610d125760206040517f360894a13ba1a3210667c828492db98dca3e2076cc3735a920a3ca505d382bbc8152f35b608460405162461bcd60e51b815260206004820152603860248201527f555550535570677261646561626c653a206d757374206e6f742062652063616c60448201527f6c6564207468726f7567682064656c656761746563616c6c00000000000000006064820152fd5b346101ff5760406003193601126101ff57610e2e610d9861238a565b3360009081527fffdfc1249c027f9191656349feb0761381bb32c9f557e01f419fd08754bf5a1b6020526040902054610dd39060ff1661260e565b6101027fffffffffffffffffffffffffffffffffffffffffffffffffffffffffffff000060005460ff8160081c161580610e83575b610e1190612659565b16176000556103b8544660c01b176103b855610b2760043561307f565b7fffffffffffffffffffffffffffffffffffffffffffffffffffffffffffff00ff600054166000557f7f26b83ff96e1f2b6a682f133852f6798a09c465da95921460cefb3847402498602060405160028152a1005b50600260ff821610610e08565b60406003193601126101ff57610ea4612374565b60243567ffffffffffffffff81116101ff57366023820112156101ff57610ed5903690602481600401359101612598565b610f3f6001600160a01b037f000000000000000000000000000000000000000000000000000000000000000016610f0e81301415612760565b6001600160a01b037f360894a13ba1a3210667c828492db98dca3e2076cc3735a920a3ca505d382bbc5416146127d1565b3360009081527fffdfc1249c027f9191656349feb0761381bb32c9f557e01f419fd08754bf5a1b6020526040902054610f7a9060ff1661260e565b7f4910fdfa16fed3260ed0e7147f7cc6da11a60208b5b9406d12a635614ffd91435460ff1615610fae57506102e890613a96565b6001600160a01b0382166040517f52d1902d000000000000000000000000000000000000000000000000000000008152602081600481855afa600091816111b3575b5061105f57608460405162461bcd60e51b815260206004820152602e60248201527f45524331393637557067726164653a206e657720696d706c656d656e7461746960448201527f6f6e206973206e6f7420555550530000000000000000000000000000000000006064820152fd5b7f360894a13ba1a3210667c828492db98dca3e2076cc3735a920a3ca505d382bbc036111495761108e83613a96565b7fbc7cd75a20ee27fd9adebab32041f755214dbc6bffa90cc0225b39da2e5c2d3b600080a2805115801590611141575b6110c457005b6102e891600080604051936110da6060866123f3565b602785527f416464726573733a206c6f772d6c6576656c2064656c65676174652063616c6c60208601527f206661696c6564000000000000000000000000000000000000000000000000006040860152602081519101845af461113b613eb7565b91613ee7565b5060016110be565b608460405162461bcd60e51b815260206004820152602960248201527f45524331393637557067726164653a20756e737570706f727465642070726f7860448201527f6961626c655555494400000000000000000000000000000000000000000000006064820152fd5b9091506020813d6020116111df575b816111cf602093836123f3565b810103126101ff57519085610ff0565b3d91506111c2565b346101ff576111f5366125cf565b3360005261038560205261120d6040600020546123a0565b61134b5761121d81511515613034565b604051906020820182811067ffffffffffffffff82111761092357604052808252336000526103856020526040600020915191825167ffffffffffffffff81116109235761126f81610bca84546123a0565b6020601f82116001146112e65781906112a09394956000926112db575b50506000198260011b9260031b1c19161790565b90555b7f685b3f0c2702c8946b2f7fcfbc7ad4802d34b86a128adc5b5fb99570d27f53576040516020815280610891339460208301906124fb565b01519050858061128c565b601f1982169083600052806000209160005b8181106113335750958360019596971061131a575b505050811b0190556112a3565b015160001960f88460031b161c1916905584808061130d565b9192602060018192868b0151815501940192016112f8565b606460405162461bcd60e51b815260206004820152600e60248201527f616c7265616479206578697374730000000000000000000000000000000000006044820152fd5b346101ff5760206003193601126101ff5760043560005261012e6020526020604060002054604051908152f35b346101ff5760206003193601126101ff576004356000526103b760205261142d60406000206113ea81612416565b906001600160a01b03600182015416906001600160a01b03600282015416906003810154600560048301549201549260405196879660c0885260c08801906124fb565b94602087015260408601526060850152608084015260a08301520390f35b346101ff5760206003193601126101ff57611464612374565b61149d6001600160a01b037f000000000000000000000000000000000000000000000000000000000000000016610f0e81301415612760565b3360009081527fffdfc1249c027f9191656349feb0761381bb32c9f557e01f419fd08754bf5a1b60205260409020546114d89060ff1661260e565b6040519060206114e881846123f3565b60008352808301601f1982013682377f4910fdfa16fed3260ed0e7147f7cc6da11a60208b5b9406d12a635614ffd91435460ff161561152d5750506102e89150613a96565b6001600160a01b03839293166040517f52d1902d0000000000000000000000000000000000000000000000000000000081528481600481855afa60009181611728575b506115df576084856040519062461bcd60e51b82526004820152602e60248201527f45524331393637557067726164653a206e657720696d706c656d656e7461746960448201527f6f6e206973206e6f7420555550530000000000000000000000000000000000006064820152fd5b7f360894a13ba1a3210667c828492db98dca3e2076cc3735a920a3ca505d382bbc036116be5761160e83613a96565b7fbc7cd75a20ee27fd9adebab32041f755214dbc6bffa90cc0225b39da2e5c2d3b600080a28351158015906116b6575b61164457005b600080916102e8957f416464726573733a206c6f772d6c6576656c2064656c65676174652063616c6c6040519661167c6060896123f3565b602788528701527f206661696c65640000000000000000000000000000000000000000000000000060408701525190845af461113b613eb7565b50600061163e565b6084846040519062461bcd60e51b82526004820152602960248201527f45524331393637557067726164653a20756e737570706f727465642070726f7860448201527f6961626c655555494400000000000000000000000000000000000000000000006064820152fd5b9091508581813d8311611750575b61174081836123f3565b810103126101ff57519087611570565b503d611736565b346101ff5760406003193601126101ff5761177061238a565b336001600160a01b0382160361178c576102e890600435612ef0565b608460405162461bcd60e51b815260206004820152602f60248201527f416363657373436f6e74726f6c3a2063616e206f6e6c792072656e6f756e636560448201527f20726f6c657320666f722073656c6600000000000000000000000000000000006064820152fd5b346101ff5760206003193601126101ff576004356000526103e96020526020604060002054604051908152f35b346101ff5760406003193601126101ff576102e860043561184261238a565b9061185e61032582600052606560205260016040600020015490565b80600052606560205260406000206001600160a01b03831660005260205260ff60406000205416156118a8575b60005260976020526001600160a01b036040600020911690613d56565b80600052606560205260406000206001600160a01b038316600052602052604060002060017fffffffffffffffffffffffffffffffffffffffffffffffffffffffffffffff00825416179055336001600160a01b038316827f2f8788117e7eff1d82e926ec794901d17c78024a50270940304540a733656f0d600080a461188b565b346101ff5760206003193601126101ff576020611957600435600052606560205260016040600020015490565b604051908152f35b346101ff5760806003193601126101ff5760043567ffffffffffffffff81116101ff5761199090369060040161254e565b9061199961238a565b6103b8549160018301808411611bfb576103b8556040519360c0850185811067ffffffffffffffff821117610923576040526119d6368284612598565b855260208501943386526001600160a01b0360408201941693848152606082016000815260808301906000825260a0840192428452886000526103b76020526040600020945180519067ffffffffffffffff821161092357611a4282611a3c89546123a0565b89612b65565b602090601f8311600114611b5957936001600160a01b03600594816102e89f8f9c999587611b359c98611aad927f696b22512bbe07c21f31472ed10c94a32346556ce9d75f2ecf46c71e5a81cd8c9f9c600092611b4e5750506000198260011b9260031b1c19161790565b89555b5116826001890191167fffffffffffffffffffffffff000000000000000000000000000000000000000082541617905551166001600160a01b036002870191167fffffffffffffffffffffffff000000000000000000000000000000000000000082541617905551600385015551600484015551910155604051918291339683612baa565b0390a4611b456064353383613842565b60443590612921565b01519050388061128c565b90601f1983169188600052816000209260005b818110611be35750946001600160a01b036102e89f8f9c9995876001917f696b22512bbe07c21f31472ed10c94a32346556ce9d75f2ecf46c71e5a81cd8c9e9b978597611b359f9b60059d10611bca575b505050811b018955611ab0565b015160001960f88460031b161c19169055388080611bbd565b92936020600181928786015181550195019301611b6c565b7f4e487b7100000000000000000000000000000000000000000000000000000000600052601160045260246000fd5b346101ff576102e8611c3b36612538565b90806000526103b7602052611c626001600160a01b036001604060002001541615156126ca565b806000526103b7602052611c886001600160a01b03600160406000200154163314612715565b612921565b346101ff5760806003193601126101ff57611ca6612374565b611cae61238a565b906044359167ffffffffffffffff83116101ff57366023840112156101ff57826004013592611cdc84612520565b93611cea60405195866123f3565b8085526024602086019160051b830101913683116101ff57602401905b8282106120b4575050506064359067ffffffffffffffff82116101ff57366023830112156101ff57816004013591611d3e83612520565b92611d4c60405194856123f3565b8084526024602085019160051b830101913683116101ff57602401905b8282106120a4575050506000549060ff8260081c161591828093612097575b8015612080575b611d9890612659565b8260017fffffffffffffffffffffffffffffffffffffffffffffffffffffffffffffff00831617600055612051575b5084518351036101ff57611e1860ff60005460081c16611de68161284f565b611def8161284f565b611df88161284f565b611e018161284f565b611e0a8161284f565b611e138161284f565b61284f565b845183510361200d5760005b8551811015611e9b5780611e3a600192886137ff565b51611e4582876137ff565b51908060005261012e602052807f21a54b9df4e6fa389ce6d626ac659fe37069cae439958c382c427376f9fe5e4c604080600020548151908152856020820152a260005261012e60205260406000205501611e24565b506001600160a01b03841660009081527fffdfc1249c027f9191656349feb0761381bb32c9f557e01f419fd08754bf5a1b6020526040902054611f269190611f2090869060ff1615611f81575b6000805260976020526001600160a01b03167f683723e34a772b6e4f2c919bba7fa32ed8ea11a8325f54da7db716e9d9dd98c7613d56565b506128c0565b611f2c57005b7fffffffffffffffffffffffffffffffffffffffffffffffffffffffffffff00ff600054166000557f7f26b83ff96e1f2b6a682f133852f6798a09c465da95921460cefb3847402498602060405160018152a1005b6001600160a01b03811660008181527fffdfc1249c027f9191656349feb0761381bb32c9f557e01f419fd08754bf5a1b6020526040812080547fffffffffffffffffffffffffffffffffffffffffffffffffffffffffffffff001660011790553391907f2f8788117e7eff1d82e926ec794901d17c78024a50270940304540a733656f0d8180a4611ee8565b606460405162461bcd60e51b815260206004820152601560248201527f4c6f636b3a206c656e677468206d69736d6174636800000000000000000000006044820152fd5b7fffffffffffffffffffffffffffffffffffffffffffffffffffffffffffff0000166101011760005585611dc7565b50303b158015611d8f575060ff8116600114611d8f565b50600160ff821610611d88565b8135815260209182019101611d69565b8135815260209182019101611d07565b346101ff5760206003193601126101ff576001600160a01b036120e5612374565b166000526103856020526121136120ff6040600020612416565b6040519182916020835260208301906124fb565b0390f35b346101ff5760406003193601126101ff57612130612374565b6024359067ffffffffffffffff82116101ff57366023830112156101ff5781600401359067ffffffffffffffff82116101ff573660248360051b850101116101ff573360009081527fffdfc1249c027f9191656349feb0761381bb32c9f557e01f419fd08754bf5a1b60205260409020546121ad9060ff1661260e565b6001600160a01b03811660009081527f0c2290b178333b9e91c2bedbee86166fc0702e25a3a228dacfc6f9cc25e31030602052604090205460ff161561225f576121fa6103ba5442612842565b9060005b838110156102e8576001906000604060248360051b89010135918281526103b7602052612232876003848420015485613204565b508281526103e96020522054848161224e575b505050016121fe565b61225792613576565b868084612245565b606460405162461bcd60e51b815260206004820152601f60248201527f6f6e6c7920746f20656d657267656e637920776974686472617720726f6c65006044820152fd5b346101ff5760206003193601126101ff57600435907fffffffff0000000000000000000000000000000000000000000000000000000082168092036101ff57817f5a05180f0000000000000000000000000000000000000000000000000000000060209314908115612317575b5015158152f35b7f7965db0b0000000000000000000000000000000000000000000000000000000081149150811561234a575b5083612310565b7f01ffc9a70000000000000000000000000000000000000000000000000000000091501483612343565b600435906001600160a01b03821682036101ff57565b602435906001600160a01b03821682036101ff57565b90600182811c921680156123e9575b60208310146123ba57565b7f4e487b7100000000000000000000000000000000000000000000000000000000600052602260045260246000fd5b91607f16916123af565b90601f601f19910116810190811067ffffffffffffffff82111761092357604052565b906040519182600082549261242a846123a0565b80845293600181169081156124985750600114612451575b5061244f925003836123f3565b565b90506000929192526020600020906000915b81831061247c57505090602061244f9282010138612442565b6020919350806001915483858901015201910190918492612463565b6020935061244f9592507fffffffffffffffffffffffffffffffffffffffffffffffffffffffffffffff0091501682840152151560051b82010138612442565b60005b8381106124eb5750506000910152565b81810151838201526020016124db565b90601f19601f602093612519815180928187528780880191016124d8565b0116010190565b67ffffffffffffffff81116109235760051b60200190565b60031960409101126101ff576004359060243590565b9181601f840112156101ff5782359167ffffffffffffffff83116101ff57602083818601950101116101ff57565b67ffffffffffffffff811161092357601f01601f191660200190565b9291926125a48261257c565b916125b260405193846123f3565b8294818452818301116101ff578281602093846000960137010152565b60206003198201126101ff576004359067ffffffffffffffff82116101ff57806023830112156101ff5781602461260b93600401359101612598565b90565b1561261557565b606460405162461bcd60e51b815260206004820152600a60248201527f6f6e6c792061646d696e000000000000000000000000000000000000000000006044820152fd5b1561266057565b608460405162461bcd60e51b815260206004820152602e60248201527f496e697469616c697a61626c653a20636f6e747261637420697320616c72656160448201527f647920696e697469616c697a65640000000000000000000000000000000000006064820152fd5b156126d157565b606460405162461bcd60e51b815260206004820152600d60248201527f6a6f62206e6f7420666f756e64000000000000000000000000000000000000006044820152fd5b1561271c57565b606460405162461bcd60e51b815260206004820152600e60248201527f6f6e6c79206a6f62206f776e65720000000000000000000000000000000000006044820152fd5b1561276757565b608460405162461bcd60e51b815260206004820152602c60248201527f46756e6374696f6e206d7573742062652063616c6c6564207468726f7567682060448201527f64656c656761746563616c6c00000000000000000000000000000000000000006064820152fd5b156127d857565b608460405162461bcd60e51b815260206004820152602c60248201527f46756e6374696f6e206d7573742062652063616c6c6564207468726f7567682060448201527f6163746976652070726f787900000000000000000000000000000000000000006064820152fd5b91908201809211611bfb57565b1561285657565b608460405162461bcd60e51b815260206004820152602b60248201527f496e697469616c697a61626c653a20636f6e7472616374206973206e6f74206960448201527f6e697469616c697a696e670000000000000000000000000000000000000000006064820152fd5b6001600160a01b03806103b954921691827fffffffffffffffffffffffff00000000000000000000000000000000000000008216176103b955167f0b1186973f810894b87ab0bfbee422fddcaad21b46dc705a561451bbb6bac117600080a3565b8115612b0a57806000526103b76020528160036040600020015414612ac657806000526103b76020526005604060002001544211612a3b575b60008181526103b7602090815260409182902060030180549085905591518481526129c3949184917fe3395cd22fe77c10b3c5e578653d7a91c811426f8df4dae23240d7c2b078e1df9190a280821115612a3457505b6129bd6103ba5442612842565b91613204565b156129ca57565b608460405162461bcd60e51b815260206004820152602160248201527f696e73756666696369656e742066756e647320746f207265766973652072617460448201527f65000000000000000000000000000000000000000000000000000000000000006064820152fd5b90506129b0565b806000526103b7602052612a584260036040600020015483613204565b61295a57608460405162461bcd60e51b815260206004820152603160248201527f696e73756666696369656e742066756e647320746f20736574746c652062656660448201527f6f7265207265766973696e6720726174650000000000000000000000000000006064820152fd5b606460405162461bcd60e51b815260206004820152601460248201527f7261746520686173206e6f74206368616e6765640000000000000000000000006044820152fd5b606460405162461bcd60e51b815260206004820152600c60248201527f696e76616c6964207261746500000000000000000000000000000000000000006044820152fd5b818110612b59575050565b60008155600101612b4e565b9190601f8111612b7457505050565b61244f926000526020600020906020601f840160051c83019310612ba0575b601f0160051c0190612b4e565b9091508190612b93565b90601f83604094601f1993602086528160208701528686013760008582860101520116010190565b80600052606560205260406000206001600160a01b03331660005260205260ff6040600020541615612c015750565b3390600090612c10602a61257c565b92612c1e60405194856123f3565b602a8452612c2c602a61257c565b92601f19602086019401368537845115612e725760308453845160011015612e7257607860218601536029905b60018211612e9f575050612d8357600090612c74604261257c565b90612c8260405192836123f3565b60428252612c90604261257c565b92601f19602084019401368537825115612e725760308453825160011015612e7257607860218401536041905b60018211612dc7575050612d8357612d7f936037612d5f9383612d4e612d1997601196506040519889967f416363657373436f6e74726f6c3a206163636f756e74200000000000000000006020890152518092878901906124d8565b8501917f206973206d697373696e6720726f6c65200000000000000000000000000000008584015251809360488401906124d8565b01010301601f1981018352826123f3565b60405191829162461bcd60e51b83526020600484015260248301906124fb565b0390fd5b606460405162461bcd60e51b815260206004820152602060248201527f537472696e67733a20686578206c656e67746820696e73756666696369656e746044820152fd5b9091600f81166010811015612e45577f3031323334353637383961626364656600000000000000000000000000000000901a612e038486613c45565b5360041c918015612e18576000190190612cbd565b6024827f4e487b710000000000000000000000000000000000000000000000000000000081526011600452fd5b6024837f4e487b710000000000000000000000000000000000000000000000000000000081526032600452fd5b807f4e487b7100000000000000000000000000000000000000000000000000000000602492526032600452fd5b9091600f81166010811015612e45577f3031323334353637383961626364656600000000000000000000000000000000901a612edb8488613c45565b5360041c918015612e18576000190190612c59565b90612f3e9180600052606560205260406000206001600160a01b03831660005260205260ff60406000205416612fb5575b60005260976020526001600160a01b036040600020911690613dcc565b506000805260976020527f683723e34a772b6e4f2c919bba7fa32ed8ea11a8325f54da7db716e9d9dd98c75415612f7157565b606460405162461bcd60e51b815260206004820152601860248201527f63616e6e6f742072656d6f766520616c6c2061646d696e7300000000000000006044820152fd5b80600052606560205260406000206001600160a01b03831660005260205260406000207fffffffffffffffffffffffffffffffffffffffffffffffffffffffffffffff008154169055336001600160a01b038316827ff6391f5c32d9c69d2a47ea670b442974b53935d1edc7fd64eb21e047a839171b600080a4612f21565b1561303b57565b606460405162461bcd60e51b815260206004820152600760248201527f696e76616c6964000000000000000000000000000000000000000000000000006044820152fd5b60207fc6c970958a1f6eae750e294ebf24a992ce9f3be1baf976f04811b637dab23be891806103ba55604051908152a1565b6001600160a01b03806103ea54921691827fffffffffffffffffffffffff00000000000000000000000000000000000000008216176103ea55167f72d66ed05244f4522e4779ce4be88ddd529722030678aeeca374da1bf7654557600080a3565b1561311957565b606460405162461bcd60e51b815260206004820152600960248201527f6e6f7420666f756e6400000000000000000000000000000000000000000000006044820152fd5b1561316457565b606460405162461bcd60e51b815260206004820152600e60248201527f696e76616c696420616d6f756e740000000000000000000000000000000000006044820152fd5b6131b281546123a0565b90816131bc575050565b81601f600093116001146131ce575055565b818352602083206131ea91601f0160051c810190600101612b4e565b8082528160208120915555565b91908203918211611bfb57565b9190916000928184526103b7602052600560408520015480841461356c57808411156135285761323490846131f7565b908181029181830414901517156134ce5764e8d4a510008101908181116134fb5764e8d4a50fff019081116134ce5764e8d4a510009004918184526103b760205260046040852001548084106000146134c8575082935b8281526103b76020526001600160a01b036002604083200154168382526103b7602052600460408320016132c08782546131f7565b9055856001600160a01b036103ea5416613375575b92600560406020948394877f274f4d415f3351e4e45f4a0b7f4f3dff2cd72eaa33fdc2b0cdf63ab8a2915cda98613320575b50508781526103b78652200155604051908152a2111590565b61333781836001600160a01b036103b95416613b91565b897f81e6b108b966709cddc6cb6d61bb914aa652f363813ab8bb61de47b79cb81000896001600160a01b036103b95416938751908152a43880613307565b8483526103e960205260408320548061338f575b506132d5565b9050808711156134c0576133a381886131f7565b908584526103e9602052604084206133bc8282546131f7565b90556001600160a01b036103ea5416803b156134bc576040517f89022e2e0000000000000000000000000000000000000000000000000000000081526001600160a01b0385166004820152602481018390529085908290604490829084905af180156134b1579486947f274f4d415f3351e4e45f4a0b7f4f3dff2cd72eaa33fdc2b0cdf63ab8a2915cda979460059460409460209961349d575b5082908b7f81e6b108b966709cddc6cb6d61bb914aa652f363813ab8bb61de47b79cb810008b6001600160a01b036103ea5416938951908152a49450949650945050613389565b936134aa818593966123f3565b9390613456565b6040513d87823e3d90fd5b8480fd5b5085826133a3565b9361328b565b6024847f4e487b710000000000000000000000000000000000000000000000000000000081526011600452fd5b6024857f4e487b710000000000000000000000000000000000000000000000000000000081526011600452fd5b606460405162461bcd60e51b815260206004820152602060248201527f63616e6e6f7420736574746c65206265666f7265206c617374536574746c65646044820152fd5b5050505050600190565b806000526103b760205260046040600020015492808410613795578093826000526103e960205260406000205480821061372b576135b3916131f7565b90826000526103b760205260046040600020016135d18282546131f7565b9055808210156137205750806135e791946131f7565b925b806136c0575b50826135fa57505050565b6001600160a01b036103ea54161561367c57806000526103e960205260406000206136268482546131f7565b905561363f83836001600160a01b036103ea5416613b91565b7f87bdb98718dd4e61394d946621729721aedbfeb6a4d27df9501eb1913e6f10a060206001600160a01b03806103ea5416946040519687521694a4565b606460405162461bcd60e51b815260206004820152601460248201527f63726564697420746f6b656e206e6f74207365740000000000000000000000006044820152fd5b6136d781846001600160a01b036103b95416613b91565b6001600160a01b036103b95416604051918252827f87bdb98718dd4e61394d946621729721aedbfeb6a4d27df9501eb1913e6f10a060206001600160a01b03871694a4386135ef565b6000945090506135e9565b608460405162461bcd60e51b815260206004820152602260248201527f6372656469742062616c616e63652065786365656473206a6f622062616c616e60448201527f63650000000000000000000000000000000000000000000000000000000000006064820152fd5b608460405162461bcd60e51b815260206004820152602560248201527f7769746864726177616c20616d6f756e742065786365656473206a6f6220626160448201527f6c616e63650000000000000000000000000000000000000000000000000000006064820152fd5b80518210156138135760209160051b010190565b7f4e487b7100000000000000000000000000000000000000000000000000000000600052603260045260246000fd5b9082906001600160a01b036103ea5416806138dd575b5081613881575b50506000526103b760205261387d6004604060002001918254612842565b9055565b61389a826001600160a01b036103b95416833091613beb565b827fc845a5a4f32fa352657d67b371111440e46f015f1823fc16f494c4dcc97a20ec60206001600160a01b03806103b95416946040519687521694a4388061385f565b6040517f70a082310000000000000000000000000000000000000000000000000000000081526001600160a01b03831690816004820152602081602481865afa908115613a5857600091613a64575b506040517fdd62ed3e000000000000000000000000000000000000000000000000000000008152826004820152306024820152602081604481875afa908115613a5857600091613a23575b5080821015613a1c57505b8061398f575b5050613858565b9193509080861115613a0f576139b2816139a981896131f7565b95853091613beb565b846000526103e960205260406000206139cc828254612842565b9055847fc845a5a4f32fa352657d67b371111440e46f015f1823fc16f494c4dcc97a20ec60206001600160a01b036103ea541693604051908152a4388080613988565b50846139b28160006139a9565b9050613982565b906020823d602011613a50575b81613a3d602093836123f3565b81010312613a4d57505138613977565b80fd5b3d9150613a30565b6040513d6000823e3d90fd5b906020823d602011613a8e575b81613a7e602093836123f3565b81010312613a4d5750513861392c565b3d9150613a71565b803b15613b0f576001600160a01b03167fffffffffffffffffffffffff00000000000000000000000000000000000000007f360894a13ba1a3210667c828492db98dca3e2076cc3735a920a3ca505d382bbc5416177f360894a13ba1a3210667c828492db98dca3e2076cc3735a920a3ca505d382bbc55565b608460405162461bcd60e51b815260206004820152602d60248201527f455243313936373a206e657720696d706c656d656e746174696f6e206973206e60448201527f6f74206120636f6e7472616374000000000000000000000000000000000000006064820152fd5b80548210156138135760005260206000200190600090565b6040517fa9059cbb0000000000000000000000000000000000000000000000000000000060208201526001600160a01b0392909216602483015260448083019390935291815261244f91613be66064836123f3565b613c56565b9091926001600160a01b0361244f9481604051957f23b872dd000000000000000000000000000000000000000000000000000000006020880152166024860152166044840152606483015260648252613be66084836123f3565b908151811015613813570160200190565b6001600160a01b03613cb3911691604092600080855193613c7787866123f3565b602085527f5361666545524332303a206c6f772d6c6576656c2063616c6c206661696c6564602086015260208151910182855af161113b613eb7565b8051908115918215613d33575b505015613cca5750565b6084905162461bcd60e51b815260206004820152602a60248201527f5361666545524332303a204552433230206f7065726174696f6e20646964206e60448201527f6f742073756363656564000000000000000000000000000000000000000000006064820152fd5b81925090602091810103126101ff576020015180151581036101ff573880613cc0565b6001810190826000528160205260406000205415600014613dc45780546801000000000000000081101561092357613daf613d98826001879401855584613b79565b81939154906000199060031b92831b921b19161790565b90555491600052602052604060002055600190565b505050600090565b9060018201918160005282602052604060002054801515600014613eae576000198101818111611bfb578254906000198201918211611bfb57808203613e77575b50505080548015613e48576000190190613e278282613b79565b60001982549160031b1b191690555560005260205260006040812055600190565b7f4e487b7100000000000000000000000000000000000000000000000000000000600052603160045260246000fd5b613e97613e87613d989386613b79565b90549060031b1c92839286613b79565b905560005283602052604060002055388080613e0d565b50505050600090565b3d15613ee2573d90613ec88261257c565b91613ed660405193846123f3565b82523d6000602084013e565b606090565b91929015613f485750815115613efb575090565b3b15613f045790565b606460405162461bcd60e51b815260206004820152601d60248201527f416464726573733a2063616c6c20746f206e6f6e2d636f6e74726163740000006044820152fd5b825190915015613f5b5750805190602001fd5b612d7f9060405191829162461bcd60e51b83526020600484015260248301906124fb56fea2646970667358221220d9af89c4bbb2b2170ec4b34f7fb4638ff1297445b49a96052ad79e417a77503d64736f6c634300081a0033",
  "linkReferences": {},
  "deployedLinkReferences": {}
}