{
  "_format": "hh-sol-artifact-1",
  "contractName": "USDCoin",
  "sourceName": "contracts/mocks/token/USDCoin.sol",
  "abi": [
    {
      "inputs": [],
      "stateMutability": "nonpayable",
      "type": "constructor"
    },
    {
      "inputs": [
        {
          "internalType": "address",
          "name": "target",
          "type": "address"
        }
      ],
      "name": "AddressEmptyCode",
      "type": "error"
    },
    {
      "inputs": [
        {
          "internalType": "address",
          "name": "implementation",
          "type": "address"
        }
      ],
      "name": "ERC1967InvalidImplementation",
      "type": "error"
    },
    {
      "inputs": [],
      "name": "ERC1967NonPayable",
      "type": "error"
    },
    {
      "inputs": [
        {
          "internalType": "address",
          "name": "spender",
          "type": "address"
        },
        {
          "internalType": "uint256",
          "name": "allowance",
          "type": "uint256"
        },
        {
          "internalType": "uint256",
          "name": "needed",
          "type": "uint256"
        }
      ],
      "name": "ERC20InsufficientAllowance",
      "type": "error"
    },
    {
      "inputs": [
        {
          "internalType": "address",
          "name": "sender",
          "type": "address"
        },
        {
          "internalType": "uint256",
          "name": "balance",
          "type": "uint256"
        },
        {
          "internalType": "uint256",
          "name": "needed",
          "type": "uint256"
        }
      ],
      "name": "ERC20InsufficientBalance",
      "type": "error"
    },
    {
      "inputs": [
        {
          "internalType": "address",
          "name": "approver",
          "type": "address"
        }
      ],
      "name": "ERC20InvalidApprover",
      "type": "error"
    },
    {
      "inputs": [
        {
          "internalType": "address",
          "name": "receiver",
          "type": "address"
        }
      ],
      "name": "ERC20InvalidReceiver",
      "type": "error"
    },
    {
      "inputs": [
        {
          "internalType": "address",
          "name": "sender",
          "type": "address"
        }
      ],
      "name": "ERC20InvalidSender",
      "type": "error"
    },
    {
      "inputs": [
        {
          "internalType": "address",
          "name": "spender",
          "type": "address"
        }
      ],
      "name": "ERC20InvalidSpender",
      "type": "error"
    },
    {
      "inputs": [],
      "name": "FailedInnerCall",
      "type": "error"
    },
    {
      "inputs": [],
      "name": "InvalidInitialization",
      "type": "error"
    },
    {
      "inputs": [],
      "name": "NotInitializing",
      "type": "error"
    },
    {
      "inputs": [
        {
          "internalType": "address",
          "name": "owner",
          "type": "address"
        }
      ],
      "name": "OwnableInvalidOwner",
      "type": "error"
    },
    {
      "inputs": [
        {
          "internalType": "address",
          "name": "account",
          "type": "address"
        }
      ],
      "name": "OwnableUnauthorizedAccount",
      "type": "error"
    },
    {
      "inputs": [],
      "name": "UUPSUnauthorizedCallContext",
      "type": "error"
    },
    {
      "inputs": [
        {
          "internalType": "bytes32",
          "name": "slot",
          "type": "bytes32"
        }
      ],
      "name": "UUPSUnsupportedProxiableUUID",
      "type": "error"
    },
    {
      "anonymous": false,
      "inputs": [
        {
          "indexed": true,
          "internalType": "address",
          "name": "owner",
          "type": "address"
        },
        {
          "indexed": true,
          "internalType": "address",
          "name": "spender",
          "type": "address"
        },
        {
          "indexed": false,
          "internalType": "uint256",
          "name": "value",
          "type": "uint256"
        }
      ],
      "name": "Approval",
      "type": "event"
    },
    {
      "anonymous": false,
      "inputs": [
        {
          "indexed": false,
          "internalType": "uint64",
          "name": "version",
          "type": "uint64"
        }
      ],
      "name": "Initialized",
      "type": "event"
    },
    {
      "anonymous": false,
      "inputs": [
        {
          "indexed": true,
          "internalType": "address",
          "name": "previousOwner",
          "type": "address"
        },
        {
          "indexed": true,
          "internalType": "address",
          "name": "newOwner",
          "type": "address"
        }
      ],
      "name": "OwnershipTransferred",
      "type": "event"
    },
    {
      "anonymous": false,
      "inputs": [
        {
          "indexed": true,
          "internalType": "address",
          "name": "from",
          "type": "address"
        },
        {
          "indexed": true,
          "internalType": "address",
          "name": "to",
          "type": "address"
        },
        {
          "indexed": false,
          "internalType": "uint256",
          "name": "value",
          "type": "uint256"
        }
      ],
      "name": "Transfer",
      "type": "event"
    },
    {
      "anonymous": false,
      "inputs": [
        {
          "indexed": true,
          "internalType": "address",
          "name": "implementation",
          "type": "address"
        }
      ],
      "name": "Upgraded",
      "type": "event"
    },
    {
      "inputs": [],
      "name": "UPGRADE_INTERFACE_VERSION",
      "outputs": [
        {
          "internalType": "string",
          "name": "",
          "type": "string"
        }
      ],
      "stateMutability": "view",
      "type": "function"
    },
    {
      "inputs": [
        {
          "internalType": "address",
          "name": "owner",
          "type": "address"
        },
        {
          "internalType": "address",
          "name": "spender",
          "type": "address"
        }
      ],
      "name": "allowance",
      "outputs": [
        {
          "internalType": "uint256",
          "name": "",
          "type": "uint256"
        }
      ],
      "stateMutability": "view",
      "type": "function"
    },
    {
      "inputs": [
        {
          "internalType": "address",
          "name": "spender",
          "type": "address"
        },
        {
          "internalType": "uint256",
          "name": "value",
          "type": "uint256"
        }
      ],
      "name": "approve",
      "outputs": [
        {
          "internalType": "bool",
          "name": "",
          "type": "bool"
        }
      ],
      "stateMutability": "nonpayable",
      "type": "function"
    },
    {
      "inputs": [
        {
          "internalType": "address",
          "name": "account",
          "type": "address"
        }
      ],
      "name": "balanceOf",
      "outputs": [
        {
          "internalType": "uint256",
          "name": "",
          "type": "uint256"
        }
      ],
      "stateMutability": "view",
      "type": "function"
    },
    {
      "inputs": [],
      "name": "decimals",
      "outputs": [
        {
          "internalType": "uint8",
          "name": "",
          "type": "uint8"
        }
      ],
      "stateMutability": "pure",
      "type": "function"
    },
    {
      "inputs": [
        {
          "internalType": "address",
          "name": "initialOwner",
          "type": "address"
        }
      ],
      "name": "initialize",
      "outputs": [],
      "stateMutability": "nonpayable",
      "type": "function"
    },
    {
      "inputs": [
        {
          "internalType": "address",
          "name": "to",
          "type": "address"
        },
        {
          "internalType": "uint256",
          "name": "amount",
          "type": "uint256"
        }
      ],
      "name": "mint",
      "outputs": [],
      "stateMutability": "nonpayable",
      "type": "function"
    },
    {
      "inputs": [],
      "name": "name",
      "outputs": [
        {
          "internalType": "string",
          "name": "",
          "type": "string"
        }
      ],
      "stateMutability": "view",
      "type": "function"
    },
    {
      "inputs": [],
      "name": "owner",
      "outputs": [
        {
          "internalType": "address",
          "name": "",
          "type": "address"
        }
      ],
      "stateMutability": "view",
      "type": "function"
    },
    {
      "inputs": [],
      "name": "proxiableUUID",
      "outputs": [
        {
          "internalType": "bytes32",
          "name": "",
          "type": "bytes32"
        }
      ],
      "stateMutability": "view",
      "type": "function"
    },
    {
      "inputs": [],
      "name": "renounceOwnership",
      "outputs": [],
      "stateMutability": "nonpayable",
      "type": "function"
    },
    {
      "inputs": [],
      "name": "symbol",
      "outputs": [
        {
          "internalType": "string",
          "name": "",
          "type": "string"
        }
      ],
      "stateMutability": "view",
      "type": "function"
    },
    {
      "inputs": [],
      "name": "totalSupply",
      "outputs": [
        {
          "internalType": "uint256",
          "name": "",
          "type": "uint256"
        }
      ],
      "stateMutability": "view",
      "type": "function"
    },
    {
      "inputs": [
        {
          "internalType": "address",
          "name": "to",
          "type": "address"
        },
        {
          "internalType": "uint256",
          "name": "value",
          "type": "uint256"
        }
      ],
      "name": "transfer",
      "outputs": [
        {
          "internalType": "bool",
          "name": "",
          "type": "bool"
        }
      ],
      "stateMutability": "nonpayable",
      "type": "function"
    },
    {
      "inputs": [
        {
          "internalType": "address",
          "name": "from",
          "type": "address"
        },
        {
          "internalType": "address",
          "name": "to",
          "type": "address"
        },
        {
          "internalType": "uint256",
          "name": "value",
          "type": "uint256"
        }
      ],
      "name": "transferFrom",
      "outputs": [
        {
          "internalType": "bool",
          "name": "",
          "type": "bool"
        }
      ],
      "stateMutability": "nonpayable",
      "type": "function"
    },
    {
      "inputs": [
        {
          "internalType": "address",
          "name": "newOwner",
          "type": "address"
        }
      ],
      "name": "transferOwnership",
      "outputs": [],
      "stateMutability": "nonpayable",
      "type": "function"
    },
    {
      "inputs": [
        {
          "internalType": "address",
          "name": "newImplementation",
          "type": "address"
        },
        {
          "internalType": "bytes",
          "name": "data",
          "type": "bytes"
        }
      ],
      "name": "upgradeToAndCall",
      "outputs": [],
      "stateMutability": "payable",
      "type": "function"
    }
  ],
  "bytecode": "0x60a080604052346100e857306080527ff0c57e16840df040f15088dc2f81fe391c3923bec73e23a9662efc9c229c6a005460ff8160401c166100d9576002600160401b03196001600160401b03821601610073575b60405161124390816100ed823960805181818161084f015261091f0152f35b6001600160401b0319166001600160401b039081177ff0c57e16840df040f15088dc2f81fe391c3923bec73e23a9662efc9c229c6a005581527fc7f505b2f371ae2175ee4913f4499e1f2633a7b5936321eed1cdaeb6115181d290602090a15f80610054565b63f92ee8a960e01b5f5260045ffd5b5f80fdfe60806040526004361015610011575f80fd5b5f3560e01c806306fdde0314610cac578063095ea7b314610c2d57806318160ddd14610c0457806323b872dd14610b2c578063313ce56714610b1157806340c10f1914610ad45780634f1ef286146108a357806352d1902d1461083d57806370a08231146107f9578063715018a6146107925780638da5cb5b1461075e57806395d89b4114610670578063a9059cbb1461063f578063ad3cb1cc146105fc578063c4d66de81461014a578063dd62ed3e146101035763f2fde38b146100d4575f80fd5b346100ff5760203660031901126100ff576100fd6100f0610d93565b6100f8610faf565b610e6d565b005b5f80fd5b346100ff5760403660031901126100ff5761011c610d93565b61012d610127610da9565b91610e35565b9060018060a01b03165f52602052602060405f2054604051908152f35b346100ff5760203660031901126100ff57610163610d93565b5f805160206111ee8339815191525460ff8160401c16159067ffffffffffffffff8116801590816105f4575b60011490816105ea575b1590816105e1575b506105d25767ffffffffffffffff1981166001175f805160206111ee83398151915255816105a6575b506040908151926101db8385610dbf565b60088452672aa9a21021b7b4b760c11b60208501528251936101fd8486610dbf565b60048552635553444360e01b60208601526102166110a4565b61021e6110a4565b80519067ffffffffffffffff821161048f5781906102495f8051602061112e83398151915254610dfd565b601f811161052c575b50602090601f83116001146104ae575f926104a3575b50508160011b915f199060031b1c1916175f8051602061112e833981519152555b835167ffffffffffffffff811161048f576102b15f8051602061116e83398151915254610dfd565b601f8111610420575b506020601f821160011461039f5781906103089495965f92610394575b50508160011b915f199060031b1c1916175f8051602061116e833981519152555b6103006110a4565b6100f86110a4565b6103106110a4565b3315610381576103256402540be40033610fe2565b61032b57005b60207fc7f505b2f371ae2175ee4913f4499e1f2633a7b5936321eed1cdaeb6115181d29168ff0000000000000000195f805160206111ee83398151915254165f805160206111ee833981519152555160018152a1005b63ec442f0560e01b5f525f60045260245ffd5b0151905086806102d7565b601f198216955f8051602061116e8339815191525f52815f20965f5b818110610408575091610308959697918460019594106103f0575b505050811b015f8051602061116e833981519152556102f8565b01515f1960f88460031b161c191690558680806103d6565b838301518955600190980197602093840193016103bb565b5f8051602061116e8339815191525f527f46a2803e59a4de4e7a4c574b1243f25977ac4c77d5a1a4a609b5394cebb4a2aa601f830160051c81019160208410610485575b601f0160051c01905b81811061047a57506102ba565b5f815560010161046d565b9091508190610464565b634e487b7160e01b5f52604160045260245ffd5b015190508680610268565b5f8051602061112e8339815191525f9081528281209350601f198516905b81811061051457509084600195949392106104fc575b505050811b015f8051602061112e83398151915255610289565b01515f1960f88460031b161c191690558680806104e2565b929360206001819287860151815501950193016104cc565b5f8051602061112e8339815191525f529091507f2ae08a8e29253f69ac5d979a101956ab8f8d9d7ded63fa7a83b16fc47648eab0601f840160051c8101916020851061059c575b90601f859493920160051c01905b81811061058e5750610252565b5f8155849350600101610581565b9091508190610573565b68ffffffffffffffffff191668010000000000000001175f805160206111ee83398151915255826101ca565b63f92ee8a960e01b5f5260045ffd5b905015846101a1565b303b159150610199565b83915061018f565b346100ff575f3660031901126100ff5761063b60405161061d604082610dbf565b60058152640352e302e360dc1b602082015260405191829182610d69565b0390f35b346100ff5760403660031901126100ff5761066561065b610d93565b6024359033610ede565b602060405160018152f35b346100ff575f3660031901126100ff576040515f5f8051602061116e8339815191525461069c81610dfd565b808452906001811690811561073a57506001146106d0575b61063b836106c481850382610dbf565b60405191829182610d69565b5f8051602061116e8339815191525f9081527f46a2803e59a4de4e7a4c574b1243f25977ac4c77d5a1a4a609b5394cebb4a2aa939250905b808210610720575090915081016020016106c46106b4565b919260018160209254838588010152019101909291610708565b60ff191660208086019190915291151560051b840190910191506106c490506106b4565b346100ff575f3660031901126100ff575f8051602061118e833981519152546040516001600160a01b039091168152602090f35b346100ff575f3660031901126100ff576107aa610faf565b5f8051602061118e83398151915280546001600160a01b031981169091555f906001600160a01b03167f8be0079c531659141344cd1fd0a4f28419497f9722a3daafe3b4186f6b6457e08280a3005b346100ff5760203660031901126100ff576001600160a01b0361081a610d93565b165f525f8051602061114e833981519152602052602060405f2054604051908152f35b346100ff575f3660031901126100ff577f00000000000000000000000000000000000000000000000000000000000000006001600160a01b031630036108945760206040515f805160206111ce8339815191528152f35b63703e46dd60e11b5f5260045ffd5b60403660031901126100ff576108b7610d93565b6024359067ffffffffffffffff82116100ff57366023830112156100ff578160040135906108e482610de1565b916108f26040519384610dbf565b808352602083019336602483830101116100ff57815f926024602093018737840101526001600160a01b037f000000000000000000000000000000000000000000000000000000000000000016308114908115610ab2575b5061089457610957610faf565b6040516352d1902d60e01b81526001600160a01b0382169390602081600481885afa5f9181610a7e575b506109995784634c9c8ce360e01b5f5260045260245ffd5b805f805160206111ce833981519152869203610a6c5750823b15610a5a575f805160206111ce83398151915280546001600160a01b031916821790557fbc7cd75a20ee27fd9adebab32041f755214dbc6bffa90cc0225b39da2e5c2d3b5f80a2825115610a41575f80916100fd945190845af43d15610a39573d91610a1d83610de1565b92610a2b6040519485610dbf565b83523d5f602085013e6110cf565b6060916110cf565b50505034610a4b57005b63b398979f60e01b5f5260045ffd5b634c9c8ce360e01b5f5260045260245ffd5b632a87526960e21b5f5260045260245ffd5b9091506020813d602011610aaa575b81610a9a60209383610dbf565b810103126100ff57519086610981565b3d9150610a8d565b5f805160206111ce833981519152546001600160a01b0316141590508461094a565b346100ff5760403660031901126100ff57610aed610d93565b610af5610faf565b6001600160a01b03811615610381576100fd9060243590610fe2565b346100ff575f3660031901126100ff57602060405160068152f35b346100ff5760603660031901126100ff57610b45610d93565b610b4d610da9565b60443590610b5a83610e35565b335f90815260209190915260409020549260018401610b7e575b6106659350610ede565b828410610be9576001600160a01b03811615610bd6573315610bc35761066593610ba782610e35565b60018060a01b0333165f526020528360405f2091039055610b74565b634a1406b160e11b5f525f60045260245ffd5b63e602df0560e01b5f525f60045260245ffd5b8284637dc7a0d960e11b5f523360045260245260445260645ffd5b346100ff575f3660031901126100ff5760205f805160206111ae83398151915254604051908152f35b346100ff5760403660031901126100ff57610c46610d93565b602435903315610bd6576001600160a01b0316908115610bc357610c6933610e35565b825f526020528060405f20556040519081527f8c5be1e5ebec7d5bd14f71427d1e84f3dd0314c0f7b2291e5b200ac8c7c3b92560203392a3602060405160018152f35b346100ff575f3660031901126100ff576040515f5f8051602061112e83398151915254610cd881610dfd565b808452906001811690811561073a5750600114610cff5761063b836106c481850382610dbf565b5f8051602061112e8339815191525f9081527f2ae08a8e29253f69ac5d979a101956ab8f8d9d7ded63fa7a83b16fc47648eab0939250905b808210610d4f575090915081016020016106c46106b4565b919260018160209254838588010152019101909291610d37565b602060409281835280519182918282860152018484015e5f828201840152601f01601f1916010190565b600435906001600160a01b03821682036100ff57565b602435906001600160a01b03821682036100ff57565b90601f8019910116810190811067ffffffffffffffff82111761048f57604052565b67ffffffffffffffff811161048f57601f01601f191660200190565b90600182811c92168015610e2b575b6020831014610e1757565b634e487b7160e01b5f52602260045260245ffd5b91607f1691610e0c565b6001600160a01b03165f9081527f52c63247e1f47db19d5ce0460030c497f067ca4cebf71ba98eeadabe20bace016020526040902090565b6001600160a01b03168015610ecb575f8051602061118e83398151915280546001600160a01b0319811683179091556001600160a01b03167f8be0079c531659141344cd1fd0a4f28419497f9722a3daafe3b4186f6b6457e05f80a3565b631e4fbdf760e01b5f525f60045260245ffd5b6001600160a01b0316908115610f9c576001600160a01b031691821561038157815f525f8051602061114e83398151915260205260405f2054818110610f8357817fddf252ad1be2c89b69c2b068fc378daa952ba7f163c4a11628f55a4df523b3ef92602092855f525f8051602061114e83398151915284520360405f2055845f525f8051602061114e833981519152825260405f20818154019055604051908152a3565b8263391434e360e21b5f5260045260245260445260645ffd5b634b637e8f60e11b5f525f60045260245ffd5b5f8051602061118e833981519152546001600160a01b03163303610fcf57565b63118cdaa760e01b5f523360045260245ffd5b5f805160206111ae8339815191525490828201809211611090575f805160206111ae833981519152919091556001600160a01b0316905f907fddf252ad1be2c89b69c2b068fc378daa952ba7f163c4a11628f55a4df523b3ef906020908461106e57805f805160206111ae83398151915254035f805160206111ae833981519152555b604051908152a3565b8484525f8051602061114e833981519152825260408420818154019055611065565b634e487b7160e01b5f52601160045260245ffd5b60ff5f805160206111ee8339815191525460401c16156110c057565b631afcd79f60e31b5f5260045ffd5b906110f357508051156110e457805190602001fd5b630a12f52160e11b5f5260045ffd5b81511580611124575b611104575090565b639996b31560e01b5f9081526001600160a01b0391909116600452602490fd5b50803b156110fc56fe52c63247e1f47db19d5ce0460030c497f067ca4cebf71ba98eeadabe20bace0352c63247e1f47db19d5ce0460030c497f067ca4cebf71ba98eeadabe20bace0052c63247e1f47db19d5ce0460030c497f067ca4cebf71ba98eeadabe20bace049016d09d72d40fdae2fd8ceac6b6234c7706214fd39c1cd1e609a0528c19930052c63247e1f47db19d5ce0460030c497f067ca4cebf71ba98eeadabe20bace02360894a13ba1a3210667c828492db98dca3e2076cc3735a920a3ca505d382bbcf0c57e16840df040f15088dc2f81fe391c3923bec73e23a9662efc9c229c6a00a264697066735822122014f45189cd685a8984ee014adfa3a9cb92e6d8f309263265f99db8b7ab34660b64736f6c634300081a0033",
  "linkReferences": {},
  "deployedLinkReferences": {}
}